S00D00004144434441432E73333757
S31508000000001000202D120008054D0008054D0008B7
S31508000010054D0008054D0008054D0008054D00086A
S31508000020054D0008054D0008054D0008054D00085A
S31508000030054D0008054D0008054D0008054D00084A
S31508000040054D0008054D0008054D0008054D00083A
S31508000050FD0F0008054D0008054D0008054D000870
S31508000060054D0008054D0008054D0008054D00081A
S31508000070054D0008054D0008054D0008054D00080A
S31508000080054D0008054D0008054D0008054D0008FA
S31508000090054D0008054D0008054D0008054D0008EA
S315080000A0054D00087913000859130008054D000886
S315080000B0054D0008054D0008054D0008054D0008CA
S315080000C0054D0008054D0008054D0008054D0008BA
S315080000D0054D0008054D0008054D0008054D0008AA
S315080000E0054D0008054D0008054D0008054D00089A
S315080000F0054D0008054D0008054D0008054D00088A
S31508000100054D0008054D0008054D0008054D000879
S31508000110054D0008054D0008054D0008054D000869
S31508000120054D0008054D0008054D0008054D000859
S31508000130054D0008054D0008054D0008054D000849
S31508000140054D0008054D0008054D0008D75E000856
S31508000150054D0008054D0008054D0008054D000829
S31508000160054D0008054D0008054D0008054D000819
S315080001702DE9F04FC76997B08346209E08910C92E7
S31508000180129355EC104B8DED000B7FB9102003F040
S31508000190CFFA0246CBF81C0020B9A74BEF21A74897
S315080001A003F0EAFEC0E901770760C760DBF81C3098
S315080001B0196859B15A680123584693404A608B60BA
S315080001C003F0A4FBDBF81C3000221A602B1EB7BF15
S315080001D023F00043002301220193A8BF3360019F47
S315080001E0974BB8BF3260BB4319D142F20F73129ACC
S315080001F01360C7F31303234300F0DB85219B53B930
S31508000200904B21E0904B03930833219A136003988F
S3150800021017B0BDE8F08F8B4B03930333F5E79DEDDD
S31508000220007B0022002351EC170B8DED0A7B04F0AE
S31508000230EBFC804650B10123129A1360219B13B13F
S31508000240824B219A1360824B0393E0E7C7F30A5661
S3150800025014AA15A958469DED0A0B03F0DFFD029076
S31508000260002E76D00B9BA6F2FF36CDF84C80C3F352
S31508000270130343F07F53DDE90A0143F4401319469B
S315080002800022744B04F0A0F865A3D3E9002304F018
S3150800029053FA65A3D3E9002304F098F804460D46FB
S315080002A0304604F0DFF962A3D3E9002304F044FAE8
S315080002B002460B462046294604F088F804460D46B1
S315080002C004F0EAFC0022074600232046294604F0EB
S315080002D0A5FC40B1384604F0C5F922462B4604F081
S315080002E093FC00B9013F162F52D85B4B03EBC703AB
S315080002F0DDE90A01D3E9002304F090FC002849D07F
S31508000300013F00231193149B9B1B5A1E4CBFC3F13C
S3150800031001030023079245BF06930023069307931C
S31508000320002F39DB079B10973B440793002309935B
S31508000330089B092B66D8052BC5BF043B002401245E
S315080003400893089B023B032B67D8DFE803F02D3A96
S315080003503859DDE914631E4406F23243202BC9BF1F
S31508000360C3F14003C3F120039F4006F21243D8BFEE
S3150800037004FA03F006F1FF36C4BF24FA03F347EA8A
S31508000380030004F05FF90122A1F1F873139276E7EE
S315080003900123B7E71190B6E7069BDB1B06937B4262
S315080003A0099300231093C3E700230D930C9B002B9E
S315080003B056DC012399461A4604930C920CE0012355
S315080003C0F3E700230D930C9BFB1803F10109049333
S315080003D04B46012BB8BF0123DBF81C000021042281
S315080003E002F114059D423FD94160584603F04EFA82
S315080003F0039000283BD1194B024640F2AF11CEE6D6
S315080004000123DFE7012400230D9408934FF0FF33FF
S315080004100022994604931223CFE701230D93F5E7AB
S3150800042061436F63A787D23FB3C8608B288AC63FEC
S31508000430FB799F501344D33F6B640008826400081D
S315080004400000F07F676400085E6400083B640008EB
S315080004503A6400080000F83FA0650008E364000855
S315080004600C9B99460493B7E701315200B8E7DBF8CD
S315080004701C30B9F10E0F039A1A606FD8002C6DD094
S31508000480002F36DD07F00F02A04BF8054FEA2714B8
S3150800049003EBC20393ED007B8DED0E7B17D59C4BCA
S315080004A004F00F044FF00308D3E90823DDE90A0135
S315080004B004F06CFACDE90001954D5CB9DDE90E232F
S315080004C0DDE9000104F062FACDE900012BE04FF006
S315080004D00208F1E7E10709D508F10108DDE90E018F
S315080004E0D5E9002304F028F9CDE90E016410083592
S315080004F0E3E700F007817C42844B854D4FF0020804
S3150800050004F00F02241103EBC203DDE90A01D3E963
S31508000510002304F011F90023CDE90001002C40F076
S31508000520E580002BD0D1119BDDE90045002B00F0BA
S315080005304C810022774B2046294604F06FFB0028A1
S3150800054000F04381B9F1000F00F03F81049B002BB6
S3150800055000F3E480DDE90A34CDE90034159B002B6D
S3150800056002DB0E2F40F342820D9A002A40F0678282
S31508000570099C0025DDF81880B8F1000F0DD0079BFF
S31508000580002B0ADD4345069AA8BF4346D21AA8EBB4
S3150800059003080692079AD31A0793099B0BB30D9B78
S315080005A0002B00F0A682002C00F0A18229462246E4
S315080005B0584603F0D5FA029A01460546584603F00E
S315080005C025FA02990646584603F0A0F9099B1B1B13
S315080005D0099300F09182099A3146584603F0C0FA09
S315080005E002900121584603F0FBF9109B0446002BA4
S315080005F000F084821A460146584603F0B1FA089B71
S315080006000446012B03DC009B002B00F07C820026AD
S31508000610236904EB8303186904F0C5FEC0F12000C2
S315080006201096079B184410F01F0000F09182C0F145
S315080006302003042B40F38182C0F11C00069B03446F
S3150800064080440693079B03440793069B002B05DD0E
S315080006501A460299584603F0DDFA0290079B002BCA
S3150800066005DD21461A46584603F0D4FA0446119B7E
S31508000670002B00F076822146029804F0E3FE00285B
S3150800068080F26F8200230A220299584603F060F925
S315080006900D9B7E1E0290002B00F05C8200232946EB
S315080006A00A22584603F054F9049B0546002B03DC3E
S315080006B0089B022B00F35E82B8F1000F05DD294680
S315080006C04246584603F0A6FA0546109B002B00F052
S315080006D0D0826968584603F0D9F80746002840F0E2
S315080006E07F820D4B024640F2EF2158E5E20706D518
S315080006F008F10108D5E9002304F01EF80123641067
S3150800070008350BE74FF002080DE700BFA0650008A3
S31508000710786500080000F03FE364000820460022E0
S31508000720AC4B294604F008F87E1E08F10108049C23
S31508000730CDE90001404603F095FFDDE9002303F00B
S31508000740FBFFA54B002203F041FEA1F15073CDE952
S315080007500E010F93002C3BD10022A04BDDE90001CE
S3150800076003F032FE02460B46CDE90023DDE90E23EF
S3150800077004F072FA002840F05781DDE90E2101F1F4
S315080007800043DDE9000104F049FA00283FF4E2AE2F
S31508000790002425460C9BDDF80CA0DE434FF000082C
S315080007A02146584603F0B2F8002D00F0A980B8F1AA
S315080007B0000F05D0A84503D04146584603F0A6F8D1
S315080007C02946584603F0A2F89AE03E464C46B1E759
S315080007D0834B03EBC40353E90201039B1C440D9BA3
S315080007E0002B4AD002460B4600207E4904F0CEF87C
S315080007F0DDE90E2303F0E8FDDDF80CA0CDE90E01D6
S31508000800DDE9000104F048FA054603F02BFF02462D
S3150800081030350B46DDE9000103F0D6FD0AF8015B29
S3150800082002460B46CDE90001DDE90E0104F014FA93
S31508000830002865D100206C49DDE9002303F0C4FDDA
S3150800084002460B46DDE90E0104F006FA002840F0E0
S315080008500D81A24500F0EA8000225E4BDDE90E011B
S3150800086003F06AFF00225B4BCDE90E01DDE90001CA
S3150800087003F062FFCDE90001C2E7DDE90E2303F0CC
S315080008805BFFA046DDF80CA0CDE90E01DDE900010D
S3150800089004F002FA054603F0E5FE024630350B463B
S315080008A0DDE9000103F090FD0AF8015B02460B46FC
S315080008B0A245CDE900234FF0000223D1494BDDE9DB
S315080008C00E0103F083FD02460B46DDE9000104F044
S315080008D0C3F9002840F0CA8000204249DDE90E230A
S315080008E003F072FD02460B46DDE9000104F096F9B5
S315080008F070B1C24608F1FF381AF8013C302BF8D01F
S31508000900374655E0334B03F017FFCDE90001BDE745
S31508000910DDE90A34CDE90034159B002BFFF628AE35
S315080009200E2F3FF725AE2E4B03EBC70393ED007B47
S315080009300C9B002B8DED047B02DAB9F1000F64D015
S31508000940DDF80CA0DDE90045DDE90423204629464B
S3150800095004F01CF804F0A0F9064603F083FEDDE96E
S31508000960042303F0E9FE0246204606F130040B464E
S31508000970294603F029FD0AF8014B039C02460B465B
S31508000980AAEB0404A14540F0828003F01FFD04464B
S315080009900D46DDE9042304F05FF9002865D12046F9
S315080009A02946DDE9042304F02FF908B1F3075CD4DE
S315080009B00299584602F0AAFF002301378AF8003048
S315080009C0129B1F60219B002B3FF421ACC3F800A0AB
S315080009D01DE400BF0000244000001C400000144035
S315080009E0A06500080000E03F0000F03FA24B03EBC3
S315080009F0C70393ED007B0C9B002B8DED047B9FDAE0
S31508000A00B9F1000F9CDC7FF4C3AE00229B4BDDE9F5
S31508000A10040103F091FEDDE9002304F013F904460E
S31508000A2000287FF4B5AE3E462546B4E0DDE90A3433
S31508000A30CDE90034159B002B01DB0E2FD6DD089A75
S31508000A40012A36DC139A82B303F23343099CDDF894
S31508000A501880069A012158461A440692079A1A449B
S31508000A60079202F0BDFF054686E53E4653469A467E
S31508000A7013F8012D392A06D1039A9A42F7D1302262
S31508000A80039901360A701A7801321A7038E700227B
S31508000A907B4B03F051FE0022002304460D4604F06A
S31508000AA0B3F800283FF450AF82E7149BC3F136032E
S31508000AB0CCE709F1FF34099BA34208DBB9F1000F23
S31508000AC0A3EB04040EDBDDF818804B46C1E7099B4F
S31508000AD0109AE31A0994DDF8188000241A444B4644
S31508000AE01092B6E7069BA3EB09080023B1E7029E1E
S31508000AF071E5099A029970E5029672E5089B012B41
S31508000B0017DC009BABB9019BC3F313039BB9019B8D
S31508000B1023F00046360D360536B1069B012601330D
S31508000B200693079B01330793109B002B7FF470AD48
S31508000B301096012075E50026F6E73FF486AD1C33CE
S31508000B40069A1A4498440692079A1A4407927CE52C
S31508000B500346F4E7049B002B2BDC089B022B09DCDD
S31508000B6027E0B9F1000F1DDC089B022B1ADD3E4673
S31508000B70CDF81090049B002B7FF40CAE214605227D
S31508000B80584602F0E5FE01460446029804F05AFC6F
S31508000B9000287FF7FFADDDF80CA0312301360AF8EF
S31508000BA0013BFBE50D9B3E46CDF81090002B7FF4EC
S31508000BB083AD039F2146029804F062FA039B00F175
S31508000BC03009049A07F8019BFB1A9A4240F3CB8036
S31508000BD000230A220299584602F0BAFE0290E9E773
S31508000BE02A6905F10C010C300232920004F0D0FC9F
S31508000BF001223946584603F00DF8039BA8460546D8
S31508000C0003F1010ADDE9032313440793009B03F06C
S31508000C10010309930AF1FF3321460298049304F06D
S31508000C202FFA4146069000F13009029804F00AFCB2
S31508000C302A4621460746584603F058F8C268014630
S31508000C4002B3584602F062FE002F3ADA01220299F0
S31508000C50584602F0DFFF2146029004F0F3FB002815
S31508000C6003DC29D119F0010F26D0B9F1390F1DD1AE
S31508000C7032E02846C1E700BFA0650008000014401E
S31508000C80000024400A90029804F0DCFB0A990C90B4
S31508000C90584602F03BFE0C9A5ABB089B53B9099B6F
S31508000CA043B9B9F1390F17D0002F05DD069B03F1BB
S31508000CB0310901E0002F2ADADDF810A00AF8019BB5
S31508000CC06EE5089B3B4304D1009B03F00103002B10
S31508000CD0BCD0B9F1390F36D1049F392307F8013B47
S31508000CE0BA46013F1AF8013C392B5AD001333B70FA
S31508000CF056E5002F06DB089B3B4306D1009B03F015
S31508000D00010313B9002AA1DCD6E7002AE1DC079B18
S31508000D1057460AF8019C53452ED000230A22029909
S31508000D20584602F015FEA84502904FF000034FF012
S31508000D300A02414658460BD102F00AFE804605468D
S31508000D400AF1010A66E7DDF810A009F10109B5E71D
S31508000D5002F0FEFD2946804600230A22584602F084
S31508000D60F7FD0546ECE7049B4FF00008002BCCBFC7
S31508000D701F460127039B1F4401220299584602F089
S31508000D8049FF2146029004F05DFB0028A8DC02D149
S31508000D9019F0010FA4D1BA4617F8013D302BFAD045
S31508000DA0FEE4039BBB429BD13123039A01361370A1
S31508000DB0F6E4219B002B7FF425AA014BFFF744BAE2
S31508000DC05E6400080348044B834202D0034B03B118
S31508000DD0184770473C1500203C150020000000000D
S31508000DE0064B0749C91A891048BF0131491003D073
S31508000DF0044B0BB101481847704700BF3C1500204B
S31508000E003C1500200000000010B5064C237843B9B5
S31508000E10FFF7D8FF044B13B10448AFF30080012352
S31508000E20237010BDE812002000000000B06700081B
S31508000E3008B5054B1BB105490548AFF30080BDE869
S31508000E400840FFF7CDBF00BF0000000000100020DB
S31508000E50B0670008A3F5803A704700BF174B002B10
S31508000E6008BF134B9D46FFF7F5FF00218B460F463B
S31508000E701348144A121A04F0E2F80E4B002B00D05D
S31508000E8098470D4B002B00D09847002000210400FE
S31508000E900D000D48002802D00C48AFF3008002F080
S31508000EA027FB2000290000F0B9F801F0D3FE00BFA7
S31508000EB000000800000000000000000000100020EC
S31508000EC0001000205413002000000000000000005D
S31508000ED038B5294D04466B6E43F0806343F40073BE
S31508000EE06B66264B5A6B5A635A6B42F0A0725A636A
S31508000EF0012203F504335A6041F20502A3F5805333
S31508000F00DA6018B92F211E4803F00AFF2A6F2B6FE3
S31508000F10C2F303321B4D0132B5FBF2F5C3F380234E
S31508000F200133B5FBF3F5B4EB151F03D93921144882
S31508000F3003F0F6FE2401630803EB4513B3FBF4F351
S31508000F40114A203B02EAC302104B996821F060015E
S31508000F50996099689960DA6105225A614FF4A0226E
S31508000F60A3F50033C3F838274FF4C022C3F8302757
S31508000F701422C3F8202738BD0080005000C0035053
S31508000F80385F0008002D3101F8FF7F0000C00550CA
S31508000F90024B9A695206FCD5D863704700C00550C3
S31508000FA030B585B0134A144C536E054643F080633A
S31508000FB043F01003536600211022684604F03FF8F8
S31508000FC06946204601F0D6F9242000F0D9FCBDF880
S31508000FD002300133B0FBF3F3B3FBF5F3E361A36926
S31508000FE0042043F00103A36101F0FCFB0123E36045
S31508000FF005B030BD0080005000800450044B5B698A
S31508001000DB0704D50123034A5361034A137070476B
S315080010100080045000A00450E912002080B598B062
S3150800102001F018FC01213A2000F082FC01212A2057
S3150800103000F07EFC01215420002500F079FC4FF4D5
S31508001040E130FFF745FF4FF0030849F201332A461E
S315080010505E495F48CDE906550593CDE908558DF8F3
S315080010601A800A9500F040FE5A4C0EAE07468DF8D7
S3150800107025000FCC0FC60FCC0FC694E8030040F628
S31508001080E44386E803002A465349119300972B4602
S315080010904F488DF823508DF83C8000F057FE022704
S315080010A04E4A1090D2F82433494843F48033C2F8A4
S315080010B0243308A90EAA00F0A1FE454805AA06A9E8
S315080010C000F09EFD0EAE1422294609A8083403F046
S315080010D0B6FF0FCC0FC694E8030086E80300404924
S315080010E04048089701F0D8FA012404230B9008A970
S315080010F03C488DF848308DF830708DF8424011978D
S315080011008DF825508DF83A5001F0CAF92A46354827
S315080011100EA901F005FA22462946324801F076F969
S315080011200520FFF73DFF304E304F314C3378002B0A
S31508001130FCD0012326490DF108084046CB6003F090
S315080011401CFE98E8030040F6E4422A4DDFF8BC800E
S3150800115085E803002B682848534340F6FF72B3FB23
S31508001160F2F3C8F8003003F0BFFD3A4664212B6855
S31508001170204602F0E1F8204603F0B6FD1F4803F0CA
S31508001180B3FDD8F800303A466421204602F0D4F878
S31508001190204603F0A9FD1A4803F0A6FD98ED007A4B
S315080011A0DFED186AB8EE477AC7EE267A9FED167A0B
S315080011B067EE877AFCEEE77A002117EE902A09484F
S315080011C001F044FA00233370B0E700BF002D310167
S315080011D000400059705F00080024F40000C0035066
S315080011E040420F0000400259E9120020525F0008F1
S315080011F0EA1200201C100020455F0008565F000810
S315080012006A5F000800404E4500F07F451810002030
S315080012100348044A0449121A921003F074BD00BF29
S3150800122070010008700100085413002008B5154B1A
S3150800123083F30A8800F030F8FFF7EAFF124B1349E8
S315080012408B4212D30020124B12498B4218D3FFF758
S3150800125005FE186850F82240586840F822400132C6
S3150800126098688242F5D30C33EAE70022F8E71C684F
S3150800127044F8220001325C68A242F8D30833E4E756
S315080012800022F8E700000020B8670008C4670008D5
S31508001290C4670008C467000870B54FF48041124B54
S315080012A0124A134D9A60D3F8882005F5005442F483
S315080012B07002C3F888200F4A91664FF0FF32226603
S315080012C00D4A62660222C3F8D020BFF34F8FBFF3E0
S315080012D06F8F4FF44036002001F09EFA0020E6603A
S315080012E001F080FA2E6170BD00ED00E000000008F4
S315080012F00080004400900050F7FF37002DE9F041C8
S315080013000C2504464FF00108124E0CB314F00100E8
S315080013100BD0002024F0010405FB00625768002F5B
S31508001320F3D09168C0B2B847EFE7224601302028CB
S315080013304FEA520201D0D307F8D508FA00F20F286F
S3150800134024EA0204E8D9103805FB0062B432E5E75E
S31508001350BDE8F0812410002008B501F0C9F9054B55
S3150800136000F0553020F05020C3F82004BDE80840AE
S31508001370FFF7C4BF00E0035008B501F0B9F9054B03
S3150800138000F0AA3020F0A020C3F82004BDE80840E9
S31508001390FFF7B4BF00E0035038B5104B0546D3F845
S315080013A000310C4603F00303022B0BD0032B0DD0A0
S315080013B0012B0FD104F06AFA032305B1286004B1A2
S315080013C0236038BD04F0B4FA0923F6E704F064FA9A
S315080013D00823F2E701230020EFE700BF0080005052
S315080013E038B5104B0546D3F840310C4603F00303D5
S315080013F0022B0BD0032B0DD0012B0FD104F0DAFCF6
S315080014000A2305B1286004B1236038BD04F090FAB8
S315080014100923F6E704F0D1FC0C23F2E701230020A8
S31508001420EFE700BF0080005038B5104B0546D3F8EB
S3150800143060310C4603F00303022B0BD0032B0DD0AF
S31508001440012B0FD104F0B6FC0A2305B1286004B1BC
S31508001450236038BD04F06CFA0923F6E704F0ADFC06
S315080014600C23F2E701230020EFE700BF00800050BD
S3150800147038B5104B0546D3F840320C4603F0030343
S31508001480022B0BD0032B0DD0012B0FD104F092FCAD
S315080014900A2305B1286004B1236038BD04F048FA70
S315080014A00923F6E704F089FC0C23F2E70123002060
S315080014B0EFE700BF0080005038B5124B0546D3F859
S315080014C080300C4603F00303022B0BD0032B0DD000
S315080014D0012B0FD104F0A4F90E2305B1286004B13D
S315080014E0236038BD04F0DCF90723F6E704F092F927
S315080014F00623F2E7044841F2142103F011FC002305
S315080015001846EAE700800050B05F000838B51A4B65
S315080015100546D3F820010C4600F00700062821D816
S31508001520DFE800F028040C1410181C0004F072F907
S31508001530052305B1286004B1236038BD04F0A6F977
S315080015400323F6E704F0ACF90723F2E704F09AF967
S315080015500223EEE704F05EF90623EAE704F096F9BB
S315080015600423E6E7054841F2912103F0D9FB00235D
S315080015701846DEE70123DCE700800050B05F00086C
S3150800158038B5194B0546D3F828310C4603F007033E
S31508001590013B052B20D8DFE803F003131B0F0B17BD
S315080015A004F038F9052305B1286004B1236038BD75
S315080015B004F030F90623F6E704F072F90723F2E798
S315080015C004F064F90323EEE704F060F90423EAE77C
S315080015D004F058F90223E6E7044841F2990103F0BA
S315080015E09FFB00231846DEE700800050B05F000826
S315080015F037B500230193194B0546D3F820320C461C
S3150800160003F00703042B1FD8DFE803F025030F14A4
S315080016101900002101A8FFF7B3FF12230DB1019AA3
S315080016202A6004B1236003B030BD04F039F90723FA
S315080016300190F3E704F0BEFB0A230190EEE704F0FD
S3150800164077F909230190E9E741F25601044803F0C6
S3150800165067FB0023E2E70123E0E700BF00800050B4
S31508001660B05F0008F7B50027144B0197D3F88041FF
S31508001670064604F00304022C0D4614D0032C0DD0A4
S31508001680012C14D1394601A8FFF740FF10240EB1EA
S31508001690019B336005B12C6003B0F0BD04F000F97E
S315080016A007240190F3E704F0EDF80190EFE741F223
S315080016B0E631034803F034FB3C46E8E70080005077
S315080016C0B05F000838B5164B0546D3F800020C463D
S315080016D000F00700042819D8DFE800F020030B0FF4
S315080016E0130004F067FB0A2305B1286004B12360E0
S315080016F038BD04F01DF90923F6E704F05EFB0C2358
S31508001700F2E704F0ADF80F23800AEDE7054841F249
S31508001710A44103F005FB00231846E5E70123E3E7A8
S3150800172000800050B05F000838B5164B0546D3F860
S3150800173008020C4600F00700042819D8DFE800F074
S3150800174020030B0F130004F035FB0A2305B12860AC
S3150800175004B1236038BD04F0EBF80923F6E704F07A
S315080017602CFB0C23F2E704F07BF80F23800AEDE745
S31508001770054841F2DC4103F0D3FA00231846E5E7B1
S315080017800123E3E700800050B05F000837B5002367
S315080017900193184B0546D3F860320C4603F007034D
S315080017A0013B032B1FD8DFE803F0020E19140021B2
S315080017B001A8FFF7ABFE10230DB1019A2A6004B108
S315080017C0236003B030BD002101A8FFF709FE1123ED
S315080017D0F2E704F065F807230190EDE704F052F804
S315080017E002230190E8E741F2FD01034803F098FA65
S315080017F00023E1E700800050B05F000837B50023FA
S315080018000193184B0546D3F894320C4603F00703A8
S31508001810013B032B1FD8DFE803F0020E1914002141
S3150800182001A8FFF773FE10230DB1019A2A6004B1CF
S31508001830236003B030BD002101A8FFF7D1FD1123B5
S31508001840F2E704F02DF807230190EDE704F01AF803
S3150800185002230190E8E741F23011034803F060FAE9
S315080018600023E1E700800050B05F000873B500244C
S315080018700F4B0194D3F87032064603F00303012B8D
S315080018800D4607D0022B11D041F25B11094803F02F
S3150800189047FA04E0214601A8FFF7A2FD11240EB17C
S315080018A0019B336005B12C6002B070BD1524F6E7C4
S315080018B000800050B05F000810B5B0F5207F2ED02C
S315080018C009D8B0F5007F24D003D868B1B0F5C07F39
S315080018D00AD000241BE0B0F5607FFAD1124BD3F88A
S315080018E08040C4F3011412E00F4B1C6F230B13F056
S315080018F00E0FC4F303340AD0072C08D00F2C06D0D9
S31508001900032C04D04FF42271084803F009FA601C2E
S3150800191010BD054BD3F89040C4F30464F7E7024BB7
S315080019201C6FC4F38024F2E700800050B05F000803
S3150800193038B5430904460D460ED140F235310D48F7
S3150800194003F0EEF9002304F01F0485B103F5805374
S315080019500122A2401A6038BD012B04D0022B04D004
S3150800196040F24331EBE7044BEDE7044BEBE703F5B5
S315080019700053EDE7B05F00086480005068800050AF
S3150800198030B585B00021B0F5807F0446CDE9001159
S3150800199000F0D3803DD85E2833D85E2833D8DFE8F8
S315080019A000F0483232323232323232323232323267
S315080019B032323232323232323232323232323232F9
S315080019C0323248AD48ADBDBDBDBDBDADC7516EDDFA
S315080019D051ADADAD3232323232323232ADADAD8189
S315080019E0E7AD32323232323232323232323232BD0E
S315080019F0484848E25151EC9066C232323232329847
S31508001A00480080286AD040F2A441604803F088F96B
S31508001A1067E0B0F5D06F00F0A18035D8B0F5607FEB
S31508001A2077D01AD8B0F5007F5ED005D8B0F5C07F5C
S31508001A30E9D103F015FF53E0B0F5207F5ED0B0F58D
S31508001A40407FE0D103F00CFF04464FF42070FFF707
S31508001A5033FFB4FBF0F4640859E0B0F5B06F67D013
S31508001A600AD8B0F5806F59D0B0F5A06FCBD1002158
S31508001A706846FFF7BDFD34E0B0F5C06FC3D100215D
S31508001A806846FFF7ADFC2CE0B0F5106F6BD00ED8AA
S31508001A90B0F5086F76D0B6D8B0F5E06F68D0B0F577
S31508001AA0F06FB0D100216846FFF7BEFC19E0B0F52B
S31508001AB0406F38D00AD8B0F5206F5ED0B0F5286FE1
S31508001AC0A1D100216846FFF7D1FE0AE0B0F5486FBC
S31508001AD099D100216846FFF791FE02E003F0A0FEC7
S31508001AE00090009805B030BD03F09AFE05462046E2
S31508001AF0FFF7E2FEB5FBF0F50095F2E703F0B0FE5E
S31508001B0004464FF42070FFF7D7FEB4FBF0F40094B8
S31508001B10E7E701A8FFF7D0FC019DE8E70021684642
S31508001B20FFF7F4FCDDE700216846FFF729FDD8E753
S31508001B3000216846FFF796FDD3E74FF0E0230291B0
S31508001B401B695B0705D503F08BFE0290029B009389
S31508001B50C7E703A902A8FFF743FCF7E70021684691
S31508001B60FFF7B0FDBDE700216846FFF7DDFDB8E7E2
S31508001B7000216846FFF77CFCB3E700216846FFF7BB
S31508001B8005FEAEE76846FFF707FCAAE7B05F000860
S31508001B904369DA01FCD4012300F50050024A436088
S31508001BA053689B07FCD470470040005938B5124B60
S31508001BB0044698420D4604D040F297210F4803F098
S31508001BC0AFF8012204F5805361685A60EB786A78A9
S31508001BD05B0443EA02232A781343AA78120402F420
S31508001BE080321343C4F89830CB0704D42046BDE8A6
S31508001BF03840FFF7CDBF38BD0040005908600008DF
S31508001C0070B51E4B044698420E46154604D040F25F
S31508001C105F211B4803F084F82046FFF7B9FF3378A5
S31508001C20727803F0070343EAC203F278294643EAC7
S31508001C300223B2782046120102F07002134323678A
S31508001C40E26A337922F48B321B0222F4807203F49F
S31508001C50E0631343B27943EA02437279120302F44A
S31508001C6080521343E362FFF7A1FF012204F5805374
S31508001C705A60F37903B1E26070BD00BF00400059B5
S31508001C800860000810B5144B0C46984204D040F280
S31508001C906A31124803F044F874B92A20FFF770FE37
S31508001CA00446B0B10E4B984206D90B4B9B68C3F35A
S31508001CB002730133B0FBF3F40A4B04F5742404F2FF
S31508001CC03F24B4FBF3F4601E7F2828BF7F20C0B2F0
S31508001CD010BD0124F0E700BF004000590860000865
S31508001CE0005A620240420F0038B5154B0D4698421D
S31508001CF0144604D040F2A531124803F011F835B95C
S31508001D0040F2A6310F4803F00BF8B4B1FFDE0E4BD4
S31508001D109D4228BF1D461CB92A20FFF731FE0446FE
S31508001D202C44013CB4FBF5F0AC4228BF00F1FF306F
S31508001D30032828BF0320C0B238BD2546ECE700BFFC
S31508001D400040005908600008005A6202F8B51F46AC
S31508001D50194B0E469842144604D040F2DF31174814
S31508001D6002F0DEFF26B94FF47871144802F0D8FF66
S31508001D70FFB1134D134B012F08BF1D46B54228BFAF
S31508001D8035461CB92A20FFF7FBFD04469DF8183096
S31508001D9040F2FF300133B4FBF3F46B1E1C44B4FB72
S31508001DA0F5F3AC4228BF03F1FF33984228BF184623
S31508001DB0F8BD054DE2E700BF00400059086000087D
S31508001DC0404B4C00002D31018096980013B504460F
S31508001DD001A800F0A3FA042C04D8064B33F8140023
S31508001DE002B010BD044840F28C4102F099FF002071
S31508001DF0F6E700BF62600008086000082DE9F04FAA
S31508001E002DED048B8DB00646DFF83CC306AF0C46B5
S31508001E101546BCE80F000FC79CE80300BE4B87E8D1
S31508001E2003009E4203D0EC21BC4802F079FFBC4F68
S31508001E30002239463046FFF757FF94F8058080455B
S31508001E4038BF80463046FFF7A3FE20795FFA88F848
S31508001E5050B92A20FFF794FDB842014628BFB0FBC7
S31508001E60F8F13046FFF70EFFE3784FEA08721B01D8
S31508001E7002F0E04203F0300313430004227800F432
S31508001E80FE0003430AB143F0020362780AB143F045
S31508001E900403A2780AB143F00803B360E3882289F1
S31508001EA03361638943EA024333629B4B9E4200F0E7
S31508001EB01F82012306F5805673600DB0BDEC048BB6
S31508001EC0BDE8F08F9749C5E0D1F88041012B4FEA6C
S31508001ED014442CD9022B00F074814FF4F6718F4804
S31508001EE002F01EFF9DE0D1F88441012BA4B2F1D87F
S31508001EF0002B40F00881D1F88C11091449001CE028
S31508001F00D1F88441012B4FEA1444E3D8002B40F062
S31508001F10FD80D1F88C11091401EB41010DE0D1F8CF
S31508001F208041012BA4B2D5D8DFED7F7A09E0002BDA
S31508001F3040F0E680D1F88C11091407EE901AF8EEF5
S31508001F40E77A22040BF1B24202F58042926C24F43D
S31508001F50C041C2F3820C4FF001020CF1010E02FAE5
S31508001F600EF209EE102A4FEA8141B8EEC99AF6EE4A
S31508001F70008A6E4A48BF41F00041BCF1000F40F0AC
S31508001F80E580002B40F0C580D2F88C311BB207EEF5
S31508001F90103AB8EEC77A37EE878A002840F0F980FB
S31508001FA005A8039100F0BAF9DFED617A68EE277AA1
S31508001FB00399DFED606A86EE897ADFED5F6A27EEC0
S31508001FC0267AF1EE006AB1F1004F07EEA67A0BD039
S31508001FD0DFED5A7A06EE104A77EE276ABAEEE86A15
S31508001FE056EE267AB0EE677AB5EEC07AF1EE10FABA
S31508001FF0CBBFB1EE477A78EEC78A37EE687AFDEE40
S31508002000E87AC8BFFDEEC77A17EE903AB3F5003FF7
S31508002010C0F2CE806FEA51416FEA41413E4A3B0128
S31508002020D1503F0107F1B247C9F3090307F58047C5
S315080020307B600AF1010A1435BAF1020F3FF439AF91
S315080020402B78AF68002B3FF43DAF3D493D4A012B45
S3150800205018BF1146304C00222046CDF80080039365
S31508002060FFF774FE04EB0A14A16C039B21F043519D
S3150800207021F41D1121F443511FFA87F921F03F017C
S3150800208003F003070F43697881454FEA810101F0A0
S315080020901C0147EA0107A97838BF81464901C9B238
S315080020A00F43E9782879090301F4E0413943070425
S315080020B007F4E02739432F7C4FEA0A1B7F0507F40C
S315080020C0600739436F793F0707F040573943A164E2
S315080020D0A46C1649C4F30234013C0AF10507042C22
S315080020E03FF61DAF0FF2040C5CF824F01F1F000822
S315080020F01F1F0008C91E0008E71E0008011F000868
S31508002100D1F8941118E7D1F89411F6E6D1F894119C
S3150800211001E7D2F8943139E7004000590860000811
S31508002120005A620280969800000000000080E00FC6
S315080021303D3B843F000080430000204400000049E6
S31508002140002D3101404B4C006C600008ABB9D2F849
S3150800215090311BB207EE103AB8EEC77A77EE677A77
S3150800216069EE286A644B87EEA67AD3F888311BB2E3
S3150800217007EE903AF8EEE77A0DE7D2F898311BB2F7
S3150800218007EE103AB8EEC77A37EE677A77EE877AAF
S31508002190E6E7D5ED037ADFED596AF8EE677A87EE5A
S315080021A0A67AF7EE046AC6EE877A67EE887A00E7BB
S315080021B013F5003FAABFC3F3110341F400311943D5
S315080021C02CE7FFF703FE07EE900A9FED4C7AF8EE30
S315080021D0677A0BF1B24303F580439B6C0CAAC3F3F1
S315080021E0421302EB830387EE875A13ED067AFCEE59
S315080021F0C77A17EE903AF7EE006A5C2B1CBF77EEAB
S31508002200267A87EE276A07EE904ADFED3D5AF8EE02
S31508002210677A08BF9FED3B6A67EEA57A67EE867A0E
S315080022209FED396A67EE867AF5EEC07AB6EE006AF1
S31508002230F1EE10FA4CBF77EEC67A77EE867A0BF196
S31508002240B24202F58042136DFDEEE77A002313656C
S3150800225017EE903A17EE900A13F4004F136DDFED60
S315080022602B4A18BF43F000431365294B116D03EA47
S3150800227080430B431365204B9FED264AD3F88811FC
S31508002280D3F88831116D1BB207EE903AF8EEE77A6B
S3150800229077EEA47AC4EE074A37EE267AC4EE876A42
S315080022A0F7EE044A84EE857A67EE277AB1EE007A6D
S315080022B047EE876A07EE104ADFED177AB8EEC77A57
S315080022C076EEA76A65EEC75A46EEA57AF5EEC07AA7
S315080022D0F1EE10FA4CBF77EEC67A77EE867AFDEE07
S315080022E0E77A17EE903AC3F311030B43136598E6A2
S315080022F04FF0000AA0E600BF0080E00F00007A4415
S3150800230000000038E71B753F00000047000000008A
S315080023100000FC7F00008048000000494FF480322E
S31508002320064B5A6603F5E6239B69C3F3851282704A
S3150800233003F03F021B0B4270037070470090005079
S315080023400B4B984211D003F5804398420DD003F504
S315080023508043984209D003F58043984205D003F597
S315080023608043C31A5842584170470120704700BF3E
S315080023700080045038B505460C46FFF7E1FF18B94A
S31508002380B421214802F0CCFC284602F0FEFC0122CA
S3150800239005F500531A632B6B9B07FCD423796288D7
S315080023A01B0243EA8243A27A1343627843EA821302
S315080023B0E27A43EAC213227B43EA4213627B43EA88
S315080023C00213A27B43EAC203E27B43EAC223A27951
S315080023D043EA0243E27943EA424301226B6005F588
S315080023E080531A6322780AB90223EB6000236B62D2
S315080023F06379217A1B0143EA8103617A0B43AB6057
S315080024000AB10123EB6038BD8460000870B5224B21
S31508002410044698420E46154607D003F5804398426F
S3150800242003D074211D4802F07BFC012E03D97521C7
S315080024301A4802F075FC2369002BFCDBAEB92DB1F6
S315080024400123E3612369DE07FCD570BD0223E3613E
S315080024502369DD07FCD42369002BFCDB4FF480736A
S31508002460E36123695801FCD4EFE72DB11023E3613A
S3150800247023699907FCD5E8E72023E36123699A07CE
S31508002480FCD42369002BFCDB4FF40073E36123695A
S315080024901B01FCD4D9E700BF00400259DE600008E2
S315080024A038B51D4B054698420C4607D003F58043C0
S315080024B0984203D0B821194802F032FC284602F0A7
S315080024C06BFC236822791B0703F0E04343EAC263E7
S315080024D0227D1343627943EA8263A27943EA42631F
S315080024E0E27943EA0263227A43EA0253627A43EACA
S315080024F00243E268D20102F47E521343227C43EA85
S315080025000213627C43EAC203A27C43EA8203E27CAA
S3150800251043EA4203EB6038BD00400259DE6000081A
S31508002520F8B5454B044698420D46164608D003F5BD
S315080025308043984204D040F24111404802F0F0FB33
S31508002540012E04D94FF4A1713C4802F0E9FB20465C
S31508002550276902F021FCAB786A789B0343EA0243B9
S31508002560EA7A13436A68D20202F4C05213432A7AFB
S3150800257043EA02236A7A43EA0213AA7A43EA8203FF
S315080025802A784EBB01206361616B6B6921F47F7108
S3150800259021F00301C3F309030B43636304F5805376
S315080025A05860EB68297CDB0303F4FC1343EA013328
S315080025B0E97C266B0B43697C43EA0123A97C43EA41
S315080025C001131F4931400B432363002A2FD1BA0751
S315080025D001D51023E361F8BD012E23D1A361616BF8
S315080025E06869184B21F0FF7103EAC03321F4C03142
S315080025F00B43636304F580535E60EB68297C5B06D6
S3150800260003F0FC4343EA8153697C206B43EA412388
S31508002610A97C43EA4113E97C43EA41030A4901409C
S315080026200B4323632AB9FB07D5D50123D2E7E0611B
S31508002630CDE71023E361F6E700400259DE600008A3
S31508002640EE0EE0FF0080FF01DDFD3F8038B5054650
S31508002650144641B1012910D0BDE838404FF4DB716A
S315080026600B4802F05DBBB2F5805F04D340F243210C
S31508002670084802F055FBAC6238BDB2F5805F04D35A
S3150800268040F25D21034802F04BFBEC62F4E700BF21
S31508002690DE6000083761000810B5114B994228BF63
S315080026A01946104B0C4698420ED15420FFF768F98C
S315080026B00346002210460132B3FBF2F1A14202D9C9
S315080026C0802AF7D17F2010BD074B984201D15D20A3
S315080026D0ECE740F22E21054802F022FB0023E8E74A
S315080026E040420F000040025900800259DE6000088F
S315080026F0034BD3F82424D3F820041040704700BFB6
S3150800270000C00350054B9A689107FCD45A68920793
S31508002710F9D4DA69002AF6D1704700BF00800A505A
S3150800272010B5074C6368DB0704D44FF49F7105485E
S3150800273002F0F6FA03F002F90223236110BD00BF86
S3150800274000800A509161000808B5FFF7DBFF0122F7
S31508002750024B03F580514A601A6108BD00800A5091
S3150800276010B5044B5C68012C03D1FFF7D9FF024B67
S315080027705C6010BD00800A5000A00A5038B5074DAD
S31508002780FFF7C0FF6B680446012B03D1FFF7E8FF8C
S31508002790FFF7B8FF2378EB6038BD00BF00800A500A
S315080027A038B505460C4603F0D3F8BDB962682378F8
S315080027B012B1127843EAC203627843EA4203A26876
S315080027C012B1127843EA8213E27843EA8203226955
S315080027D012B1127843EA4223014A936438BD00BF16
S315080027E000800A5010B54C28044608D80123610910
S315080027F0074A04F01F04A34042F8213010BD4FF4E5
S315080028009871044802F08CFA002CF7DBEEE700BF5B
S3150800281000E100E03C630008002808DB01224309C8
S31508002820034900F01F008240603341F823207047B7
S3150800283000E100E00346054A0549106803448B4257
S315080028408CBF4FF0FF301360704700BF6413002041
S315080028500000042070B503F0C1FA144E054634781A
S31508002860FCB9134B1C60134B1C60134B1C6000F027
S315080028702BF8012003F026FB03F03EFA0F4B024625
S31508002880186020B9284603F0A4FA232070BD234611
S3150800289040F2E7310A4800F04DF80A4B1860012368
S315080028A03370284603F095FA0020EFE7501300200E
S315080028B094110020901100209C11002098110020EE
S315080028C018FCFFFF8C11002010B586B000241422D6
S315080028D0214601A88DF8004002F0B1FB01231348F8
S315080028E08DF8043003F085FABFF34F8F6846FFF77B
S315080028F045FF204601A98DF80440FFF751FF204601
S315080029000F2103F045F80F21204603F04FF8FFF793
S315080029101BFF03F013F8064B43209C61FFF77CFF6F
S315080029204320FFF75FFF06B010BD00BF2C63000809
S3150800293000800A5053B94AB9002908BF00281CBFAD
S315080029404FF0FF314FF0FF3000F082B9ADF1080CBF
S315080029506DE904CE00F006F8DDF804E0DDE90223AF
S3150800296004B070472DE9F04F099D0C46002B4DD158
S315080029708A420F4684469646B2FA82F360D94BB12C
S3150800298002FA03FEC3F120029F4000FA03FC20FA74
S3150800299002F217434FEA1E461FFA8EF44FEA1C420C
S315080029A0B7FBF6F106FB117701FB04F042EA074292
S315080029B0904208D91EEB020201F1FF3702D290427B
S315080029C000F231813946121A1FFA8CFCB2FBF6F076
S315080029D006FB102200FB04F44CEA024C644508D9B5
S315080029E01EEB0C0C00F1FF3202D2644500F21E8188
S315080029F0104640EA0140ACEB040C002125B12CFA44
S31508002A0003F30022C5E90032BDE8F08F8B4205D9F1
S31508002A100DB1C5E9000100210846F5E7B3FA83F1CF
S31508002A2000294DD1A342C0F0F380904280F0F08097
S31508002A30064623460846002DE6D0C5E90063E3E7C7
S31508002A40002B40F0A3808A1A4FEA1E471FFA8EF61B
S31508002A500121B2FBF7F407FB14204FEA1C4242EAB5
S31508002A60004206FB04F090420FD91EEB020204F165
S31508002A70FF382CBF4FF001094FF00009904203D9E7
S31508002A80B9F1000F00F0CC804446121A1FFA8CFCEC
S31508002A90B2FBF7F007FB102200FB06F64CEA024CE5
S31508002AA0664508D91EEB0C0C00F1FF3202D26645CA
S31508002AB000F2B3801046ACEB060C40EA04409DE7F2
S31508002AC0C1F120068B4004FA01FE22FA06F720FA25
S31508002AD006FCF4408A401F434EEA0C0300FA01FE46
S31508002AE04FEA17484FEA13491FFA87FCB4FBF8F078
S31508002AF008FB104449EA044400FB0CF9A1450ED929
S31508002B003C1900F1FF3A2CBF4FF0010B4FF0000BB8
S31508002B10A14503D9BBF1000F00F08B805046A4EB0A
S31508002B2009041FFA83F9B4FBF8F308FB134403FB03
S31508002B300CFC49EA0444A44506D93C1903F1FF38BC
S31508002B4001D2A4457BD8434643EA0040A4EB0C04D3
S31508002B50A0FB02984445CC46434602D306D1CE454F
S31508002B6004D20138B9EB020C68EB0703002D6CD0D0
S31508002B70BEEB0C0264EB030422FA01F304FA06F630
S31508002B80CC4000211E43C5E900643DE702FA03FE76
S31508002B90C3F1200104FA03F200FA03FCCC404FEA21
S31508002BA01E4720FA01F11FFA8EF6B4FBF7F00A4326
S31508002BB007FB1044110C41EA044100FB06F48C4261
S31508002BC00ED91EEB010100F1FF382CBF4FF00109A9
S31508002BD04FF000098C4202D9B9F1000F2CD04046BB
S31508002BE0091B92B2B1FBF7F407FB141142EA014242
S31508002BF004FB06F1914207D91EEB020204F1FF38E5
S31508002C0001D291421ED84446521A44EA004120E7AE
S31508002C10861A64EB030301200DE7F44402384AE7F9
S31508002C20023C724431E702397244CCE6F444023875
S31508002C30DFE602383C4472E702387144D0E7023BCB
S31508002C403C4481E7023C7244DEE72946DCE600BFE5
S31508002C50704700BF08B5064B044613B10021AFF311
S31508002C600080044B1B6803B19847204602F05CF8C5
S31508002C7000000000D81200202DE9F04F8DB00C4658
S31508002C8016461F46DDF85880054600F02DFC0368F9
S31508002C901846049302F0ECF9002305900A93D8F835
S31508002CA0003094F818A00733D4F800B023F00703CF
S31508002CB003F10802C8F800204FF0FF32D3E9008973
S31508002CC029F00043CDF8188007939C4BDDE90601EF
S31508002CD0C4E9128901F0CAFF70BB4FF0FF32974B67
S31508002CE0DDE9060101F0A4FF30BB002200234046BF
S31508002CF0494601F093FF10B12D2384F84330904ADA
S31508002D00904BBAF1470F94BF9046984603234FF06D
S31508002D10000923612BF00403236033460BAA2146DE
S31508002D202846009702F0FBF8013040F096804FF0F5
S31508002D30FF300DB0BDE8F08F42464B464046494647
S31508002D4001F094FF40B14B467F4A002BBCBF2D23B0
S31508002D5084F843307D4BD4E763685A1C26D1062392
S31508002D6063604BF4806200232846226003930AAB13
S31508002D70CDE901A309AB49EC108B00930DF12303B0
S31508002D80616802F02BF8BAF1670F8046099915D1E8
S31508002D90CB1C3BDB6368994238DC0A9B994255DBBE
S31508002DA023682161D80745D54B1C42E00AF0DF02AB
S31508002DB0472AD6D1002BD4D10123D1E7BAF1470F40
S31508002DC007D1C81C25DB63688B4222DB4FF0670AF4
S31508002DD0E3E7BAF1650F1FD80139524604F15000EE
S31508002DE0099102F063F80A9A81461318012A2361A9
S31508002DF002DC2268D20701D5013323619DF823300E
S31508002E00002B8AD02D2384F8433086E74FF0650AD5
S31508002E10E2E74FF0450ADFE7BAF1660FBDD10029B0
S31508002E2063680BDD216113B92268D00702D5013327
S31508002E300B4423614FF00009A165DFE713B9226847
S31508002E40D20701D50233F4E70123F2E70029D4BFFC
S31508002E50C1F1020201221344EBE723685A0507D49D
S31508002E602369424631462846B84701302BD15EE7EA
S31508002E70BAF1650F40F2DD8000220023D4E9120181
S31508002E8001F0C2FE002833D00123314A31462846D4
S31508002E90B84701303FF44BAFDDE90938434502DB5B
S31508002EA02368D8070FD531462846DDE90423B847F5
S31508002EB001303FF43CAF4FF0000908F1FF3804F148
S31508002EC01A0AC84509DC23689B0700F10381E068F4
S31508002ED00B9B9842B8BF18462BE70123524631464A
S31508002EE02846B84701303FF422AF09F10109E8E75F
S31508002EF0099B002B39DC0123154A31462846B84779
S31508002F0001303FF414AFDDE9093959EA030302D168
S31508002F102368D907D7D531462846DDE90423B847BB
S31508002F2001303FF404AF4FF0000A04F11A0B099B75
S31508002F305B4253450EDC4B4693E700BFFFFFEF7F2E
S31508002F402A6400082E640008326400083664000803
S31508002F503A64000801235A4631462846B8470130E4
S31508002F603FF4E5AE0AF1010AE1E7A36DDDF828A012
S31508002F705345A8BF5346002B994636DC4FF0000B45
S31508002F8029EAE97904F11A02A36D0693A3EB09036A
S31508002F905B4531DC099B9A453ADC2368DA0737D466
S31508002FA0099BAAEB0309069BAAEB03039945A8BF4D
S31508002FB09946B9F1000F33DC4FF0000829EAE979A0
S31508002FC004F11A0B099BAAEB0303A3EB0903434578
S31508002FD07FF779AF01235A4631462846B84701306C
S31508002FE03FF4A5AE08F10108ECE74246314628460B
S31508002FF0B8470130C2D19AE60123314628460692DF
S31508003000B84701303FF493AE0BF1010B069ABBE7C4
S31508003010DDE9042331462846B8470130C0D186E6A3
S31508003020069A4B46314628464244B8470130C3D132
S315080030307DE6DDF828A0BAF1010F01DCDB0736D5FD
S315080030400123424631462846B84701303FF46FAE61
S3150800305031462846DDE90423B84701303FF467AE18
S31508003060002200230AF1FF3AD4E9120101F0CCFD4F
S31508003070C0B9534608F1010231462846B84701301F
S315080030800CD154E601235A4631462846B847013042
S315080030903FF44DAE08F10108D045F3DB4B4604F189
S315080030A05002DFE64FF0000804F11A0BF4E701239B
S315080030B04246E1E701234A4631462846B8470130E9
S315080030C03FF435AE08F10108E3680B995B1A4345EE
S315080030D0F0DCFCE64FF0000804F11909F4E700BF3C
S315080030E02DE9FF470F7E914680460C46782F9A4673
S315080030F00C9E01F1430207D8622F0AD8002F00F070
S31508003100DD80582F00F0C38004F1420684F842702F
S315080031103AE0A7F16303152BF6D801A151F823F07D
S31508003120793100088D310008093100080931000895
S3150800313009310008093100088D31000809310008F5
S31508003140093100080931000809310008A3320008CE
S315080031501B3200085B3200080931000809310008F3
S31508003160C5320008093100081B3200080931000879
S31508003170093100086332000833681A1D1B6832607B
S3150800318004F1420684F842300123A8E03168236836
S31508003190081D30601E0601D50D6803E05D06FBD5E7
S315080031A0B1F90050002D616878DA2D200029A16058
S315080031B084F843002DDA6D425D480A231646B5FBAE
S315080031C0F3F103FB1157C75D06F8017D2F460D463F
S315080031D0BB42F4D9082B0BD12368DF0708D523692E
S315080031E061689942DEBF302306F8013C06F1FF36D6
S315080031F0921B22614B4603AA21464046CDF800A001
S3150800320001F08DFE01306FD14FF0FF3004B0BDE8FC
S31508003210F08723F004032360CDE7216833680806A6
S3150800322053F8045B02D4490648BFADB26F2F33602A
S315080032303F4814BF0A230823002184F84310666810
S31508003240002EA660BADB216821F004012160002D5A
S31508003250B4D1002EB2D11646BCE7236843F020034A
S31508003260236078273348236884F845701F06316839
S3150800327051F8045B02D45F0648BFADB23160D90786
S3150800328044BF43F0200323601DB11023D4E7284828
S31508003290E9E7236823F020032360F6E724480A2396
S315080032A0CDE733682568181D616930602E061B68EE
S315080032B001D5196002E06806FBD519800023164679
S315080032C0236197E7336800211A1D32601E68626819
S315080032D0304601F0BFFE08B1801B60606368236159
S315080032E0002384F8433085E7236932464946404639
S315080032F0D047013088D023689B0714D4E068039B25
S315080033009842B8BF184681E70123324649464046E7
S31508003310D04701303FF478AF0135E36803995B1A6B
S31508003320AB42F1DCEAE7002504F11906F5E700BF30
S315080033303C6400084D6400080CB4184B30B50C1EEC
S315080033409DB01D6808DA8B234FF0FF302B601DB047
S31508003350BDE8304002B070474FF402730290069001
S3150800336002A9ADF8143014BF04F1FF332346209A9E
S315080033702846049307934FF6FF73ADF8163021AB32
S31508003380019300F0D9F8431CBCBF8B232B60002C9B
S31508003390DDD0029B00221A70D9E700BF7413002003
S315080033A0002310B504468360818119464366C281AD
S315080033B008228361C0E90033C0E904335C3001F0B8
S315080033C03EFE0D4B246263620C4BA3620C4BE36218
S315080033D00C4B23630C4B9C4206D003F168029442C3
S315080033E002D0D0339C4205D104F15800BDE8104004
S315080033F001F02DBE10BD00BF7B5400089D54000887
S31508003400D5540008F9540008A0110020024A0349BF
S31508003410034801F0F6BD00BF6813002057530008A3
S315080034207813002041680C4B994210B5044601D028
S3150800343001F091FFA168094B994202D0204601F09C
S315080034408AFFE168064B994204D02046BDE8104041
S3150800345001F081BF10BD00BFA01100200812002096
S315080034607012002010B50B4B04210B4C0B4A20465A
S315080034701A600022FFF794FF04F16800012209216F
S31508003480FFF78EFF04F1D00002221221BDE810409A
S31508003490FFF786BFD8120020A01100200D340008BF
S315080034A0014801F0D5BD00BF52130020014801F0C4
S315080034B0D0BD00BF5213002010B50446FFF7F0FF39
S315080034C0236A1BB1BDE81040FFF7F0BF044B236227
S315080034D0044B1B68002BF5D1FFF7C4FFF2E700BFCA
S315080034E025340008D812002000487047B41400207C
S315080034F070B50D4D00260D4C641BA410A64209D1CB
S315080035000B4D00260B4C02F00BFD641BA410A642C3
S3150800351005D170BD55F8043B01369847EEE755F8D6
S31508003520043B01369847F2E734150020341500208D
S3150800353034150020381500202DE9F04F98468B8960
S315080035409DB007461B060D46144610D50B6973B980
S31508003550402100F017F92860286130B90C233B6038
S315080035604FF0FF301DB0BDE8F08F40236B6100239C
S31508003570CDF80C804FF00109DFF8A08109932023CC
S315080035808DF8293030238DF82A3023469A4613F8C9
S31508003590012B0AB1252AF9D1BAEB040B0BD05B46ED
S315080035A022462946384601F0F8FD013000F0A7808A
S315080035B0099A5A4409929AF80030002B00F09F8025
S315080035C000234FF0FF320AF1010A049307938DF89E
S315080035D053301A93CDE90523544605224F4814F86B
S315080035E0011B01F037FD049AD8B9D00644BF202341
S315080035F08DF85330110744BF2B238DF853309AF8B2
S3150800360000302A2B15D0079A544600204FF00A0C92
S31508003610214611F8013B303B092B4BD9B0B1079233
S3150800362014E0A0EB0803A24609FA03F31343049334
S31508003630D2E7039B191D1B68002B0391BBBF5B4296
S3150800364042F0020207930793B8BF049223782E2B01
S315080036500AD163782A2B32D1039B02341A1D1B68C0
S3150800366043EAE37303920593DFF8C0A003222178A7
S31508003670504601F0EFFC38B1A0EB0A004022049B4B
S31508003680013482401343049314F8011B062224488C
S315080036908DF8281001F0DEFC002836D0214B1BBB24
S315080036A0039B073323F0070308330393099B33442B
S315080036B009936AE70CFB02320C460120A8E70023AF
S315080036C001344FF00A0C19460593204610F8012BD1
S315080036D0303A092A03D9002BC6D00591C4E70CFB5A
S315080036E0012104460123F0E703AB2A4604A938461C
S315080036F000930D4BFFF7C0FA421C0646D6D1AB899C
S315080037005B063FF52DAF09982CE703AB2A4604A9BB
S3150800371038460093044BFFF7E3FCEDE7F464000832
S31508003720FE640008792C00089B510008FA6400081A
S31508003730024B0146186800F025B800BF7413002034
S3150800374070B50F4E0C460546316811B900F0F2FB0C
S3150800375030602146284600F0EDFB431C03D14FF0AC
S31508003760FF34204670BDC41C24F00304A042F8D0E0
S31508003770211A284600F0DEFB0130F2D1EFE700BF40
S31508003780DC1200202DE9F041CD1C064625F0030584
S3150800379008350C2D38BF0C25002D01DBA94204D9AC
S315080037A00C2333600020BDE8F081314F00F062F849
S315080037B03B681C4644BB29463046FFF7C1FF431CFD
S315080037C0044650D13C682146002941D1002C44D0FA
S315080037D02368304604EB030800F0ACFB80453CD177
S315080037E0216830466D1A2946FFF7AAFF013034D002
S315080037F023682B4423603B68002B36D05A68A242C4
S3150800380029D100225A600EE02268521B1DD40B2AC9
S3150800381016D96119A342256018BF5960636808BFA5
S31508003820396062514B60304600F02AF804F10B000B
S31508003830231D20F00700C21AB5D01B1AA350B2E701
S31508003840A3426268DED13A60EDE723466468B1E7D1
S315080038500C464968B8E71346CEE70C233046336072
S3150800386000F00EF89EE70560DDE75B60FFDE00BF4F
S31508003870E0120020014801F0EBBB00BF5113002005
S31508003880014801F0E6BB00BF5113002070B5C669B8
S3150800389004460D4676B91020FFF74AFF0246E06156
S315080038A020B9184B6B21184800F066FBC0E9016681
S315080038B00660C660E669F36883B1E369DB6853F8B6
S315080038C02500B8B90121204601FA05F6721D9200B5
S315080038D001F06BFE60B1C0E901560EE02122042119
S315080038E0204601F062FEE369F060DB68002BE4D154
S315080038F0002070BD026843F825200023C0E9033381
S31508003900F7E700BF6B6400080565000870B5C6696F
S3150800391005460C4676B91020FFF70AFF0246E8610D
S3150800392020B9094B8F21094800F026FBC0E901663A
S315080039300660C6603CB1EB696268DB6853F8221022
S31508003940216043F8224070BD6B64000805650008D5
S315080039502DE9F04101F1140C07460C461E460D6987
S315080039600020DCF80030013099B2854202FB016183
S315080039704FEA13464FEA114389B202FB063301EBBD
S3150800398003414FEA13464CF8041BEADC0EB3A3685E
S31508003990AB4219DC616838460131FFF777FF80468C
S315080039A028B902460C4BBA210C4800F0E5FA226900
S315080039B004F10C010C300232920001F0E9FD2146B7
S315080039C044463846FFF7A2FF04EB850301355E61DE
S315080039D025612046BDE8F081E36400080565000816
S315080039E010B50C460121FFF751FF024628B9054BD1
S315080039F040F24511044800F0BFFA0123446103610F
S31508003A0010BD00BFE3640008056500082DE9F04F06
S31508003A1014460A690F4685B023699A42A2BF23460F
S31508003A200C461F46D4F810A0A368D7F81090616812
S31508003A300AEB0906B342B8BF0131FFF727FF30B9D1
S31508003A400246454B4FF4B171444800F095FA00F12F
S31508003A501405002205EB86082B46434521D307F1BA
S31508003A60140104F1140204F1150702EB8A0201EBB2
S31508003A7089030293131B153B23F003030433BA424D
S31508003A8038BF04230193029B03918B420CD8002E66
S31508003A9003DD58F8043D002B5BD0066105B0BDE890
S31508003AA0F08F43F8042BD8E7B1F800A0BAF1000F5D
S31508003AB024D004F1140EA9464FF0000C5EF8047BDE
S31508003AC0D9F800301FFA87FB72459BB20AFB0B3305
S31508003AD04FEA174BD9F8007063444FEA174C0AFBB4
S31508003AE00BC707EB13479BB24FEA174C43EA07434A
S31508003AF049F8043BE2D8019B45F803C0039B04310F
S31508003B00B3F80290B9F1000F21D02B6804F1140C18
S31508003B10AE464FF0000ABCF800B09BB2BEF8027081
S31508003B2009FB0B77574443EA07434EF8043B5CF816
S31508003B30043B4FEA134ABEF80030624509FB0A33D4
S31508003B4003EB17434FEA134AE5D8019FEB510435B7
S31508003B5099E7013E9BE700BFE36400080565000896
S31508003B602DE9F843154612F0030207460E4607D01C
S31508003B70013A254C002354F82220FFF7E9FE0646B1
S31508003B80AD103DD0FC697CB91020FFF7D1FD024687
S31508003B90F86128B91D4B40F2B3111D4800F0ECF945
S31508003BA0C0E901440460C460D7F81C80D8F808400E
S31508003BB04CB940F271213846FFF712FF002304463C
S31508003BC0C8F8080003604FF00009EB070AD531462C
S31508003BD022463846FFF71AFF80463146384646469B
S31508003BE0FFF794FE6D100BD0206838B9224621469F
S31508003BF03846FFF70BFF2060C0F800900446E4E75C
S31508003C003046BDE8F88300BF686500086B640008A5
S31508003C10056500082DE9F0470C46074691464FEA28
S31508003C20621A2369496803EB6218A36808F101065A
S31508003C30B3420BDB3846FFF729FE054648B902466C
S31508003C40284B4FF4EF71284800F096F901315B00D4
S31508003C50EEE7002300F1140100F11002184653455F
S31508003C6033DB2AEAEA7A04F11403206919F01F09FA
S31508003C7001EB8A0103EB800C2BD0C9F1200E8A4692
S31508003C800022186800FA09F010434AF8040B53F8A2
S31508003C90042B9C4522FA0EF2F3D8ACEB040304F18C
S31508003CA01500153B23F003030433844538BF04236A
S31508003CB0CA500AB108F10206013E384621462E616D
S31508003CC0FFF724FE2846BDE8F087013342F8040FC3
S31508003CD0C5E7043953F8042B9C4541F8042FF9D855
S31508003CE0EAE700BFE3640008056500082DE9F74F19
S31508003CF08946064611461446484601F0A3FB051EAA
S31508003D0012D129463046FFF7C1FD024628B9414B74
S31508003D1040F23721404800F02FF90123C0E9043565
S31508003D20104603B0BDE8F08FBCBF4B46A1463046EF
S31508003D30B8BF0125D9F80410B4BF1C460025FFF703
S31508003D40A5FD024618B9334B40F24521E2E7D9F8FA
S31508003D50107004F1140E266900F1140BC56009F100
S31508003D60140509F110030EEB860605EB8708D946FC
S31508003D704FF0000C0193019B5EF8040B53F804AF57
S31508003D80764501931FFA8AF3194683B24FEA104023
S31508003D90A1EB0303C0EB1A40634400EB23409BB23C
S31508003DA04FEA204C43EA004349F8043BE3D8331B67
S31508003DB01534153B23F003030433A64238BF042306
S31508003DC01D445B442C461E4644450ED308F10301A8
S31508003DD0491B033D21F00301A84538BF00210B44C8
S31508003DE053F8041D99B117619AE754F8041BE6467F
S31508003DF01FFA81FC080C7144F44489B200EB2C408C
S31508003E0041EA00414FEA204C46F8041BDCE7013F33
S31508003E10E6E700BFE3640008056500082DE9F743F7
S31508003E200F460121164659EC108BFFF72FFD044665
S31508003E3030B90246234B40F20F31234800F09CF874
S31508003E40C9F30A55C9F313030DB143F4801301935B
S31508003E50B8F1000323D06846009301F0C6FADDE9FD
S31508003E600012D0B1C0F1200302FA03F3C2400B439B
S31508003E7001926361019B002BA3610CBF0122022200
S31508003E802261A5B1A5F233450544C0F135003D6070
S31508003E903060204603B0BDE8F0836161EAE701A817
S31508003EA001F0A3FA019B203001226361E8E7A0F242
S31508003EB0324004EB82033860186901F074FAC0EBEB
S31508003EC04210E5E7E36400080565000838B50023F5
S31508003ED0054D044608462B6000F023FF431C02D11B
S31508003EE02B6803B1236038BDE412002038B50446B8
S31508003EF0064D0846114600222A601A4600F01EFFA3
S31508003F00431C02D12B6803B1236038BDE41200209C
S31508003F1038B50446064D0846114600222A601A4658
S31508003F2000F00EFF431C02D12B6803B1236038BD95
S31508003F30E412002038B50023054D044608462B60D8
S31508003F40FEF778FC431C02D12B6803B1236038BD09
S31508003F50E412002038B50446064D084611460022EC
S31508003F602A601A4600F0EEFE431C02D12B6803B104
S31508003F70236038BDE41200201FB514461A46094BC3
S31508003F8005461B68D86854B9074B1C460091074973
S31508003F90CDE901342B4600F057F801F041FB044BFC
S31508003FA0F4E700BF741300206C5F00088067000800
S31508003FB07367000838B50546002941D051F8043C16
S31508003FC00C1F002BB8BFE418FFF754FC1D4A1368F2
S31508003FD033B9636014602846BDE83840FFF750BC23
S31508003FE0A34208D9206821188B4201BF19685B686B
S31508003FF009182160EDE71A465B680BB1A342FAD9A6
S3150800400011685018A0420BD120680144501811605D
S315080040108342E0D118685B68084453601060DAE7A9
S3150800402002D90C232B60D6E7206821188B4202BFE1
S3150800403019685B680918636008BF21605460CAE79D
S3150800404038BD00BFE01200200EB403B503AB01462D
S31508004050054853F8042B0068019300F007F802B0EE
S315080040605DF804EB03B07047741300202DE9F04F98
S315080040700D469DB014469846064618B1036A0BB914
S31508004080FFF71AFA6B6ED90705D4AB899A0502D4DD
S31508004090A86D00F0DDFFAB891B0701D52B699BB91D
S315080040A02946304600F0FAF870B16B6EDC0704D585
S315080040B04FF0FF301DB0BDE8F08FAB899805F7D4F7
S315080040C0A86D00F0C6FFF3E70023CDF80C804FF08B
S315080040D00109DFF8B481099320238DF829303023AC
S315080040E08DF82A3023469A4613F8012B0AB1252A59
S315080040F0F9D1BAEB040B0BD05B462246294630466B
S3150800410001F0ACFA013000F0A780099A5A440992E6
S315080041109AF80030002B00F09F8000234FF0FF3202
S315080041200AF1010A049307938DF853301A93CDE9DF
S31508004130052354460522544814F8011B00F08AFF4B
S31508004140049AD8B9D10644BF20238DF853301307F3
S3150800415044BF2B238DF853309AF800302A2B15D0FC
S31508004160079A544600204FF00A0C214611F8013BE5
S31508004170303B092B4BD9B0B1079214E0A0EB0803EA
S31508004180A24609FA03F313430493D2E7039B191DC6
S315080041901B68002B0391BBBF5B4242F002020793E8
S315080041A00793B8BF049223782E2B0AD163782A2B5B
S315080041B032D1039B02341A1D1B6843EAE373039248
S315080041C00593DFF8D4A003222178504600F042FF79
S315080041D038B1A0EB0A004022049B01348240134305
S315080041E0049314F8011B062228488DF8281000F0BD
S315080041F031FF00283FD0264B1BBB039B073323F018
S31508004200070308330393099B3B4409936AE70CFBAE
S3150800421002320C460120A8E7002301344FF00A0CAD
S3150800422019460593204610F8012B303A092A03D976
S31508004230002BC6D00591C4E70CFB012104460123D7
S31508004240F0E703AB2A4604A930460093114BFEF764
S3150800425013FD0746781CD6D16B6ED90705D4AB89F2
S315080042609A0502D4A86D00F0F4FEAB895B063FF50B
S315080042701FAF09981EE703AB2A4604A930460093E8
S31508004280044BFEF72DFFE4E7F4640008FE6400081B
S31508004290792C00085D560008FA64000838B5294BE1
S315080042A005460C46186818B1036A0BB9FFF704F9F6
S315080042B0B4F90C30190722D4DA0607D409222A6081
S315080042C043F040034FF0FF30A38133E0580712D57F
S315080042D0616B41B104F14403994202D02846FFF7C5
S315080042E069FE00236363A38923F02403A3810023C3
S315080042F0636023692360A38943F00803A3812369C4
S315080043004BB9A38903F42073B3F5007F03D0214684
S31508004310284601F018FAB4F90C3013F001020AD055
S315080043200022A26062695242A261226942B913F070
S315080043308000C5D138BD990758BF6269A260F4E705
S315080043400020F7E77413002038B50023064D04460D
S31508004350084611462B6000F0E8FC431C02D12B6886
S3150800436003B1236038BD00BFE412002038B500232E
S31508004370054D044608462B6000F0DBFC431C02D1C1
S315080043802B6803B1236038BDE4120020024B0146B6
S31508004390186801F014BA00BF7413002038B500235A
S315080043A0064D0446084611462B6000F0C4FC431C23
S315080043B002D12B6803B1236038BD00BFE412002088
S315080043C081F0004102E000BF83F0004330B54FEAB8
S315080043D041044FEA430594EA050F08BF90EA020F25
S315080043E01FBF54EA000C55EA020C7FEA645C7FEAB8
S315080043F0655C00F0E2804FEA5454D4EB5555B8BFDB
S315080044006D420CDD2C4480EA020281EA030382EA4B
S31508004410000083EA010180EA020281EA0303362DDD
S3150800442088BF30BD11F0004F4FEA01314FF4801CB0
S315080044304CEA113102D0404261EB410113F0004FC2
S315080044404FEA03334CEA133302D0524263EB430379
S3150800445094EA050F00F0A780A4F10104D5F1200E17
S315080044600DDB02FA0EFC22FA05F2801841F1000172
S3150800447003FA0EF2801843FA05F359410EE0A5F146
S3150800448020050EF1200E012A03FA0EFC28BF4CF077
S31508004490020C43FA05F3C01851EBE37101F000452D
S315080044A007D54FF0000EDCF1000C7EEB00006EEB3A
S315080044B00101B1F5801F1BD3B1F5001F0CD34908C4
S315080044C05FEA30004FEA3C0C04F101044FEA44521B
S315080044D012F5800F80F09A80BCF1004F08BF5FEAA2
S315080044E0500C50F1000041EB045141EA050130BD82
S315080044F05FEA4C0C404141EB0101013C28BFB1F594
S31508004500801FE9D291F0000F04BF01460020B1FADE
S3150800451081F308BF2033A3F10B03B3F120020CDAB1
S315080045200C3208DD02F1140CC2F10C0201FA0CF08F
S3150800453021FA02F10CE002F11402D8BFC2F1200CF4
S3150800454001FA02F120FA0CFCDCBF41EA0C019040AA
S31508004550E41AA2BF01EB0451294330BD6FEA0404F3
S315080045601F3C1CDA0C340EDC04F11404C4F12002DE
S3150800457020FA04F001FA02F340EA030021FA04F3F0
S3150800458045EA030130BDC4F10C04C4F1200220FA47
S3150800459002F001FA04F340EA0300294630BD21FA85
S315080045A004F0294630BD94F0000F83F4801306BF4B
S315080045B081F480110134013D4EE77FEA645C18BF3F
S315080045C07FEA655C29D094EA050F08BF90EA020FD6
S315080045D005D054EA000C04BF1946104630BD91EACE
S315080045E0030F1EBF0021002030BD5FEA545C05D1D1
S315080045F04000494128BF41F0004130BD14F5800410
S315080046003CBF01F5801130BD01F0004545F0FE4183
S3150800461041F470014FF0000030BD7FEA645C1ABFB8
S31508004620194610467FEA655C1CBF0B46024650EAEF
S31508004630013406BF52EA033591EA030F41F400211B
S3150800464030BD00BF90F0000F04BF0021704730B5A1
S315080046504FF4806404F132044FF000054FF0000176
S3150800466050E700BF90F0000F04BF0021704730B537
S315080046704FF4806404F1320410F0004548BF40420C
S315080046804FF000013EE700BF42004FEAE2014FEA61
S3150800469031014FEA02701FBF12F07F4393F07F4F3C
S315080046A081F06051704732F07F4208BF704793F03F
S315080046B07F4F04BF41F40021704730B54FF4607452
S315080046C001F0004521F000411CE700BF50EA010255
S315080046D008BF704730B54FF000050AE050EA0102FE
S315080046E008BF704730B511F0004502D5404261EB6E
S315080046F041014FF4806404F132045FEA915C3FF4AF
S31508004700D8AE4FF003025FEADC0C18BF03325FEA4B
S31508004710DC0C18BF033202EBDC02C2F1200300FAFC
S3150800472003FC20FA02F001FA03FE40EA0E0021FA21
S3150800473002F11444BDE600BF70B54FF0FF0C4CF40F
S31508004740E06C1CEA11541DBF1CEA135594EA0C0FC1
S3150800475095EA0C0F00F0DEF82C4481EA030621EAFC
S315080047604C5123EA4C5350EA013518BF52EA033537
S3150800477041F4801143F4801338D0A0FB02CE4FF0E9
S315080047800005E1FB02E506F00042E0FB03E54FF019
S315080047900006E1FB03569CF0000F18BF4EF0010E11
S315080047A0A4F1FF04B6F5007F64F5407404D25FEA0D
S315080047B04E0E6D4146EB060642EAC62141EA5551C0
S315080047C04FEAC52040EA5E504FEACE2EB4F1FD0C02
S315080047D088BFBCF5E06F1ED8BEF1004F08BF5FEA80
S315080047E0500E50F1000041EB045170BD06F0004632
S315080047F046EA010140EA020081EA0301B4EB5C04DF
S31508004800C2BFD4EB0C0541EA045170BD41F48011D6
S315080048104FF0000E013C00F3AB8014F1360FDEBFFB
S31508004820002001F0004170BDC4F10004203C35DAD7
S315080048300C341BDC04F11404C4F1200500FA05F35A
S3150800484020FA04F001FA05F240EA020001F00042FB
S3150800485021F0004110EBD37021FA04F642EB060171
S315080048605EEA430E08BF20EAD37070BDC4F10C049B
S31508004870C4F1200500FA04F320FA05F001FA04F25F
S3150800488040EA020001F0004110EBD37041F100014B
S315080048905EEA430E08BF20EAD37070BDC4F1200556
S315080048A000FA05F24EEA020E20FA04F301FA05F2BE
S315080048B043EA020321FA04F001F0004121FA04F266
S315080048C020EA020000EBD3705EEA430E08BF20EA36
S315080048D0D37070BD94F0000F0FD101F00046400070
S315080048E041EB010111F4801F08BF013CF7D041EAF2
S315080048F0060195F0000F18BF704703F000465200F6
S3150800490043EB030313F4801F08BF013DF7D043EAC6
S315080049100603704794EA0C0F0CEA135518BF95EA7C
S315080049200C0F0CD050EA410618BF52EA4306D1D103
S3150800493081EA030101F000414FF0000070BD50EA22
S31508004940410606BF1046194652EA430619D094EAAC
S315080049500C0F02D150EA013613D195EA0C0F05D196
S3150800496052EA03361CBF104619460AD181EA0301EA
S3150800497001F0004141F0FE4141F470014FF00000A2
S3150800498070BD41F0FE4141F4780170BD70B54FF03D
S31508004990FF0C4CF4E06C1CEA11541DBF1CEA1355BD
S315080049A094EA0C0F95EA0C0F00F0A7F8A4EB05049F
S315080049B081EA030E52EA03354FEA013100F0888096
S315080049C04FEA03334FF0805545EA131343EA12635F
S315080049D04FEA022245EA111545EA10654FEA002614
S315080049E00EF000419D4208BF964244F1FD0404F5CD
S315080049F0407402D25B084FEA3202B61A65EB030529
S31508004A005B084FEA32024FF480104FF4002CB6EBE5
S31508004A10020E75EB030E22BFB61A754640EA0C0065
S31508004A205B084FEA3202B6EB020E75EB030E22BFA5
S31508004A30B61A754640EA5C005B084FEA3202B6EBE6
S31508004A40020E75EB030E22BFB61A754640EA9C00A5
S31508004A505B084FEA3202B6EB020E75EB030E22BF75
S31508004A60B61A754640EADC0055EA060E18D04FEA33
S31508004A70051545EA16754FEA06164FEAC30343EAD3
S31508004A8052734FEAC2025FEA1C1CC0D111F4801FA0
S31508004A900BD141EA00014FF000004FF0004CB6E799
S31508004AA011F4801F04BF01430020B4F1FD0C88BF38
S31508004AB0BCF5E06F3FF6AFAEB5EB030C04BFB6EB43
S31508004AC0020C5FEA500C50F1000041EB045170BD36
S31508004AD00EF0004E4EEA113114EB5C04C2BFD4EB63
S31508004AE00C0541EA045170BD41F480114FF0000EE7
S31508004AF0013C90E645EA060E8DE60CEA135594EA63
S31508004B000C0F08BF95EA0C0F3FF43BAF94EA0C0F65
S31508004B100AD150EA01347FF434AF95EA0C0F7FF4DA
S31508004B2025AF104619462CE795EA0C0F06D152EA2E
S31508004B3003353FF4FDAE1046194622E750EA410612
S31508004B4018BF52EA43067FF4C5AE50EA41047FF423
S31508004B500DAF52EA43057FF4EBAE12E74FF0FF3C88
S31508004B6006E000BF4FF0010C02E000BF4FF0010C59
S31508004B704DF804CD4FEA410C7FEA6C5C4FEA430CD2
S31508004B8018BF7FEA6C5C1BD001B050EA410C0CBF21
S31508004B9052EA430C91EA030F02BF90EA020F002083
S31508004BA0704710F1000F91EA030F58BF994208BFEA
S31508004BB090422CBFD8176FEAE37040F001007047A7
S31508004BC04FEA410C7FEA6C5C02D150EA013C07D1FE
S31508004BD04FEA430C7FEA6C5CD6D152EA033CD3D049
S31508004BE05DF8040B704700BF8446104662468C4643
S31508004BF01946634600E000BF01B5FFF7B7FF002876
S31508004C0048BF10F1000F01BD4DF808EDFFF7F4FF9E
S31508004C100CBF012000205DF808FB00BF4DF808ED29
S31508004C20FFF7EAFF34BF012000205DF808FB00BF4C
S31508004C304DF808EDFFF7E0FF94BF012000205DF86E
S31508004C4008FB00BF4DF808EDFFF7CEFF94BF012023
S31508004C5000205DF808FB00BF4DF808EDFFF7C4FF1C
S31508004C6034BF012000205DF808FB00BF4FEA410C65
S31508004C707FEA6C5C02D150EA013C0AD14FEA430C48
S31508004C807FEA6C5C02D152EA033C02D14FF0000085
S31508004C9070474FF0010070474FEA410212F50012C3
S31508004CA015D211D56FF47873B3EB625212D94FEA65
S31508004CB0C12343F0004343EA505311F0004F23FA4F
S31508004CC002F018BF404270474FF00000704750EAA4
S31508004CD0013005D111F0004008BF6FF00040704761
S31508004CE04FF00000704700BF38B500240546284637
S31508004CF000F0BEF9A04200D838BD285DFCF748F997
S31508004D000134F4E7FEE700239A4200D1704710B554
S31508004D1050F8234041F8234001339A42F8D110BD98
S31508004D20FEE74FF0FF307047FEE70020704701208E
S31508004D307047012070474FF0FF30704700207047DA
S31508004D40002070470020704710B5022A4FF0000473
S31508004D5005D9033A022A0CD90360047110BD11F46F
S31508004D60000218BF4FF07F4221F07F4313430C0E19
S31508004D70F2E721F0FF03CCB2EEE708B50A6F496FF8
S31508004D8002F00702FFF7E0FF08BD036BDA0702D55A
S31508004D9003695B06F9D470470369002BFCDB43689B
S31508004DA0DB071AD50223C3610369D907FCD420237C
S31508004DB0C36103699A07FCD40369002BFCDB4FF433
S31508004DC04073C361036913F00C4FFBD1012200F550
S31508004DD000535A6043689B07FCD470472DE9F04F8F
S31508004DE085B00C469046194657EC106B002F3B468B
S31508004DF0DDE90E9BBCBF07F1004332462BF0200AC3
S31508004E00AFBF00231F4616462D23BAF1460F0B7077
S31508004E1005D0BAF1450F00D10134022100E0032183
S31508004E2003AB2246019302AB47EC106B00934B464B
S31508004E30FBF79EF9BBF1670F054619D118F0010F6C
S31508004E400ED005EB04080022002330463946FFF74A
S31508004E50DBFE08B1CDF80C803022039B434521D3F5
S31508004E60039B2846109A5B1B136005B0BDE8F08FBC
S31508004E70BBF1470FE2D0BAF1460F00EB0408E2D1C6
S31508004E800378302B0AD10022002330463946FFF733
S31508004E90BBFE18B9C4F10104C9F80040D9F80030BE
S31508004EA09844D0E7591C03911A70D6E7F7B500293C
S31508004EB00270BABF49422D232B230929437028DDE6
S31508004EC00DF107030A271D461A46013BB1FBF7F603
S31508004ED007FB1614303402F8014C0C463146632C95
S31508004EE0F2DC3031941E03F8011C411C2346AB4208
S31508004EF00AD30DF109039B1AAC4288BF002302337B
S31508004F000344181A03B0F0BD13F8016B01F8016FDA
S31508004F10EDE7302330318370031DC170F1E72DE9C9
S31508004F20F047164698468A6807460B690C46DDF828
S31508004F3020909342B8BF1346336091F843200AB1D4
S31508004F40013333602368990642BF336802333360FE
S31508004F50256815F0060506D104F1190AE3683268D2
S31508004F609B1AAB422BDC94F843302268003B18BFEF
S31508004F700123920630D404F1430241463846C84715
S31508004F80013023D023681A3454F80A2C03F0060398
S31508004F90042B0ABF54F80E5C002533684FF0000650
S31508004FA008BFED1A54F8123C08BF25EAE575934286
S31508004FB0C4BF9B1AED18B5421AD1002008E0012398
S31508004FC0524641463846C847013003D14FF0FF30B4
S31508004FD0BDE8F0870135C1E7E1185A1C30200233D5
S31508004FE0224481F8430094F8451082F84310C2E73A
S31508004FF00123224641463846C8470130E6D00136E5
S31508005000D9E72DE9F8430746884614460026D4E929
S315080050100195B9F1010905D52468002CF7D1304668
S31508005020BDE8F883AB89012B07D9B5F90E300133F2
S3150800503003D029463846C04706436835E9E702449F
S315080050400346934200D1704703F8011BF9E77047FE
S3150800505070477047C9B20346024410B593421846D2
S3150800506001D1002003E0047801338C42F6D110BD4B
S31508005070034613F8012B002AFBD1181A013870478A
S315080050802DE9F74F036907460C69A342C0F28380EE
S31508005090013C00F1140501F11408A30055F8242079
S315080050A008EB8409009305EB8403019358F8243030
S315080050B001339A42B2FBF3F631D34FF0000AC446E5
S315080050C0AE46D3465CF8043B98B2E1454FEA134333
S315080050D006FB00A04FEA104280B206FB0323DEF867
S315080050E0002092B24FEA134AA2EB00029BB2DEF806
S315080050F000005A44C3EB224392B203EB104342EA40
S3150800510003424FEA234B4EF8042BDBD2009BEB58A5
S315080051102BB9019B043B9D421A4630D33C61384665
S3150800512000F090F9002826DB2946002058F8042BC1
S31508005130D1F800C01FFA82FEC1451FFA8CF34FEA68
S315080051401242A3EB0E030344C2EB23429BB202EBCB
S315080051501C4243EA02434FEA224041F8043BE5D2A7
S3150800516055F8242005EB840322B9043B9D421A46D0
S315080051700BD33C610136304603B0BDE8F08F1268A8
S31508005180043B002ACAD1013CC5E71268043B002A41
S31508005190EFD1013CEAE70020EEE72DE9F0471F468C
S315080051A08E6882460C46BE4290460B682DD8B1F9E9
S315080051B00C2012F4906F26D06569096905EB450540
S315080051C0A3EB01097B1C05EBD5754B446D109D427D
S315080051D038BF1D46530527D52946FEF7D3FA064696
S315080051E060B34A46216900F0D3F9A38923F4906392
S315080051F043F08003A38126614E446561A5EB09054A
S3150800520026603E46A560BE4200D93E463246414625
S31508005210206800F0A3F9A36800209B1BA3602368FD
S3150800522033442360BDE8F0872A4600F069F906464C
S315080052300028E0D121695046FEF7BCFE0C234FF04A
S31508005240FF30CAF80030A38943F04003A381E9E799
S31508005250B1F90C202DE9F041170705460C4656D43E
S315080052604B68002B02DC0B6C002B3DDDE66A002E3A
S315080052703AD0002312F480522F68216A2B6025D079
S31508005280626DA389580705D56368D21A636B0BB19B
S31508005290236CD21A216A0023E66A2846B047411CC5
S315080052A024D00023636023692360A389DA0400D528
S315080052B06065616B2F60B9B104F14403994202D06D
S315080052C02846FEF777FE002363630DE00123284690
S315080052D0B047461C0246D4D12B68002BD1D01D2BD3
S315080052E001D0162B2AD12F6000202EE02A68B4F9A7
S315080052F00C3042B11D2A01D0162A21D10023636041
S3150800530023692360D5E7626022692260CEE70F69C8
S31508005310002FE9D093070E680F600CBF4B69002376
S31508005320A6EB07088B60B8F1000FDDDD43463A4669
S31508005330216A2846A66AB047002808DCB4F90C306A
S3150800534043F040034FF0FF30A381BDE8F0810744E6
S31508005350A8EB0008E7E738B50B6905460C4613B90C
S315080053600025284638BD18B1036A0BB9FEF7A4F81C
S31508005370B4F90C30002BF3D0626ED00704D499052B
S3150800538002D4A06DFFF764FE28462146FFF760FFAA
S31508005390636E0546DA07E4D4A3899B05E1D4A06DBC
S315080053A0FFF757FEDDE7B0F5803F034636BF030437
S315080053B000201020B3F1807F3CBF1B020830B3F1F8
S315080053C0805F3CBF1B010430B3F1804F03D3002B31
S315080053D00ADB013070479B0001D5023070475B003D
S315080053E001D503307047202070470368024613F042
S315080053F007000BD0D90721D4980747BF5B080120BF
S315080054009B0802204CBF13601360704799B209B914
S315080054101B0C1020D9B209B908301B0A190704BF9A
S315080054201B090430990704BF9B080230D90703D427
S315080054305B0800F1010003D0136070470020704735
S315080054402020704703460A690069801A30B50ED1D4
S315080054501433143103EB820401EB820154F8045D22
S3150800546051F8042D954203D005D24FF0FF3030BDD8
S31508005470A342F3D3FBE70120F9E710B50C46B1F9CF
S315080054800E10FEF745FD0028ABBF636DA3891B18F8
S3150800549023F48053ACBF6365A38110BD2DE9F041A9
S315080054A01F468B8905460C46DB05164605D502239D
S315080054B00022B1F90E10FEF719FDA3893246B4F998
S315080054C00E10284623F48053A3813B46BDE8F041DD
S315080054D0FEF740BD10B50C46B1F90E10FEF706FDF5
S315080054E0431CA38915BF606523F4805343F4805396
S315080054F0A38118BFA38110BDB1F90E10FEF7E6BC53
S315080055002DE9F041804615460C4621B91146BDE8FD
