S00D0000426C696E6B792E7333377E
S3150800000000100020E9020008E5110008E5110008C3
S31508000010E5110008E5110008E5110008E5110008DA
S31508000020E5110008E5110008E5110008E5110008CA
S31508000030E5110008E5110008E5110008E5110008BA
S31508000040E5110008E5110008E5110008E5110008AA
S31508000050E5110008E5110008E5110008E51100089A
S31508000060E5110008E5110008E5110008E51100088A
S31508000070E5110008E5110008E5110008E51100087A
S31508000080E5110008E5110008E5110008E51100086A
S31508000090E5110008E5110008E5110008E51100085A
S315080000A0E51100083504000815040008E5110008E4
S315080000B0E5110008E5110008E5110008E51100083A
S315080000C0E5110008E5110008E5110008E51100082A
S315080000D0E5110008E5110008E5110008E51100081A
S315080000E0E5110008E5110008E5110008E51100080A
S315080000F0E5110008E5110008E5110008E5110008FA
S31508000100E5110008E5110008E5110008E5110008E9
S31508000110E5110008E5110008E5110008E5110008D9
S31508000120E5110008E5110008E5110008E5110008C9
S31508000130E5110008E5110008E5110008E5110008B9
S31508000140E5110008E5110008E51100080D1A000878
S31508000150E5110008E5110008E5110008E511000899
S31508000160E5110008E5110008E5110008E511000889
S315080001700348044B834202D0034B03B11847704728
S31508000180B8110020B811002000000000064B0749EE
S31508000190C91A891048BF0131491003D0044B0BB165
S315080001A001481847704700BFB8110020B811002051
S315080001B00000000010B5064C237843B9FFF7D8FFB6
S315080001C0044B13B10448AFF300800123237010BD1C
S315080001D098110020000000004C1D000808B5054BCA
S315080001E01BB105490548AFF30080BDE80840FFF795
S315080001F0CDBF00BF00000000001000204C1D000805
S31508000200A3F5803A704700BF174B002B08BF134B66
S315080002109D46FFF7F5FF00218B460F461348144A03
S31508000220121A00F0EFFF0E4B002B00D098470D4B2B
S31508000230002B00D098470020002104000D000D482F
S31508000240002802D00C48AFF3008000F0A7FF20007A
S31508000250290000F013F800F08FFF00BF0000080027
S315080002600000000000000000001000200010002020
S315080002709C110020000000000000000008B500F0F6
S315080002805FFD104A104C536E43F080635366D4F8F2
S31508000290C43043F48063C4F8C430D4F8D0304FF483
S315080002A0FA7023F00403C4F8D03000F083FDD4F8C4
S315080002B0D0304FF4FA7043F00403C4F8D03000F09D
S315080002C079FDEAE70080005000C003500348044A5D
S315080002D00449121A921000F086BF00BF7001000888
S315080002E0700100089C11002008B5154B83F30A8895
S315080002F000F030F8FFF7EAFF124B13498B4212D38E
S315080003000020124B12498B4218D3FFF77DFF18685D
S3150800031050F82240586840F82240013298688242D4
S31508000320F5D30C33EAE70022F8E71C6844F8220004
S3150800033001325C68A242F8D30833E4E70022F8E702
S3150800034000000020541D0008601D0008601D0008FC
S31508000350601D000870B54FF48041124B124A134DC8
S315080003609A60D3F8882005F5005442F47002C3F861
S3150800037088200F4A91664FF0FF3222660D4A626660
S315080003800222C3F8D020BFF34F8FBFF36F8F4FF40D
S315080003904036002000F0C6FC0020E66000F0A8FC0D
S315080003A02E6170BD00ED00E00000000800800044EA
S315080003B000900050F7FF37002DE9F0410C25044660
S315080003C04FF00108124E0CB314F001000BD00020B8
S315080003D024F0010405FB00625768002FF3D09168EA
S315080003E0C0B2B847EFE72246013020284FEA52024A
S315080003F001D0D307F8D508FA00F20F2824EA020438
S31508000400E8D9103805FB0062B432E5E7BDE8F081AB
S315080004101810002008B500F0F1FB054B00F0553028
S3150800042020F05020C3F82004BDE80840FFF7C4BFF9
S3150800043000E0035008B500F0E1FB054B00F0AA30D8
S3150800044020F0A020C3F82004BDE80840FFF7B4BF99
S3150800045000E0035038B5104B0546D3F800310C467A
S3150800046003F00303022B0BD0032B0DD0012B0FD166
S3150800047000F00CFF032305B1286004B1236038BDE2
S3150800048000F056FF0923F6E700F006FF0823F2E717
S3150800049001230020EFE700BF0080005038B5104B5D
S315080004A00546D3F840310C4603F00303022B0BD064
S315080004B0032B0DD0012B0FD101F0F0F90A2305B15A
S315080004C0286004B1236038BD00F032FF0923F6E73F
S315080004D001F0E7F90C23F2E701230020EFE700BF5C
S315080004E00080005038B5104B0546D3F860310C46ED
S315080004F003F00303022B0BD0032B0DD0012B0FD1D6
S3150800050001F0CCF90A2305B1286004B1236038BD8F
S3150800051000F00EFF0923F6E701F0C3F90C23F2E712
S3150800052001230020EFE700BF0080005038B5104BCC
S315080005300546D3F840320C4603F00303022B0BD0D2
S31508000540032B0DD0012B0FD101F0A8F90A2305B111
S31508000550286004B1236038BD00F0EAFE0923F6E7F7
S3150800056001F09FF90C23F2E701230020EFE700BF13
S315080005700080005038B5124B0546D3F880300C463B
S3150800058003F00303022B0BD0032B0DD0012B0FD145
S3150800059000F046FE0E2305B1286004B1236038BD7D
S315080005A000F07EFE0723F6E700F034FE0623F2E7A6
S315080005B0044841F2142100F023FE00231846EAE716
S315080005C000800050581A000838B51A4B0546D3F86B
S315080005D020010C4600F00700062821D8DFE800F0C5
S315080005E028040C1410181C0000F014FE052305B18D
S315080005F0286004B1236038BD00F048FE0323F6E7FF
S3150800060000F04EFE0723F2E700F03CFE0223EEE779
S3150800061000F000FE0623EAE700F038FE0423E6E7CA
S31508000620054841F2912100F0EBFD00231846DEE76C
S315080006300123DCE700800050581A000838B5194B2A
S315080006400546D3F828310C4603F00703013B052B72
S3150800065020D8DFE803F003131B0F0B1700F0DAFDB1
S31508000660052305B1286004B1236038BD00F0D2FD2A
S315080006700623F6E700F014FE0723F2E700F006FE6D
S315080006800323EEE700F002FE0423EAE700F0FAFD92
S315080006900223E6E7044841F2990100F0B1FD002380
S315080006A01846DEE700800050581A000837B50023C0
S315080006B00193194B0546D3F820320C4603F007037D
S315080006C0042B1FD8DFE803F025030F1419000021B7
S315080006D001A8FFF7B3FF12230DB1019A2A6004B1EE
S315080006E0236003B030BD00F0DBFD07230190F3E77C
S315080006F001F0D4F80A230190EEE700F019FE092369
S315080007000190E9E741F25601044800F079FD00231B
S31508000710E2E70123E0E700BF00800050581A00080E
S31508000720F7B50027144B0197D3F88041064604F025
S315080007300304022C0D4614D0032C0DD0012C14D121
S31508000740394601A8FFF740FF10240EB1019B33601C
S3150800075005B12C6003B0F0BD00F0A2FD072401909E
S31508000760F3E700F08FFD0190EFE741F2E631034829
S3150800077000F046FD3C46E8E700800050581A00089D
S3150800078038B5164B0546D3F800020C4600F00700AC
S31508000790042819D8DFE800F020030B0F130001F036
S315080007A07DF80A2305B1286004B1236038BD00F03E
S315080007B0BFFD0923F6E701F074F80C23F2E700F011
S315080007C04FFD0F23800AEDE7054841F2A44100F0EA
S315080007D017FD00231846E5E70123E3E700800050EC
S315080007E0581A000838B5164B0546D3F808020C46C1
S315080007F000F00700042819D8DFE800F020030B0FE3
S31508000800130001F04BF80A2305B1286004B12360F0
S3150800081038BD00F08DFD0923F6E701F042F80C23F8
S31508000820F2E700F01DFD0F23800AEDE7054841F2C7
S31508000830DC4100F0E5FC00231846E5E70123E3E781
S3150800084000800050581A000837B500230193184B4A
S315080008500546D3F860320C4603F00703013B032B29
S315080008601FD8DFE803F0020E1914002101A8FFF7CC
S31508000870ABFE10230DB1019A2A6004B1236003B0C0
S3150800088030BD002101A8FFF709FE1123F2E700F0A9
S3150800089007FD07230190EDE700F0F4FC0223019021
S315080008A0E8E741F2FD01034800F0AAFC0023E1E76E
S315080008B000800050581A000837B500230193184BDA
S315080008C00546D3F894320C4603F00703013B032B85
S315080008D01FD8DFE803F0020E1914002101A8FFF75C
S315080008E073FE10230DB1019A2A6004B1236003B088
S315080008F030BD002101A8FFF7D1FD1123F2E700F072
S31508000900CFFC07230190EDE700F0BCFC0223019021
S31508000910E8E741F23011034800F072FC0023E1E7F2
S3150800092000800050581A000873B500240F4B019434
S31508000930D3F87032064603F00303012B0D4607D0A1
S31508000940022B11D041F25B11094800F059FC04E072
S31508000950214601A8FFF7A2FD11240EB1019B3360C1
S3150800096005B12C6002B070BD1524F6E70080005072
S31508000970581A000810B5B0F5207F2ED009D8B0F562
S31508000980007F24D003D868B1B0F5C07F0AD0002410
S315080009901BE0B0F5607FFAD1124BD3F88040C4F360
S315080009A0011412E00F4B1C6F230B13F00E0FC4F348
S315080009B003340AD0072C08D00F2C06D0032C04D0F9
S315080009C04FF42271084800F01BFC601C10BD054B53
S315080009D0D3F89040C4F30464F7E7024B1C6FC4F3E2
S315080009E08024F2E700800050581A000830B585B018
S315080009F00021B0F5807F0446CDE9001100F0D380D0
S31508000A003DD85E2833D85E2833D8DFE800F0483270
S31508000A1032323232323232323232323232323232A8
S31508000A20323232323232323232323232323248AD07
S31508000A3048ADBDBDBDBDBDADC7516EDD51ADADAD9A
S31508000A403232323232323232ADADAD81E7AD323288
S31508000A503232323232323232323232BD484848E2EB
S31508000A605151EC9066C232323232329848008028B0
S31508000A706AD040F2A441604800F0C2FB67E0B0F5D6
S31508000A80D06F00F0A18035D8B0F5607F77D01AD83E
S31508000A90B0F5007F5ED005D8B0F5C07FE9D100F08B
S31508000AA0DFFB53E0B0F5207F5ED0B0F5407FE0D1A4
S31508000AB000F0D6FB04464FF42070FFF75BFFB4FB4B
S31508000AC0F0F4640859E0B0F5B06F67D00AD8B0F50D
S31508000AD0806F59D0B0F5A06FCBD100216846FFF7DB
S31508000AE0E5FD34E0B0F5C06FC3D100216846FFF7D5
S31508000AF0D5FC2CE0B0F5106F6BD00ED8B0F5086FAA
S31508000B0076D0B6D8B0F5E06F68D0B0F5F06FB0D152
S31508000B1000216846FFF7E6FC19E0B0F5406F38D0CB
S31508000B200AD8B0F5206F5ED0B0F5286FA1D10021A4
S31508000B306846FFF7F9FE0AE0B0F5486F99D100213B
S31508000B406846FFF7B9FE02E000F06AFB00900098DD
S31508000B5005B030BD00F064FB05462046FFF70AFFE6
S31508000B60B5FBF0F50095F2E700F07AFB04464FF482
S31508000B702070FFF7FFFEB4FBF0F40094E7E701A846
S31508000B80FFF7F8FC019DE8E700216846FFF71CFD22
S31508000B90DDE700216846FFF751FDD8E700216846E2
S31508000BA0FFF7BEFDD3E74FF0E02302911B695B0711
S31508000BB005D500F055FB0290029B0093C7E703A9F1
S31508000BC002A8FFF76BFCF7E700216846FFF7D8FD98
S31508000BD0BDE700216846FFF705FEB8E7002168462D
S31508000BE0FFF7A4FCB3E700216846FFF72DFEAEE742
S31508000BF06846FFF72FFCAAE7581A0008034BD3F8F4
S31508000C002424D3F820041040704700BF00C00350C6
S31508000C10054B9A689107FCD45A689207F9D4DA69A1
S31508000C20002AF6D1704700BF00800A5010B5074C5D
S31508000C306368DB0704D44FF49F71054800F0E0FAB7
S31508000C4000F07CFB0223236110BD00BF00800A5020
S31508000C50B01A000808B5FFF7DBFF0122024B03F5BF
S31508000C6080514A601A6108BD00800A5010B5044BCD
S31508000C705C68012C03D1FFF7D9FF024B5C6010BDFD
S31508000C8000800A5000A00A5038B5074DFFF7C0FF8C
S31508000C906B680446012B03D1FFF7E8FFFFF7B8FF9F
S31508000CA02378EB6038BD00BF00800A5038B505468A
S31508000CB00C4600F04DFBBDB96268237812B1127874
S31508000CC043EAC203627843EA4203A26812B1127881
S31508000CD043EA8213E27843EA8203226912B1127860
S31508000CE043EA4223014A936438BD00BF00800A5094
S31508000CF010B54C28044608D801236109074A04F0B0
S31508000D001F04A34042F8213010BD4FF498710448DF
S31508000D1000F076FA002CF7DBEEE700BF00E100E012
S31508000D205C1C0008002808DB01224309034900F07F
S31508000D301F008240603341F82320704700E100E03D
S31508000D4070B500F0BFFD144E05463478FCB9134B58
S31508000D501C60134B1C60134B1C6000F047F8012005
S31508000D6000F04BFE00F03CFD0F4B0246186020B920
S31508000D70284600F0A2FD232070BD234640F2E73145
S31508000D800A4800F069F80A4B1860012333702846B0
S31508000D9000F093FD0020EFE79B110020881100204A
S31508000DA084110020901100208C11002018FCFFFFF0
S31508000DB08011002000B58DB001238DF80F3000F0AA
S31508000DC051FC00230146CDE90033074A0DF10F0314
S31508000DD004A800F0EAFD18B99DF80F30002BFBD1E6
S31508000DE00DB05DF804FB00BFA519000810B586B064
S31508000DF000241422214601A88DF8004000F002FACA
S31508000E00012313488DF8043000F067FDBFF34F8FB8
S31508000E106846FFF739FF204601A98DF80440FFF719
S31508000E2045FF20460F2100F0B3FA0F21204600F0B7
S31508000E30BDFAFFF70FFF00F081FA064B43209C61CD
S31508000E40FFF770FF4320FFF753FF06B010BD00BF42
S31508000E504C1C000800800A5053B94AB9002908BF3B
S31508000E6000281CBF4FF0FF314FF0FF3000F082B969
S31508000E70ADF1080C6DE904CE00F006F8DDF804E0E3
S31508000E80DDE9022304B070472DE9F04F099D0C46B1
S31508000E90002B4DD18A420F4684469646B2FA82F313
S31508000EA060D94BB102FA03FEC3F120029F4000FA53
S31508000EB003FC20FA02F217434FEA1E461FFA8EF485
S31508000EC04FEA1C42B7FBF6F106FB117701FB04F06B
S31508000ED042EA0742904208D91EEB020201F1FF37A7
S31508000EE002D2904200F231813946121A1FFA8CFC5E
S31508000EF0B2FBF6F006FB102200FB04F44CEA024CA7
S31508000F00644508D91EEB0C0C00F1FF3202D2644589
S31508000F1000F21E81104640EA0140ACEB040C0021A9
S31508000F2025B12CFA03F30022C5E90032BDE8F08F9B
S31508000F308B4205D90DB1C5E9000100210846F5E740
S31508000F40B3FA83F100294DD1A342C0F0F380904251
S31508000F5080F0F080064623460846002DE6D0C5E90F
S31508000F600063E3E7002B40F0A3808A1A4FEA1E4786
S31508000F701FFA8EF60121B2FBF7F407FB14204FEA9D
S31508000F801C4242EA004206FB04F090420FD91EEBCF
S31508000F90020204F1FF382CBF4FF001094FF0000997
S31508000FA0904203D9B9F1000F00F0CC804446121ADA
S31508000FB01FFA8CFCB2FBF7F007FB102200FB06F6C3
S31508000FC04CEA024C664508D91EEB0C0C00F1FF32C0
S31508000FD002D2664500F2B3801046ACEB060C40EA36
S31508000FE004409DE7C1F120068B4004FA01FE22FA6F
S31508000FF006F720FA06FCF4408A401F434EEA0C0323
S3150800100000FA01FE4FEA17484FEA13491FFA87FC10
S31508001010B4FBF8F008FB104449EA044400FB0CF959
S31508001020A1450ED93C1900F1FF3A2CBF4FF0010B30
S315080010304FF0000BA14503D9BBF1000F00F08B80E0
S315080010405046A4EB09041FFA83F9B4FBF8F308FB2E
S31508001050134403FB0CFC49EA0444A44506D93C198D
S3150800106003F1FF3801D2A4457BD8434643EA004042
S31508001070A4EB0C04A0FB02984445CC46434602D395
S3150800108006D1CE4504D20138B9EB020C68EB07034A
S31508001090002D6CD0BEEB0C0264EB030422FA01F3BC
S315080010A004FA06F6CC4000211E43C5E900643DE774
S315080010B002FA03FEC3F1200104FA03F200FA03FC64
S315080010C0CC404FEA1E4720FA01F11FFA8EF6B4FB10
S315080010D0F7F00A4307FB1044110C41EA044100FBF0
S315080010E006F48C420ED91EEB010100F1FF382CBF25
S315080010F04FF001094FF000098C4202D9B9F1000FEF
S315080011002CD04046091B92B2B1FBF7F407FB141129
S3150800111042EA014204FB06F1914207D91EEB02029C
S3150800112004F1FF3801D291421ED84446521A44EAC5
S31508001130004120E7861A64EB030301200DE7F44417
S3150800114002384AE7023C724431E702397244CCE677
S31508001150F4440238DFE602383C4472E70238714448
S31508001160D0E7023B3C4481E7023C7244DEE729466D
S31508001170DCE600BF704700BF08B5064B044613B14E
S315080011800021AFF30080044B1B6803B19847204643
S3150800119000F037F8000000009411002070B50D4DDE
S315080011A000260D4C641BA410A64209D10B4D00263F
S315080011B00B4C00F045FC641BA410A64205D170BD7B
S315080011C055F8043B01369847EEE755F8043B0136D7
S315080011D09847F2E7B0110020B0110020B0110020A6
S315080011E0B4110020FEE700239A4200D1704710B5DB
S315080011F050F8234041F8234001339A42F8D110BDF4
S31508001200FEE7FEE702440346934200D1704703F81F
S31508001210011BF9E7014B1868704700BFA0110020B1
S315080012200A4B1B6F03F00703013B032B03D8DFE8C8
S3150800123003F00A030608FEE7054B18687047054BD6
S31508001240FBE7054870470548704700BF0080005017
S31508001250A0110020A811002080D54302002D3101DD
S3150800126008B5FFF7DDFF054B1B6FC3F303330133E7
S31508001270B0FBF3F0024B186008BD00BF00800050B9
S315080012809C11002000487047002D3101014B186859
S31508001290704700BFA81100200048704780D5430258
S315080012A04FF40022184B5A664FF0B4439868C0F3BF
S315080012B004400C280AD8DFE800F00B0909090909D7
S315080012C0072119091B1D1F00104870470020704789
S315080012D09B6803F04073B3F1807F11D0B3F1007FB0
S315080012E010D00B4A002B08BF1046704709487047B4
S315080012F009487047094870470948704709487047C0
S31508001300094870470948704700900050405DC6007C
S3150800131000093D00C0EA210180BA8C010048E801B5
S31508001320005A62020024F40080841E0040420F0026
S31508001330014B1868704700BFA4110020034B5A6878
S31508001340D20702D5DA69002AF9D1704700800A5017
S3150800135038B9064B5A68D20702D59A6D002AF9D1D0
S3150800136070478C210248FFF74BBF00BF00800A5028
S31508001370151B000810B9044B5964704740F2C71191
S315080013800248FFF73DBF00BF00900A50151B000832
S3150800139010B9044B5964704740F203210248FFF71D
S315080013A02FBF00BF00A00A50151B000810B9044B38
S315080013B01964704740F23F210248FFF721BF00BF7A
S315080013C000A00A50151B000808B510B9044B186C84
S315080013D008BD044840F27A21FFF712FF0020F7E71C
S315080013E000800A50151B000838B504460D46FFF75D
S315080013F0AFFF14B91DB1012D04D0002001E0034B45
S31508001400D86C38BD014B186DFBE700BF00800A5049
S3150800141070B506460D461446FFF79AFF16B915B17C
S31508001420012D03D070BD034BDC64FBE7014B1C6543
S31508001430F8E700BF00800A5070B50D46E8B10368AA
S3150800144013F4E07F03F03F06C3F3821210D0012A9B
S3150800145013D10B4C9B0603D591210A48FFF7D0FE02
S3150800146045B104F5805401230020B340236070BDC4
S31508001470054CEFE704F50054F5E70E20F7E700BF43
S3150800148068800050791B00086480005030B50E4C07
S31508001490416123688BB9206083600DE0891A9A68D8
S315080014A01D4641616AB113465A698A42F6D935B171
S315080014B0A860521A83605A6130BD0025F4E720609F
S315080014C0F7E798608260F7E7881100200D490B68F6
S315080014D0A0B10022A3B1834203D1836822B90B606D
S315080014E003E01A469B68F5E7936083680BB900200A
S315080014F070475A6941690A445A61F8E722207047D9
S31508001500022070478811002038B500F061F90025DF
S31508001510084B094C1A682368C31A2AB123B15169C2
S31508001520994203D3C91A5161206038BD55615B1AC7
S315080015309268F2E7881100208411002038B5154D0D
S315080015402B682BB35B69A3B1134A022014681C44A9
S3150800155000F053FA204600F04FF900230F492A6895
S315080015600B7022B1D08880070AD501230B700020A2
S3150800157038BD022000F041FA022000F087F9ECE7B6
S315080015809268002AF3D050690344012BEAD9EEE7A2
S315080015902220EDE788110020841100209A110020EE
S315080015A070B516469DF81420C0E903360271049AF0
S315080015B0BDF818300260002204460D468260C380DA
S315080015C0EEB900F005F92844A0619DB12E4600F059
S315080015D070F90546FFF798FF31462046FFF756FF94
S315080015E0104B1B68A34201D1FFF7A8FF284600F05D
S315080015F05BF902E0E36865617BB9002070BD00F025
S31508001600E7F83044A061002DE0D1E3686561002B5E
S31508001610DDD0204621689847D9E7204621689847B3
S31508001620EBE700BF8811002038B50C460546A8B17F
S31508001630A1B100230B7000F045F90121084B1B6886
S3150800164033B900F03AF9002038BD9D4204D1217023
S315080016502278002AF9D0F4E79B68F1E72220F3E71D
S315080016608811002038B50021044640F2E730054BC2
S315080016704FF47A721D680023E5FB0401FFF7ECFBC3
S3150800168038BD00BF8C1100202DE9F843C207044677
S3150800169007D54B4A136801331360FFF735FFFFF789
S315080016A04DFFA30740F18A8000F00CF94FF00008BF
S315080016B005464646FFF728FF424F3C680CB163696A
S315080016C0A3B10022404B012E1A7003D118F0020F65
S315080016D018BF1E70FFF732FF222802D1022000F041
S315080016E0C3F82846BDE8F84300F0E7B823465A6928
S315080016F03AB91A792179914288BF1C469B68002B12
S31508001700F5D1284600F0D9F82569DDB100F060F872
S31508001710A269A0EB02084FEAE873A84573F1000333
S3150800172011DB23691344A361E36813B120462168DA
S315080017309847B4F8068000F0C5F801360546FFF765
S31508001740E3FEBAE7A84600F0BDF881462046FFF753
S31508001750BDFE484600F0B1F82369002BE4D0B5EB8E
S3150800176008054FEAE87363EB4303012D73F10003A1
S3150800177004DA40F247611548FFF742FDA38B33B1FF
S31508001780E28B13449BB2B3F57A7F0FD2E38300F062
S3150800179099F8804629462046FFF778FEA36922690C
S315080017A040461344A36100F088F8BDE7A3F57A73B1
S315080017B0E383A369013D013BA361E8E7BDE8F8833C
S315080017C0901100208811002099110020DE1C0008C5
S315080017D008B5FFF7B3FD014B986908BD00800A50AC
S315080017E007B5044B01A9187900F072F8019803B0FF
S315080017F05DF804FB501C0008F8B5044600F059F8DB
S315080018000746FFF79BFD154B9D6900F0F2F8064663
S315080018100020FFF7D9FD830704D4731B032B01D8D7
S31508001820AE420FD10021631B022B98BFEC1C084661
S31508001830B4F1FF3F2CBF2246621EFFF7E9FD0220E6
S3150800184000F0DBF8384600F02FF8054B1A7822B17D
S315080018500121044A916400221A70F8BD00800A50DA
S31508001860AC11002000900A50830700F0010106D54C
S315080018700123044A41F002011370034A93640020CD
S31508001880FFF786BDAC11002000A00A50830742BFAF
S315080018900222014B1A64704700900A504FF4004028
S315080018A070474FF47A70704710B962B6BFF36F8FFE
S315080018B07047EFF3108072B6704780F31188BFF354
S315080018C06F8F7047EFF31180302383F311887047C9
S315080018D009B100F005B8222070470121FFF7ACBD19
S315080018E070B506460D46FFF7EDFF0446202E56D87E
S315080018F0DFE806F0111A551F222555282B552E55B7
S31508001900313455373A3D5540554355525555554648
S315080019105549554C4F00FFF783FC002628602046A2
S31508001920FFF7CBFF304670BD4FF4C070FFF75EF887
S31508001930F3E74FF42070F9E74FF44070F6E74FF4F9
S315080019406070F3E74FF40070F0E74FF48060EDE75E
S315080019504FF44060EAE74FF4C060E7E74FF4F06001
S31508001960E4E74FF4B060E1E74FF4D060DEE74FF408
S315080019701060DBE74FF4E060D8E74FF4A060D5E7E6
S315080019804FF42860D2E74FF48070CFE74FF4206019
S31508001990CCE74FF44860C9E74FF40860C6E7002073
S315080019A02126BBE700230B707047F0B587B01F46AA
S315080019B000230D46164604468DF81730A8B1C361B4
S315080019C00DF11701FFF730FE9DF817207AB9BDF81B
S315080019D03430294602939DF830302046CDE900730D
S315080019E03346FFF7DDFD07B0F0BD2220FBE70320F5
S315080019F0F9E700210846FFF7F7BC00F00101830765
S31508001A0048BF41F002010020FFF7B4BC38B5FFF724
S31508001A1059FF04460020FFF7D7FC830700F00105AD
S31508001A2048BF45F0020500F003010020FFF7BEFCA1
S31508001A302846FFF729FE2046BDE83840FFF73DBF98
S31508001A40F8B500BFF8BC08BC9E467047F8B500BF9D
S31508001A50F8BC08BC9E4670472F55736572732F7A7B
S31508001A6061636861727974686F726E746F6E2F53F2
S31508001A70696D706C696369747953747564696F2FDD
S31508001A8053444B732F73696D706C69636974795F1E
S31508001A9073646B2F706C6174666F726D2F656D6CF5
S31508001AA069622F7372632F656D5F636D752E6300B0
S31508001AB02F55736572732F7A6163686172797468DA
S31508001AC06F726E746F6E2F53696D706C696369748B
S31508001AD07953747564696F2F53444B732F73696D0B
S31508001AE0706C69636974795F73646B2F2F706C61AE
S31508001AF074666F726D2F7065726970686572616C55
S31508001B002F696E632F736C5F68616C5F737973728C
S31508001B1074632E68002F55736572732F7A61636834
S31508001B2061727974686F726E746F6E2F53696D7017
S31508001B306C696369747953747564696F2F53444B80
S31508001B40732F73696D706C69636974795F73646BFD
S31508001B502F706C6174666F726D2F7065726970682C
S31508001B606572616C2F7372632F736C5F68616C5F4B
S31508001B707379737274632E63002F55736572732FAE
S31508001B807A61636861727974686F726E746F6E2FAA
S31508001B9053696D706C696369747953747564696F98
S31508001BA02F53444B732F73696D706C69636974792D
S31508001BB05F73646B2F2F706C6174666F726D2F651F
S31508001BC06D6C69622F696E632F656D5F6275732E22
S31508001BD068002F55736572732F7A6163686172792D
S31508001BE074686F726E746F6E2F53696D706C69636B
S31508001BF069747953747564696F2F53444B732F73E3
S31508001C00696D706C69636974795F73646B2F706C46
S31508001C106174666F726D2F736572766963652F637B
S31508001C206C6F636B5F6D616E616765722F7372634C
S31508001C302F736C5F636C6F636B5F6D616E61676555
S31508001C40725F68616C5F73322E6300001E000000CD
S31508001C5000800A50130000004C1C00082F557365BD
S31508001C6072732F7A61636861727974686F726E74C1
S31508001C706F6E2F53696D706C6963697479537475E7
S31508001C8064696F2F53444B732F73696D706C696366
S31508001C906974795F73646B2F706C6174666F726DAB
S31508001CA02F736572766963652F696E7465727275CE
S31508001CB070745F6D616E616765722F7372632F73DF
S31508001CC06C5F696E746572727570745F6D616E6152
S31508001CD06765725F636F727465786D2E63002F5542
S31508001CE0736572732F7A61636861727974686F724B
S31508001CF06E746F6E2F53696D706C6963697479536E
S31508001D00747564696F2F53444B732F73696D706CC8
S31508001D1069636974795F73646B2F706C6174666F3D
S31508001D20726D2F736572766963652F736C6565705E
S31508001D3074696D65722F7372632F736C5F736C654C
S31108001D40657074696D65722E6300000002
S30D08001D4CB4E4FF7F010000006A
S31108001D54601D00089C110020070000001C
S31508001D60C0EA2101C0EA210100800000C017530221
S31108001D7001000000DD010008B5010008B4
S705080002E907
