S00A0000494D552E733337FF
S315080000000010002025140008FD450008FD450008DD
S31508000010FD450008FD450008FD450008FD450008AA
S31508000020FD450008FD450008FD450008FD4500089A
S31508000030FD450008FD450008FD450008FD4500088A
S31508000040FD450008FD450008FD450008FD4500087A
S31508000050FD450008FD450008FD450008FD4500086A
S31508000060FD450008FD450008FD450008FD4500085A
S31508000070FD450008FD450008FD450008FD4500084A
S31508000080FD450008FD450008FD450008FD4500083A
S31508000090FD450008FD450008FD450008FD4500082A
S315080000A0FD4500087115000851150008FD450008B2
S315080000B0FD450008FD450008FD450008FD4500080A
S315080000C0FD450008FD450008FD450008FD450008FA
S315080000D0FD450008FD450008FD450008FD450008EA
S315080000E0FD450008FD450008FD450008FD450008DA
S315080000F0FD450008FD450008FD450008FD450008CA
S31508000100FD450008FD450008FD450008FD450008B9
S31508000110FD450008FD450008FD450008FD450008A9
S31508000120FD450008FD450008FD450008FD45000899
S31508000130FD450008FD450008FD450008FD45000889
S31508000140FD450008FD450008FD4500088D580008D6
S31508000150FD450008FD450008FD450008FD45000869
S31508000160FD450008FD450008FD450008FD45000859
S315080001702DE9F0479CB00446B0F9020002F0F2F807
S315080001804FF01012544B03F0EDFE02F055F982467B
S31508000190B4F9040002F0E6F84FF010124E4B03F0E3
S315080001A0E1FE02F049F98146B4F9060002F0DAF8F0
S315080001B047A3D3E9002303F0D5FE02F03DF98046B4
S315080001C0B4F9080002F0CEF841A3D3E9002303F0FE
S315080001D0C9FE02F031F90746B4F90A0002F0C2F87E
S315080001E03BA3D3E9002303F0BDFE02F025F906463A
S315080001F0B4F9000002F0B6F8374B4FF0101203F0CE
S31508000200B1FE02F019F902F0BFF8344DCDE900014C
S315080002102A46642103A802F061FE314804F07AF9FF
S3150800022003A804F077F9504602F0AEF82A46CDE95D
S315080002300001642103A802F051FE2A4804F06AF975
S3150800024003A804F067F9484602F09EF82A46CDE965
S315080002500001642103A802F041FE234804F05AF97C
S3150800026003A804F057F9404602F08EF82A46CDE96D
S315080002700001642103A802F031FE1C4804F04AF983
S3150800028003A804F047F9384602F07EF82A46CDE975
S315080002900001642103A802F021FE154804F03AF98A
S315080002A003A804F037F9304602F06EF82A46CDE97D
S315080002B00001642103A802F011FE0E4804F02AF991
S315080002C003A804F027F91CB0BDE8F087AFF3008057
S315080002D01F401F401F40AF3F1000403FFB5800081B
S315080002E0015900080A590008135900081C59000842
S315080002F026590008305900082DE9F04FC76997B00C
S315080003008346209E08910C92129355EC104B8DED66
S31508000310000B7FB9102002F0DDFF0246CBF81C0067
S3150800032020B9A74BEF21A74803F0F8FBC0E90177EE
S315080003300760C760DBF81C30196859B15A68012391
S31508000340584693404A608B6003F0B2F8DBF81C30DD
S3150800035000221A602B1EB7BF23F000430023012298
S315080003600193A8BF3360019F974BB8BF3260BB4368
S3150800037019D142F20F73129A1360C7F3130323437A
S3150800038000F0DB85219B53B9904B21E0904B0393FA
S315080003900833219A1360039817B0BDE8F08F8B4B8A
S315080003A003930333F5E79DED007B0022002351EC10
S315080003B0170B8DED0A7B04F03DF8804650B10123FA
S315080003C0129A1360219B13B1824B219A1360824BB8
S315080003D00393E0E7C7F30A5614AA15A958469DEDF4
S315080003E00A0B03F0EDFA0290002E76D00B9BA6F2CC
S315080003F0FF36CDF84C80C3F3130343F07F53DDE992
S315080004000A0143F4401319460022744B01F05CFEBE
S3150800041065A3D3E9002303F0A5FD65A3D3E900236B
S3150800042001F054FE04460D46304601F09BFF62A3D8
S31508000430D3E9002303F096FD02460B4620462946DB
S3150800044001F044FE04460D4604F03CF80022074637
S3150800045000232046294603F0F7FF40B1384601F04D
S3150800046081FF22462B4603F0E5FF00B9013F162F10
S3150800047052D85B4B03EBC703DDE90A01D3E9002336
S3150800048003F0E2FF002849D0013F00231193149B93
S315080004909B1B5A1E4CBFC3F101030023079245BF9D
S315080004A00693002306930793002F39DB079B1097C3
S315080004B03B44079300230993089B092B66D8052B11
S315080004C0C5BF043B002401240893089B023B032B69
S315080004D067D8DFE803F02D3A3859DDE914631E447E
S315080004E006F23243202BC9BFC3F14003C3F12003F0
S315080004F09F4006F21243D8BF04FA03F006F1FF360E
S31508000500C4BF24FA03F347EA030001F01BFF0122E4
S31508000510A1F1F873139276E70123B7E71190B6E7CE
S31508000520069BDB1B06937B42099300231093C3E7C4
S3150800053000230D930C9B002B56DC012399461A4683
S3150800054004930C920CE00123F3E700230D930C9B14
S31508000550FB1803F1010904934B46012BB8BF01238D
S31508000560DBF81C000021042202F114059D423FD944
S315080005704160584602F05CFF039000283BD1194BB6
S31508000580024640F2AF11CEE60123DFE7012400233D
S315080005900D9408934FF0FF330022994604931223D3
S315080005A0CFE701230D93F5E761436F63A787D23F32
S315080005B0B3C8608B288AC63FFB799F501344D33F44
S315080005C0835D00089A5D00080000F07F7F5D0008E3
S315080005D0765D0008535D0008525D00080000F83F8C
S315080005E0B85E0008FB5D00080C9B99460493B7E7C4
S315080005F001315200B8E7DBF81C30B9F10E0F039A47
S315080006001A606FD8002C6DD0002F36DD07F00F0268
S31508000610A04BF8054FEA271403EBC20393ED007BC2
S315080006208DED0E7B17D59C4B04F00F044FF0030895
S31508000630D3E90823DDE90A0103F0BEFDCDE900018F
S31508000640954D5CB9DDE90E23DDE9000103F0B4FD43
S31508000650CDE900012BE04FF00208F1E7E10709D5E3
S3150800066008F10108DDE90E01D5E9002303F07AFC5B
S31508000670CDE90E0164100835E3E700F007817C42F6
S31508000680844B854D4FF0020804F00F02241103EB4A
S31508000690C203DDE90A01D3E9002303F063FC002362
S315080006A0CDE90001002C40F0E580002BD0D1119B4C
S315080006B0DDE90045002B00F04C810022774B2046EF
S315080006C0294603F0C1FE002800F04381B9F1000F66
S315080006D000F03F81049B002B00F3E480DDE90A3437
S315080006E0CDE90034159B002B02DB0E2F40F3428226
S315080006F00D9A002A40F06782099C0025DDF81880CB
S31508000700B8F1000F0DD0079B002B0ADD4345069A6A
S31508000710A8BF4346D21AA8EB03080692079AD31A2B
S315080007200793099B0BB30D9B002B00F0A682002CA8
S3150800073000F0A18229462246584602F0E3FF029AB3
S3150800074001460546584602F033FF029906465846C2
S3150800075002F0AEFE099B1B1B099300F09182099AD1
S315080007603146584602F0CEFF02900121584602F063
S3150800077009FF109B0446002B00F084821A460146A6
S31508000780584602F0BFFF089B0446012B03DC009B7A
S31508000790002B00F07C820026236904EB830318698A
S315080007A004F042FAC0F120001096079B184410F096
S315080007B01F0000F09182C0F12003042B40F38182D0
S315080007C0C0F11C00069B034480440693079B034420
S315080007D00793069B002B05DD1A460299584602F038
S315080007E0EBFF0290079B002B05DD21461A4658466B
S315080007F002F0E2FF0446119B002B00F076822146A8
S31508000800029804F060FA002880F26F8200230A2218
S315080008100299584602F06EFE0D9B7E1E0290002B32
S3150800082000F05C82002329460A22584602F062FE3E
S31508000830049B0546002B03DC089B022B00F35E8213
S31508000840B8F1000F05DD29464246584602F0B4FFC6
S315080008500546109B002B00F0D0826968584602F0C6
S31508000860E7FD0746002840F07F820D4B024640F21E
S31508000870EF2158E5E20706D508F10108D5E9002376
S3150800088003F070FB0123641008350BE74FF00208EC
S315080008900DE700BFB85E0008905E00080000F03F54
S315080008A0FB5D000820460022AC4B294603F05AFBA4
S315080008B07E1E08F10108049CCDE90001404601F0BE
S315080008C051FDDDE9002303F04DFBA54B002201F0A5
S315080008D0FDFBA1F15073CDE90E010F93002C3BD11E
S315080008E00022A04BDDE9000101F0EEFB02460B46B3
S315080008F0CDE90023DDE90E2303F0C4FD002840F00E
S315080009005781DDE90E2101F10043DDE9000103F01D
S315080009109BFD00283FF4E2AE002425460C9BDDF83B
S315080009200CA0DE434FF000082146584602F0C0FDF1
S31508000930002D00F0A980B8F1000F05D0A84503D016
S315080009404146584602F0B4FD2946584602F0B0FD25
S315080009509AE03E464C46B1E7834B03EBC40353E9A2
S315080009600201039B1C440D9B002B4AD002460B46F2
S3150800097000207E4903F020FCDDE90E2301F0A4FBEC
S31508000980DDF80CA0CDE90E01DDE9000103F09AFDC2
S31508000990054601F0E7FC024630350B46DDE9000165
S315080009A001F092FB0AF8015B02460B46CDE900010D
S315080009B0DDE90E0103F066FD002865D100206C49CB
S315080009C0DDE9002301F080FB02460B46DDE90E0156
S315080009D003F058FD002840F00D81A24500F0EA809A
S315080009E000225E4BDDE90E0103F0BCFA00225B4BE8
S315080009F0CDE90E01DDE9000103F0B4FACDE9000105
S31508000A00C2E7DDE90E2303F0ADFAA046DDF80CA037
S31508000A10CDE90E01DDE9000103F054FD054601F0BC
S31508000A20A1FC024630350B46DDE9000101F04CFB1E
S31508000A300AF8015B02460B46A245CDE900234FF0B2
S31508000A40000223D1494BDDE90E0101F03FFB0246C6
S31508000A500B46DDE9000103F015FD002840F0CA80C9
S31508000A6000204249DDE90E2301F02EFB02460B4623
S31508000A70DDE9000103F0E8FC70B1C24608F1FF3871
S31508000A801AF8013C302BF8D0374655E0334B03F0C3
S31508000A9069FACDE90001BDE7DDE90A34CDE900349C
S31508000AA0159B002BFFF628AE0E2F3FF725AE2E4BD3
S31508000AB003EBC70393ED007B0C9B002B8DED047BAA
S31508000AC002DAB9F1000F64D0DDF80CA0DDE90045C3
S31508000AD0DDE904232046294603F06EFB03F0F2FC09
S31508000AE0064601F03FFCDDE9042303F03BFA024623
S31508000AF0204606F130040B46294601F0E5FA0AF8C5
S31508000B00014B039C02460B46AAEB0404A14540F0A0
S31508000B10828001F0DBFA04460D46DDE9042303F082
S31508000B20B1FC002865D120462946DDE9042303F0F7
S31508000B3081FC08B1F3075CD40299584602F0B8FC68
S31508000B40002301378AF80030129B1F60219B002B77
S31508000B503FF421ACC3F800A01DE400BF0000244008
S31508000B6000001C4000001440B85E00080000E03F8A
S31508000B700000F03FA24B03EBC70393ED007B0C9BF1
S31508000B80002B8DED047B9FDAB9F1000F9CDC7FF416
S31508000B90C3AE00229B4BDDE9040103F0E3F9DDE96E
S31508000BA0002303F065FC044600287FF4B5AE3E46F4
S31508000BB02546B4E0DDE90A34CDE90034159B002B5F
S31508000BC001DB0E2FD6DD089A012A36DC139A82B38A
S31508000BD003F23343099CDDF81880069A012158462A
S31508000BE01A440692079A1A44079202F0CBFC054665
S31508000BF086E53E4653469A4613F8012D392A06D10C
S31508000C00039A9A42F7D13022039901360A701A7864
S31508000C1001321A7038E700227B4B03F0A3F9002251
S31508000C20002304460D4603F005FC00283FF450AFA8
S31508000C3082E7149BC3F13603CCE709F1FF34099B1D
S31508000C40A34208DBB9F1000FA3EB04040EDBDDF8C1
S31508000C5018804B46C1E7099B109AE31A0994DDF8F8
S31508000C60188000241A444B461092B6E7069BA3EB5D
S31508000C7009080023B1E7029E71E5099A029970E511
S31508000C80029672E5089B012B17DC009BABB9019B0A
S31508000C90C3F313039BB9019B23F00046360D3605B3
S31508000CA036B1069B012601330693079B013307934A
S31508000CB0109B002B7FF470AD1096012075E5002679
S31508000CC0F6E73FF486AD1C33069A1A449844069212
S31508000CD0079A1A4407927CE50346F4E7049B002B1F
S31508000CE02BDC089B022B09DC27E0B9F1000F1DDC81
S31508000CF0089B022B1ADD3E46CDF81090049B002B6C
S31508000D007FF40CAE21460522584602F0F3FB014655
S31508000D100446029803F0D7FF00287FF7FFADDDF8F9
S31508000D200CA0312301360AF8013BFBE50D9B3E4634
S31508000D30CDF81090002B7FF483AD039F21460298CF
S31508000D4003F0DFFD039B00F13009049A07F8019BC5
S31508000D50FB1A9A4240F3CB8000230A22029958468E
S31508000D6002F0C8FB0290E9E72A6905F10C010C308C
S31508000D700232920004F04DF801223946584602F034
S31508000D801BFD039BA846054603F1010ADDE903237B
S31508000D9013440793009B03F0010309930AF1FF33F9
S31508000DA021460298049303F0ACFD4146069000F1F3
S31508000DB03009029803F087FF2A4621460746584617
S31508000DC002F066FDC268014602B3584602F070FB9F
S31508000DD0002F3ADA01220299584602F0EDFC214624
S31508000DE0029003F070FF002803DC29D119F0010FE7
S31508000DF026D0B9F1390F1DD132E02846C1E700BF28
S31508000E00B85E000800001440000024400A900298CA
S31508000E1003F059FF0A990C90584602F049FB0C9AC0
S31508000E205ABB089B53B9099B43B9B9F1390F17D077
S31508000E30002F05DD069B03F1310901E0002F2ADAB0
S31508000E40DDF810A00AF8019B6EE5089B3B4304D128
S31508000E50009B03F00103002BBCD0B9F1390F36D142
S31508000E60049F392307F8013BBA46013F1AF8013CAB
S31508000E70392B5AD001333B7056E5002F06DB089B09
S31508000E803B4306D1009B03F0010313B9002AA1DCFA
S31508000E90D6E7002AE1DC079B57460AF8019C53452A
S31508000EA02ED000230A220299584602F023FBA845B1
S31508000EB002904FF000034FF00A02414658460BD104
S31508000EC002F018FB804605460AF1010A66E7DDF8D6
S31508000ED010A009F10109B5E702F00CFB2946804686
S31508000EE000230A22584602F005FB0546ECE7049B58
S31508000EF04FF00008002BCCBF1F460127039B1F4459
S31508000F0001220299584602F057FC2146029003F046
S31508000F10DAFE0028A8DC02D119F0010FA4D1BA46DE
S31508000F2017F8013D302BFAD0FEE4039BBB429BD158
S31508000F303123039A01361370F6E4219B002B7FF4C4
S31508000F4025AA014BFFF744BA765D00080348044B0F
S31508000F50834202D0034B03B118477047CC140020D4
S31508000F60CC14002000000000064B0749C91A891056
S31508000F7048BF0131491003D0044B0BB1014818474B
S31508000F80704700BFCC140020CC14002000000000DD
S31508000F9010B5064C237843B9FFF7D8FF044B13B1B5
S31508000FA00448AFF300800123237010BDDC12002033
S31508000FB000000000C860000808B5054B1BB10549CC
S31508000FC00548AFF30080BDE80840FFF7CDBF00BF76
S31508000FD00000000000100020C8600008A3F5803A51
S31508000FE0704700BF174B002B08BF134B9D46FFF7F2
S31508000FF0F5FF00218B460F461348144A121A03F0D0
S315080010005FFC0E4B002B00D098470D4B002B00D0F1
S3150800101098470020002104000D000D48002802D042
S315080010200C48AFF3008002F035F82000290000F0E4
S315080010309DF901F0E1FB00BF000008000000000078
S31508001040000000000010002000100020E41200201C
S31508001050000000000000000038B5294D04466B6EFC
S3150800106043F0806343F400736B66264B5A6B5A63EE
S315080010705A6B42F0A0725A63012203F504335A6090
S3150800108041F20502A3F58053DA6018B92F211E48EC
S3150800109003F0C2FA2A6F2B6FC2F303321B4D0132DB
S315080010A0B5FBF2F5C3F380230133B5FBF3F5B4EBD7
S315080010B0151F03D93921144803F0AEFA2401630831
S315080010C003EB4513B3FBF4F3114A203B02EAC302D0
S315080010D0104B996821F06001996099689960DA6106
S315080010E005225A614FF4A022A3F50033C3F8382726
S315080010F04FF4C022C3F830271422C3F8202738BD7E
S315080011000080005000C00350D8580008002D310157
S31508001110F8FF7F0000C00550024B9A695206FCD5BD
S31508001120D863704700C005504FF08062514B5A662D
S315080011304FF400029A6603F54C33D3F8942022F450
S315080011407042C3F89420D3F8942042F48042C3F83E
S315080011509420D3F8A02022F00802C3F8A020D3F8E0
S31508001160942022F47062C3F89420D3F8942042F4B1
S315080011708072C3F89420D3F8A02022F00402C3F8A2
S31508001180A020D3F8942022F0F002C3F89420D3F8D4
S31508001190942042F04002C3F89420D3F8A02022F00D
S315080011A00202C3F8A0205A6B22F070425A635A6BA7
S315080011B042F080425A631A6C42F080021A6403F5C0
S315080011C0C8235A6DC2F30B02002AFAD119691A61AB
S315080011D0196941F021011961D968DA6099689A603C
S315080011E0996841F4806141F001019960596A5A622F
S315080011F05A6A42F480225A621A6942F098521A616F
S3150800120001221D4B5A60A3F580535A6DC2F30B0297
S31508001210002AFAD19A6B42F00F029A635A6D12F0BD
S31508001220780FFBD1154B9A6C02F00302032AFAD108
S315080012305A6D12F0280FFBD19A6B42F003029A639B
S315080012400E4A536D13F0280FFBD1936CDB4313F44E
S31508001250405FFAD10A4B0B4AC3F8CC244FF002126E
S31508001260C3F8C424A2F58032C3F8C8241C22C3F8E4
S31508001270B42470470090005000100A5000000A502D
S3150800128000C0035002000300024A136C23F08003D7
S315080012901364704700C00350024A136C43F080037E
S315080012A01364704700C00350054B9A6C5106FCD571
S315080012B058649A6C1206FCD5D86BC0B2704700BF4A
S315080012C000000A5010B54FF08062264B01215A667D
S315080012D003F54C33D3F89C206B2022F0F002C3F8B8
S315080012E09C20D3F89C20204C42F04002C3F89C2056
S315080012F0D3F8A02042F40072C3F8A02003F03BF90B
S3150800130080216B2003F037F9642000F087FE012165
S315080013106B2003F030F9752003F00AF9982819D1E3
S3150800132000216C2003F027F918211C2003F023F96B
S3150800133018211B2003F01FF908211D2003F01BF9B3
S3150800134000211A2003F017F9BDE8104000211920E2
S3150800135003F011B9204603F0DDF842F2107000F0F0
S315080013605DFED8E700900050E55800081FB500F06C
S315080013701BFE4FF4E130FFF76FFEFFF7D5FEFFF7D0
S31508001380A1FF642000F04AFE1B4803F0C3F80023BF
S3150800139004221846114600F00BFD184D184C194E3C
S315080013A0752003F0C5F898280CD0752003F0C0F80E
S315080013B09828F5D0284603F0ADF842F2107000F0F0
S315080013C02DFEF2E701A803F0E5F80DF10A0003F097
S315080013D0FBF8236C01A823F010032364FEF7C8FE6C
S315080013E0304603F097F8236C642043F01003236417
S315080013F000F014FED4E700BF3A5900084B5900081C
S3150800140000C00350F85800080348044A0449121A51
S31508001410921003F0F4B800BF7001000870010008CC
S31508001420E412002008B5154B83F30A8800F030F85B
S31508001430FFF7EAFF124B13498B4212D30020124BD7
S3150800144012498B4218D3FFF7CDFD186850F8224091
S31508001450586840F82240013298688242F5D30C3326
S31508001460EAE70022F8E71C6844F8220001325C68C3
S31508001470A242F8D30833E4E70022F8E70000002088
S31508001480D0600008DC600008DC600008DC6000084A
S3150800149070B54FF48041124B124A134D9A60D3F837
S315080014A0882005F5005442F47002C3F888200F4AD4
S315080014B091664FF0FF3222660D4A62660222C3F831
S315080014C0D020BFF34F8FBFF36F8F4FF44036002005
S315080014D000F04CFD0020E66000F02EFD2E6170BD88
S315080014E000ED00E000000008008000440090005075
S315080014F0F7FF37002DE9F0410C2504464FF00108A7
S31508001500124E0CB314F001000BD0002024F0010495
S3150800151005FB00625768002FF3D09168C0B2B84740
S31508001520EFE72246013020284FEA520201D0D307BE
S31508001530F8D508FA00F20F2824EA0204E8D9103888
S3150800154005FB0062B432E5E7BDE8F081181000201B
S3150800155008B500F077FC054B00F0553020F0502018
S31508001560C3F82004BDE80840FFF7C4BF00E00350F5
S3150800157008B500F067FC054B00F0AA3020F0A02063
S31508001580C3F82004BDE80840FFF7B4BF00E00350E5
S3150800159038B5104B0546D3F800310C4603F0030363
S315080015A0022B0BD0032B0DD0012B0FD103F0AEFD70
S315080015B0032305B1286004B1236038BD03F0F8FDA4
S315080015C00923F6E703F0A8FD0823F2E70123002024
S315080015D0EFE700BF0080005038B5104B0546D3F83A
S315080015E040310C4603F00303022B0BD0032B0DD01E
S315080015F0012B0FD104F092F80A2305B1286004B133
S31508001600236038BD03F0D4FD0923F6E704F089F812
S315080016100C23F2E701230020EFE700BF008000500B
S3150800162038B5104B0546D3F860310C4603F0030372
S31508001630022B0BD0032B0DD0012B0FD104F06EF823
S315080016400A2305B1286004B1236038BD03F0B0FD54
S315080016500923F6E704F065F80C23F2E701230020D6
S31508001660EFE700BF0080005038B5104B0546D3F8A9
S3150800167040320C4603F00303022B0BD0032B0DD08C
S31508001680012B0FD104F04AF80A2305B1286004B1EA
S31508001690236038BD03F08CFD0923F6E704F041F812
S315080016A00C23F2E701230020EFE700BF008000507B
S315080016B038B5124B0546D3F880300C4603F00303C1
S315080016C0022B0BD0032B0DD0012B0FD103F0E8FC16
S315080016D00E2305B1286004B1236038BD03F020FD50
S315080016E00723F6E703F0D6FC0623F2E7044841F29F
S315080016F0142102F091FF00231846EAE70080005003
S315080017009459000838B51A4B0546D3F820010C46FB
S3150800171000F00700062821D8DFE800F028040C149A
S3150800172010181C0003F0B6FC052305B1286004B1A7
S31508001730236038BD03F0EAFC0323F6E703F0F0FC68
S315080017400723F2E703F0DEFC0223EEE703F0A2FC30
S315080017500623EAE703F0DAFC0423E6E7054841F244
S31508001760912102F059FF00231846DEE70123DCE742
S31508001770008000509459000838B5194B0546D3F82F
S3150800178028310C4603F00703013B052B20D8DFE878
S3150800179003F003131B0F0B1703F07CFC052305B19D
S315080017A0286004B1236038BD03F074FC0623F6E70D
S315080017B003F0B6FC0723F2E703F0A8FC0323EEE7E1
S315080017C003F0A4FC0423EAE703F09CFC0223E6E703
S315080017D0044841F2990102F01FFF00231846DEE78C
S315080017E0008000509459000837B500230193194B1F
S315080017F00546D3F820320C4603F00703042B1FD8FE
S31508001800DFE803F025030F141900002101A8FFF7EC
S31508001810B3FF12230DB1019A2A6004B1236003B005
S3150800182030BD03F07DFC07230190F3E703F076FF54
S315080018300A230190EEE703F0BBFC09230190E9E7D0
S3150800184041F25601044802F0E7FE0023E2E70123CD
S31508001850E0E700BF0080005094590008F7B500275C
S31508001860144B0197D3F88041064604F00304022C72
S315080018700D4614D0032C0DD0012C14D1394601A8DD
S31508001880FFF740FF10240EB1019B336005B12C60B1
S3150800189003B0F0BD03F044FC07240190F3E703F01E
S315080018A031FC0190EFE741F2E631034802F0B4FE5D
S315080018B03C46E8E7008000509459000838B5164BB6
S315080018C00546D3F800020C4600F00700042819D88C
S315080018D0DFE800F020030B0F130003F01FFF0A23B5
S315080018E005B1286004B1236038BD03F061FC092303
S315080018F0F6E703F016FF0C23F2E703F0F1FB0F23DC
S31508001900800AEDE7054841F2A44102F085FE00236E
S315080019101846E5E70123E3E70080005094590008DC
S3150800192038B5164B0546D3F808020C4600F00700F2
S31508001930042819D8DFE800F020030B0F130003F082
S31508001940EDFE0A2305B1286004B1236038BD03F013
S315080019502FFC0923F6E703F0E4FE0C23F2E703F075
S31508001960BFFB0F23800AEDE7054841F2DC4102F090
S3150800197053FE00231846E5E70123E3E700800050FD
S315080019809459000837B500230193184B0546D3F838
S3150800199060320C4603F00703013B032B1FD8DFE830
S315080019A003F0020E1914002101A8FFF7ABFE10235D
S315080019B00DB1019A2A6004B1236003B030BD00213D
S315080019C001A8FFF709FE1123F2E703F0A9FB072395
S315080019D00190EDE703F096FB02230190E8E741F258
S315080019E0FD01034802F018FE0023E1E700800050DD
S315080019F09459000837B500230193184B0546D3F8C8
S31508001A0094320C4603F00703013B032B1FD8DFE88B
S31508001A1003F0020E1914002101A8FFF773FE102324
S31508001A200DB1019A2A6004B1236003B030BD0021CC
S31508001A3001A8FFF7D1FD1123F2E703F071FB072395
S31508001A400190EDE703F05EFB02230190E8E741F21F
S31508001A503011034802F0E0FD0023E1E70080005062
S31508001A609459000873B500240F4B0194D3F87032CB
S31508001A70064603F00303012B0D4607D0022B11D0AF
S31508001A8041F25B11094802F0C7FD04E0214601A8AE
S31508001A90FFF7A2FD11240EB1019B336005B12C603E
S31508001AA002B070BD1524F6E700800050945900086E
S31508001AB010B5B0F5207F2ED009D8B0F5007F24D018
S31508001AC003D868B1B0F5C07F0AD000241BE0B0F592
S31508001AD0607FFAD1124BD3F88040C4F3011412E0A8
S31508001AE00F4B1C6F230B13F00E0FC4F303340AD0ED
S31508001AF0072C08D00F2C06D0032C04D04FF42271E3
S31508001B00084802F089FD601C10BD054BD3F89040CB
S31508001B10C4F30464F7E7024B1C6FC4F38024F2E7AE
S31508001B20008000509459000830B585B00021B0F502
S31508001B30807F0446CDE9001100F0D3803DD85E28A9
S31508001B4033D85E2833D8DFE800F0483232323232F2
S31508001B503232323232323232323232323232323257
S31508001B603232323232323232323248AD48ADBDBD0F
S31508001B70BDBDBDADC7516EDD51ADADAD32323232F0
S31508001B8032323232ADADAD81E7AD32323232323237
S31508001B9032323232323232BD484848E25151EC9044
S31508001BA066C2323232323298480080286AD040F211
S31508001BB0A441604802F030FD67E0B0F5D06F00F050
S31508001BC0A18035D8B0F5607F77D01AD8B0F5007FF8
S31508001BD05ED005D8B0F5C07FE9D103F081FA53E0AD
S31508001BE0B0F5207F5ED0B0F5407FE0D103F078FAFB
S31508001BF004464FF42070FFF75BFFB4FBF0F464086B
S31508001C0059E0B0F5B06F67D00AD8B0F5806F59D0F3
S31508001C10B0F5A06FCBD100216846FFF7E5FD34E0AB
S31508001C20B0F5C06FC3D100216846FFF7D5FC2CE09C
S31508001C30B0F5106F6BD00ED8B0F5086F76D0B6D861
S31508001C40B0F5E06F68D0B0F5F06FB0D10021684606
S31508001C50FFF7E6FC19E0B0F5406F38D00AD8B0F5C2
S31508001C60206F5ED0B0F5286FA1D100216846FFF736
S31508001C70F9FE0AE0B0F5486F99D100216846FFF7EA
S31508001C80B9FE02E003F00CFA0090009805B030BDEA
S31508001C9003F006FA05462046FFF70AFFB5FBF0F5FE
S31508001CA00095F2E703F01CFA04464FF42070FFF79C
S31508001CB0FFFEB4FBF0F40094E7E701A8FFF7F8FC91
S31508001CC0019DE8E700216846FFF71CFDDDE70021D6
S31508001CD06846FFF751FDD8E700216846FFF7BEFDC5
S31508001CE0D3E74FF0E02302911B695B0705D503F0A4
S31508001CF0F7F90290029B0093C7E703A902A8FFF72A
S31508001D006BFCF7E700216846FFF7D8FDBDE7002121
S31508001D106846FFF705FEB8E700216846FFF7A4FC0A
S31508001D20B3E700216846FFF72DFEAEE76846FFF7E2
S31508001D302FFCAAE79459000838B5032804460D462F
S31508001D4005D8094B33F81030CB40DB0704D440F2F2
S31508001D508541064802F060FC302301225C43044BAF
S31508001D60AA401A5138BD00BFA05A0008EC5900080D
S31508001D7040D0035038B5032804460D4605D8094B0C
S31508001D8033F81030CB40DB0704D440F256410648FE
S31508001D9002F042FC302301225C43044BAA401A514C
S31508001DA038BD00BFA05A0008EC59000840E00350AF
S31508001DB02DE9F041032804460D461746984605D8EE
S31508001DC01D4B33F81030CB40DB0704D44FF4B07109
S31508001DD01A4802F021FC37B129462046B8F1000F0F
S31508001DE020D0FFF7A9FF0F21072D04EB440688BF73
S31508001DF0A5F108034FEA0616114895BFAB009B00EC
S31508001E0004360C3607FA03F29940304402F018FCFF
S31508001E107FB929462046B8F1000F06D0BDE8F04143
S31508001E20FFF78ABFFFF7A6FFDDE7BDE8F041FFF73A
S31508001E30A1BFBDE8F08100BFA05A0008465A0008B5
S31508001E4030C00350034BD3F82424D3F820041040A1
S31508001E50704700BF00C00350054B9A689107FCD431
S31508001E605A689207F9D4DA69002AF6D1704700BF92
S31508001E7000800A5010B5074C6368DB0704D44FF49A
S31508001E809F71054802F0C8FB03F098F90223236105
S31508001E9010BD00BF00800A50A85A000808B5FFF711
S31508001EA0DBFF0122024B03F580514A601A6108BD27
S31508001EB000800A5010B5044B5C68012C03D1FFF76B
S31508001EC0D9FF024B5C6010BD00800A5000A00A5082
S31508001ED038B5074DFFF7C0FF6B680446012B03D1E1
S31508001EE0FFF7E8FFFFF7B8FF2378EB6038BD00BFC0
S31508001EF000800A5038B505460C4603F069F9BDB9A5
S31508001F006268237812B1127843EAC203627843EA18
S31508001F104203A26812B1127843EA8213E27843EACE
S31508001F208203226912B1127843EA4223014A936472
S31508001F3038BD00BF00800A5010B54C28044608D8A2
S31508001F4001236109074A04F01F04A34042F821301F
S31508001F5010BD4FF49871044802F05EFB002CF7DBC5
S31508001F60EEE700BF00E100E0545C0008002808DB4B
S31508001F7001224309034900F01F008240603341F8FB
S31508001F802320704700E100E00346054A054910682A
S31508001F9003448B428CBF4FF0FF301360704700BF7D
S31508001FA0F41200200000042070B503F0CBFB144E99
S31508001FB005463478FCB9134B1C60134B1C60134B55
S31508001FC01C6000F047F8012003F057FC03F048FBBB
S31508001FD00F4B0246186020B9284603F0AEFB2320B3
S31508001FE070BD234640F2E7310A4800F075FA0A4BFD
S31508001FF0186001233370284603F09FFB0020EFE7A3
S31508002000DF12002088110020841100209011002082
S315080020108C11002018FCFFFF8011002000B58DB040
S3150800202001238DF80F3003F05DFA00230146CDE950
S315080020300033074A0DF10F0304A803F0F6FB18B99D
S315080020409DF80F30002BFBD10DB05DF804FB00BFE7
S315080020502558000810B586B000241422214601A888
S315080020608DF8004002F02CFC012313488DF804304B
S3150800207003F073FBBFF34F8F6846FFF729FF20462F
S3150800208001A98DF80440FFF735FF20460F2103F01C
S31508002090BFF80F21204603F0C9F8FFF7FFFE03F04B
S315080020A08DF8064B43209C61FFF760FF4320FFF73E
S315080020B043FF06B010BD00BF445C000800800A500C
S315080020C081F0004102E000BF83F0004330B54FEADB
S315080020D041044FEA430594EA050F08BF90EA020F48
S315080020E01FBF54EA000C55EA020C7FEA645C7FEADB
S315080020F0655C00F0E2804FEA5454D4EB5555B8BFFE
S315080021006D420CDD2C4480EA020281EA030382EA6E
S31508002110000083EA010180EA020281EA0303362D00
S3150800212088BF30BD11F0004F4FEA01314FF4801CD3
S315080021304CEA113102D0404261EB410113F0004FE5
S315080021404FEA03334CEA133302D0524263EB43039C
S3150800215094EA050F00F0A780A4F10104D5F1200E3A
S315080021600DDB02FA0EFC22FA05F2801841F1000195
S3150800217003FA0EF2801843FA05F359410EE0A5F169
S3150800218020050EF1200E012A03FA0EFC28BF4CF09A
S31508002190020C43FA05F3C01851EBE37101F0004550
S315080021A007D54FF0000EDCF1000C7EEB00006EEB5D
S315080021B00101B1F5801F1BD3B1F5001F0CD34908E7
S315080021C05FEA30004FEA3C0C04F101044FEA44523E
S315080021D012F5800F80F09A80BCF1004F08BF5FEAC5
S315080021E0500C50F1000041EB045141EA050130BDA5
S315080021F05FEA4C0C404141EB0101013C28BFB1F5B7
S31508002200801FE9D291F0000F04BF01460020B1FA01
S3150800221081F308BF2033A3F10B03B3F120020CDAD4
S315080022200C3208DD02F1140CC2F10C0201FA0CF0B2
S3150800223021FA02F10CE002F11402D8BFC2F1200C17
S3150800224001FA02F120FA0CFCDCBF41EA0C019040CD
S31508002250E41AA2BF01EB0451294330BD6FEA040416
S315080022601F3C1CDA0C340EDC04F11404C4F1200201
S3150800227020FA04F001FA02F340EA030021FA04F313
S3150800228045EA030130BDC4F10C04C4F1200220FA6A
S3150800229002F001FA04F340EA0300294630BD21FAA8
S315080022A004F0294630BD94F0000F83F4801306BF6E
S315080022B081F480110134013D4EE77FEA645C18BF62
S315080022C07FEA655C29D094EA050F08BF90EA020FF9
S315080022D005D054EA000C04BF1946104630BD91EAF1
S315080022E0030F1EBF0021002030BD5FEA545C05D1F4
S315080022F04000494128BF41F0004130BD14F5800433
S315080023003CBF01F5801130BD01F0004545F0FE41A6
S3150800231041F470014FF0000030BD7FEA645C1ABFDB
S31508002320194610467FEA655C1CBF0B46024650EA12
S31508002330013406BF52EA033591EA030F41F400213E
S3150800234030BD00BF90F0000F04BF0021704730B5C4
S315080023504FF4806404F132044FF000054FF0000199
S3150800236050E700BF90F0000F04BF0021704730B55A
S315080023704FF4806404F1320410F0004548BF40422F
S315080023804FF000013EE700BF42004FEAE2014FEA84
S3150800239031014FEA02701FBF12F07F4393F07F4F5F
S315080023A081F06051704732F07F4208BF704793F062
S315080023B07F4F04BF41F40021704730B54FF4607475
S315080023C001F0004521F000411CE700BF50EA010278
S315080023D008BF704730B54FF000050AE050EA010221
S315080023E008BF704730B511F0004502D5404261EB91
S315080023F041014FF4806404F132045FEA915C3FF4D2
S31508002400D8AE4FF003025FEADC0C18BF03325FEA6E
S31508002410DC0C18BF033202EBDC02C2F1200300FA1F
S3150800242003FC20FA02F001FA03FE40EA0E0021FA44
S3150800243002F11444BDE600BF4FEA4102B2F1E0439F
S3150800244024BFB3F5001CDCF1FE5C0DD901F0004C8D
S315080024504FEAC0024CEA5070B2F1004F40EB8300DD
S3150800246008BF20F00100704711F0804F21D113F109
S315080024703872BCBF01F00040704741F480114FEA42
S315080024805252C2F11802C2F1200C10FA0CF320FACB
S3150800249002F018BF40F001004FEAC1234FEAD323E8
S315080024A003FA0CFC40EA0C0023FA02F34FEA430352
S315080024B0CCE77FEA625307D150EA01331EBF4FF0DB
S315080024C0FE4040F44000704701F0004040F0FE40F6
S315080024D040F40000704700BF53B94AB9002908BF45
S315080024E000281CBF4FF0FF314FF0FF3000F082B9D3
S315080024F0ADF1080C6DE904CE00F006F8DDF804E04D
S31508002500DDE9022304B070472DE9F04F099D0C461A
S31508002510002B4DD18A420F4684469646B2FA82F37C
S3150800252060D94BB102FA03FEC3F120029F4000FABC
S3150800253003FC20FA02F217434FEA1E461FFA8EF4EE
S315080025404FEA1C42B7FBF6F106FB117701FB04F0D4
S3150800255042EA0742904208D91EEB020201F1FF3710
S3150800256002D2904200F231813946121A1FFA8CFCC7
S31508002570B2FBF6F006FB102200FB04F44CEA024C10
S31508002580644508D91EEB0C0C00F1FF3202D26445F3
S3150800259000F21E81104640EA0140ACEB040C002113
S315080025A025B12CFA03F30022C5E90032BDE8F08F05
S315080025B08B4205D90DB1C5E9000100210846F5E7AA
S315080025C0B3FA83F100294DD1A342C0F0F3809042BB
S315080025D080F0F080064623460846002DE6D0C5E979
S315080025E00063E3E7002B40F0A3808A1A4FEA1E47F0
S315080025F01FFA8EF60121B2FBF7F407FB14204FEA07
S315080026001C4242EA004206FB04F090420FD91EEB38
S31508002610020204F1FF382CBF4FF001094FF0000900
S31508002620904203D9B9F1000F00F0CC804446121A43
S315080026301FFA8CFCB2FBF7F007FB102200FB06F62C
S315080026404CEA024C664508D91EEB0C0C00F1FF3229
S3150800265002D2664500F2B3801046ACEB060C40EA9F
S3150800266004409DE7C1F120068B4004FA01FE22FAD8
S3150800267006F720FA06FCF4408A401F434EEA0C038C
S3150800268000FA01FE4FEA17484FEA13491FFA87FC7A
S31508002690B4FBF8F008FB104449EA044400FB0CF9C3
S315080026A0A1450ED93C1900F1FF3A2CBF4FF0010B9A
S315080026B04FF0000BA14503D9BBF1000F00F08B804A
S315080026C05046A4EB09041FFA83F9B4FBF8F308FB98
S315080026D0134403FB0CFC49EA0444A44506D93C19F7
S315080026E003F1FF3801D2A4457BD8434643EA0040AC
S315080026F0A4EB0C04A0FB02984445CC46434602D3FF
S3150800270006D1CE4504D20138B9EB020C68EB0703B3
S31508002710002D6CD0BEEB0C0264EB030422FA01F325
S3150800272004FA06F6CC4000211E43C5E900643DE7DD
S3150800273002FA03FEC3F1200104FA03F200FA03FCCD
S31508002740CC404FEA1E4720FA01F11FFA8EF6B4FB79
S31508002750F7F00A4307FB1044110C41EA044100FB59
S3150800276006F48C420ED91EEB010100F1FF382CBF8E
S315080027704FF001094FF000098C4202D9B9F1000F58
S315080027802CD04046091B92B2B1FBF7F407FB141193
S3150800279042EA014204FB06F1914207D91EEB020206
S315080027A004F1FF3801D291421ED84446521A44EA2F
S315080027B0004120E7861A64EB030301200DE7F44481
S315080027C002384AE7023C724431E702397244CCE6E1
S315080027D0F4440238DFE602383C4472E702387144B2
S315080027E0D0E7023B3C4481E7023C7244DEE72946D7
S315080027F0DCE600BF704700BF08B5064B044613B1B8
S315080028000021AFF30080044B1B6803B198472046AC
S3150800281001F006FF00000000CC1200202DE9F04F61
S315080028208DB00C4616461F46DDF85880054600F062
S315080028302DFC03681846049302F05BF80023059004
S315080028400A93D8F8003094F818A00733D4F800B0E3
S3150800285023F0070303F10802C8F800204FF0FF32FF
S31508002860D3E9008929F00043CDF8188007939C4BDB
S31508002870DDE90601C4E9128901F00EFE70BB4FF0CE
S31508002880FF32974BDDE9060101F0E8FD30BB002277
S3150800289000234046494601F0D7FD10B12D2384F8A0
S315080028A04330904A904BBAF1470F94BF90469846EA
S315080028B003234FF0000923612BF0040323603346FA
S315080028C00BAA21462846009701F06AFF013040F01E
S315080028D096804FF0FF300DB0BDE8F08F42464B466C
S315080028E04046494601F0D8FD40B14B467F4A002B89
S315080028F0BCBF2D2384F843307D4BD4E763685A1C4C
S3150800290026D1062363604BF48062002328462260A2
S3150800291003930AABCDE901A309AB49EC108B0093ED
S315080029200DF12303616801F09AFEBAF1670F80463C
S31508002930099915D1CB1C3BDB6368994238DC0A9BA5
S31508002940994255DB23682161D80745D54B1C42E0DF
S315080029500AF0DF02472AD6D1002BD4D10123D1E7CA
S31508002960BAF1470F07D1C81C25DB63688B4222DB07
S315080029704FF0670AE3E7BAF1650F1FD801395246E7
S3150800298004F15000099101F0D2FE0A9A8146131803
S31508002990012A236102DC2268D20701D501332361AB
S315080029A09DF82330002B8AD02D2384F8433086E700
S315080029B04FF0650AE2E74FF0450ADFE7BAF1660F1E
S315080029C0BDD1002963680BDD216113B92268D007E0
S315080029D002D501330B4423614FF00009A165DFE7F7
S315080029E013B92268D20701D50233F4E70123F2E7C7
S315080029F00029D4BFC1F1020201221344EBE7236880
S31508002A005A0507D42369424631462846B847013055
S31508002A102BD15EE7BAF1650F40F2DD800022002374
S31508002A20D4E9120101F006FD002833D00123314A0A
S31508002A3031462846B84701303FF44BAFDDE909383F
S31508002A40434502DB2368D8070FD531462846DDE91A
S31508002A500423B84701303FF43CAF4FF0000908F1B2
S31508002A60FF3804F11A0AC84509DC23689B0700F1F8
S31508002A700381E0680B9B9842B8BF18462BE70123F1
S31508002A80524631462846B84701303FF422AF09F18D
S31508002A900109E8E7099B002B39DC0123154A314671
S31508002AA02846B84701303FF414AFDDE9093959EA39
S31508002AB0030302D12368D907D7D531462846DDE96D
S31508002AC00423B84701303FF404AF4FF0000A04F17D
S31508002AD01A0B099B5B4253450EDC4B4693E700BF36
S31508002AE0FFFFEF7F425D0008465D00084A5D00086B
S31508002AF04E5D0008525D000801235A4631462846B5
S31508002B00B84701303FF4E5AE0AF1010AE1E7A36DE3
S31508002B10DDF828A05345A8BF5346002B994636DC56
S31508002B204FF0000B29EAE97904F11A02A36D06931E
S31508002B30A3EB09035B4531DC099B9A453ADC23681C
S31508002B40DA0737D4099BAAEB0309069BAAEB03030A
S31508002B509945A8BF9946B9F1000F33DC4FF0000834
S31508002B6029EAE97904F11A0B099BAAEB0303A3EBFB
S31508002B70090343457FF779AF01235A46314628466C
S31508002B80B84701303FF4A5AE08F10108ECE7424624
S31508002B9031462846B8470130C2D19AE60123314664
S31508002BA028460692B84701303FF493AE0BF1010B65
S31508002BB0069ABBE7DDE9042331462846B8470130C3
S31508002BC0C0D186E6069A4B46314628464244B8475F
S31508002BD00130C3D17DE6DDF828A0BAF1010F01DC8A
S31508002BE0DB0736D50123424631462846B847013029
S31508002BF03FF46FAE31462846DDE90423B847013075
S31508002C003FF467AE002200230AF1FF3AD4E9120125
S31508002C1001F010FCC0B9534608F1010231462846B6
S31508002C20B84701300CD154E601235A4631462846A6
S31508002C30B84701303FF44DAE08F10108D045F3DB43
S31508002C404B4604F15002DFE64FF0000804F11A0B78
S31508002C50F4E701234246E1E701234A46314628467E
S31508002C60B84701303FF435AE08F10108E3680B991F
S31508002C705B1A4345F0DCFCE64FF0000804F119093D
S31508002C80F4E700BF2DE9FF470F7E914680460C46C4
S31508002C90782F9A460C9E01F1430207D8622F0AD86C
S31508002CA0002F00F0DD80582F00F0C38004F14206A3
S31508002CB084F842703AE0A7F16303152BF6D801A110
S31508002CC051F823F01D2D0008312D0008AD2C000801
S31508002CD0AD2C0008AD2C0008AD2C0008312D0008DD
S31508002CE0AD2C0008AD2C0008AD2C0008AD2C000852
S31508002CF0472E0008BF2D0008FF2D0008AD2C000840
S31508002D00AD2C0008692E0008AD2C0008BF2D000860
S31508002D10AD2C0008AD2C0008072E000833681A1DD4
S31508002D201B68326004F1420684F842300123A8E0A9
S31508002D3031682368081D30601E0601D50D6803E05A
S31508002D405D06FBD5B1F90050002D616878DA2D20B3
S31508002D500029A16084F843002DDA6D425D480A23F4
S31508002D601646B5FBF3F103FB1157C75D06F8017D5F
S31508002D702F460D46BB42F4D9082B0BD12368DF0733
S31508002D8008D5236961689942DEBF302306F8013CFD
S31508002D9006F1FF36921B22614B4603AA214640469E
S31508002DA0CDF800A001F0FCFC01306FD14FF0FF30E8
S31508002DB004B0BDE8F08723F004032360CDE721685B
S31508002DC03368080653F8045B02D4490648BFADB217
S31508002DD06F2F33603F4814BF0A230823002184F865
S31508002DE043106668002EA660BADB216821F004014C
S31508002DF02160002DB4D1002EB2D11646BCE7236857
S31508002E0043F02003236078273348236884F8457005
S31508002E101F06316851F8045B02D45F0648BFADB29D
S31508002E203160D90744BF43F0200323601DB1102346
S31508002E30D4E72848E9E7236823F020032360F6E768
S31508002E4024480A23CDE733682568181D6169306070
S31508002E502E061B6801D5196002E06806FBD51980A5
S31508002E6000231646236197E7336800211A1D32604E
S31508002E701E686268304601F02EFD08B1801B60604E
S31508002E8063682361002384F8433085E72369324663
S31508002E9049464046D047013088D023689B0714D45A
S31508002EA0E068039B9842B8BF184681E7012332467B
S31508002EB049464046D04701303FF478AF0135E368CC
S31508002EC003995B1AAB42F1DCEAE7002504F119061F
S31508002ED0F5E700BF545D0008655D00080CB4184BA3
S31508002EE030B50C1E9DB01D6808DA8B234FF0FF30F5
S31508002EF02B601DB0BDE8304002B070474FF4027336
S31508002F000290069002A9ADF8143014BF04F1FF33FD
S31508002F102346209A2846049307934FF6FF73ADF885
S31508002F20163021AB019300F0D9F8431CBCBF8B23A4
S31508002F302B60002CDDD0029B00221A70D9E700BF57
S31508002F4004130020002310B50446836081811946C6
S31508002F504366C28108228361C0E90033C0E90433AD
S31508002F605C3001F0ADFC0D4B246263620C4BA3622E
S31508002F700C4BE3620C4B23630C4B9C4206D003F1CB
S31508002F806802944202D0D0339C4205D104F158001D
S31508002F90BDE8104001F09CBC10BD00BFFD4C000808
S31508002FA01F4D0008574D00087B4D0008941100205E
S31508002FB0024A0349034801F065BC00BFF812002025
S31508002FC0D94B00080813002041680C4B994210B5EC
S31508002FD0044601D001F000FEA168094B994202D0CF
S31508002FE0204601F0F9FDE168064B994204D02046D7
S31508002FF0BDE8104001F0F0BD10BD00BF94110020DF
S31508003000FC1100206412002010B50B4B04210B4C58
S315080030100B4A20461A600022FFF794FF04F1680065
S3150800302001220921FFF78EFF04F1D00002221221A6
S31508003030BDE81040FFF786BFCC120020941100208F
S31508003040B12F0008014801F044BC00BFE11200207E
S31508003050014801F03FBC00BFE112002010B504464C
S31508003060FFF7F0FF236A1BB1BDE81040FFF7F0BF7A
S31508003070044B2362044B1B68002BF5D1FFF7C4FFF2
S31508003080F2E700BFC92F0008CC120020004870479D
S315080030904414002070B50D4D00260D4C641BA41079
S315080030A0A64209D10B4D00260B4C02F009FC641B05
S315080030B0A410A64205D170BD55F8043B01369847C1
S315080030C0EEE755F8043B01369847F2E7C4140020AA
S315080030D0C4140020C4140020C81400202DE9F04FA1
S315080030E098468B899DB007461B060D46144610D593
S315080030F00B6973B9402100F017F92860286130B9C7
S315080031000C233B604FF0FF301DB0BDE8F08F402325
S315080031106B610023CDF80C804FF00109DFF8A08120
S31508003120099320238DF8293030238DF82A30234639
S315080031309A4613F8012B0AB1252AF9D1BAEB040BE2
S315080031400BD05B4622462946384601F067FC01301B
S3150800315000F0A780099A5A4409929AF80030002B81
S3150800316000F09F8000234FF0FF320AF1010A049312
S3150800317007938DF853301A93CDE905235446052253
S315080031804F4814F8011B01F0A6FB049AD8B9D006DB
S3150800319044BF20238DF85330110744BF2B238DF8E5
S315080031A053309AF800302A2B15D0079A5446002037
S315080031B04FF00A0C214611F8013B303B092B4BD93D
S315080031C0B0B1079214E0A0EB0803A24609FA03F38C
S315080031D013430493D2E7039B191D1B68002B039125
S315080031E0BBBF5B4242F0020207930793B8BF049243
S315080031F023782E2B0AD163782A2B32D1039B0234EB
S315080032001A1D1B6843EAE37303920593DFF8C0A00F
S3150800321003222178504601F05EFB38B1A0EB0A0084
S315080032204022049B013482401343049314F8011B83
S31508003230062224488DF8281001F04DFB002836D0C8
S31508003240214B1BBB039B073323F007030833039368
S31508003250099B334409936AE70CFB02320C460120AA
S31508003260A8E7002301344FF00A0C194605932046B7
S3150800327010F8012B303A092A03D9002BC6D005913C
S31508003280C4E70CFB012104460123F0E703AB2A46F9
S3150800329004A9384600930D4BFFF7C0FA421C0646B0
S315080032A0D6D1AB895B063FF52DAF09982CE703AB62
S315080032B02A4604A938460093044BFFF7E3FCEDE7DA
S315080032C00C5E0008165E00081D2800081D4A000846
S315080032D0125E0008024B0146186800F025B800BFC8
S315080032E00413002070B50F4E0C460546316811B917
S315080032F000F0F2FB30602146284600F0EDFB431C47
S3150800330003D14FF0FF34204670BDC41C24F00304DB
S31508003310A042F8D0211A284600F0DEFB0130F2D18F
S31508003320EFE700BFD01200202DE9F041CD1C06467C
S3150800333025F0030508350C2D38BF0C25002D01DBBB
S31508003340A94204D90C2333600020BDE8F081314F2F
S3150800335000F062F83B681C4644BB29463046FFF736
S31508003360C1FF431C044650D13C682146002941D17F
S31508003370002C44D02368304604EB030800F0ACFB6D
S3150800338080453CD1216830466D1A2946FFF7AAFFC9
S31508003390013034D023682B4423603B68002B36D099
S315080033A05A68A24229D100225A600EE02268521BAE
S315080033B01DD40B2A16D96119A342256018BF596076
S315080033C0636808BF396062514B60304600F02AF8DE
S315080033D004F10B00231D20F00700C21AB5D01B1AF2
S315080033E0A350B2E7A3426268DED13A60EDE723460E
S315080033F06468B1E70C464968B8E71346CEE70C237C
S315080034003046336000F00EF89EE70560DDE75B6046
S31508003410FFDE00BFD4120020014801F05ABA00BFEF
S31508003420E0120020014801F055BA00BFE012002062
S3150800343070B5C66904460D4676B91020FFF74AFFEF
S315080034400246E06120B9184B6B21184800F066FB6C
S31508003450C0E901660660C660E669F36883B1E36998
S31508003460DB6853F82500B8B90121204601FA05F6AC
S31508003470721D920001F0DAFC60B1C0E901560EE057
S3150800348021220421204601F0D1FCE369F060DB68C3
S31508003490002BE4D1002070BD026843F825200023E4
S315080034A0C0E90333F7E700BF835D00081D5E000827
S315080034B070B5C66905460C4676B91020FFF70AFFAF
S315080034C00246E86120B9094B8F21094800F026FB1E
S315080034D0C0E901660660C6603CB1EB696268DB68F4
S315080034E053F82210216043F8224070BD835D00081E
S315080034F01D5E00082DE9F04101F1140C07460C4643
S315080035001E460D690020DCF80030013099B285426C
S3150800351002FB01614FEA13464FEA114389B202FBE7
S31508003520063301EB03414FEA13464CF8041BEADC69
S315080035300EB3A368AB4219DC616838460131FFF760
S3150800354077FF804628B902460C4BBA210C4800F092
S31508003550E5FA226904F10C010C300232920001F0FE
S3150800356058FC214644463846FFF7A2FF04EB85037C
S3150800357001355E6125612046BDE8F081FB5D0008E6
S315080035801D5E000810B50C460121FFF751FF0246E3
S3150800359028B9054B40F24511044800F0BFFA01234B
S315080035A04461036110BD00BFFB5D00081D5E000895
S315080035B02DE9F04F14460A690F4685B023699A42E9
S315080035C0A2BF23460C461F46D4F810A0A368D7F816
S315080035D0109061680AEB0906B342B8BF0131FFF7DC
S315080035E027FF30B90246454B4FF4B171444800F005
S315080035F095FA00F11405002205EB86082B4643458B
S3150800360021D307F1140104F1140204F1150702EBA2
S315080036108A0201EB89030293131B153B23F003036C
S315080036200433BA4238BF04230193029B03918B42A9
S315080036300CD8002E03DD58F8043D002B5BD006613C
S3150800364005B0BDE8F08F43F8042BD8E7B1F800A021
S31508003650BAF1000F24D004F1140EA9464FF0000C5D
S315080036605EF8047BD9F800301FFA87FB72459BB2D7
S315080036700AFB0B334FEA174BD9F8007063444FEA3D
S31508003680174C0AFB0BC707EB13479BB24FEA174CBD
S3150800369043EA074349F8043BE2D8019B45F803C0CF
S315080036A0039B0431B3F80290B9F1000F21D02B68BF
S315080036B004F1140CAE464FF0000ABCF800B09BB2F9
S315080036C0BEF8027009FB0B77574443EA07434EF8E6
S315080036D0043B5CF8043B4FEA134ABEF800306245E7
S315080036E009FB0A3303EB17434FEA134AE5D8019F50
S315080036F0EB51043599E7013E9BE700BFFB5D0008E7
S315080037001D5E00082DE9F843154612F00302074628
S315080037100E4607D0013A254C002354F82220FFF71D
S31508003720E9FE0646AD103DD0FC697CB91020FFF7CE
S31508003730D1FD0246F86128B91D4B40F2B3111D4868
S3150800374000F0ECF9C0E901440460C460D7F81C80B5
S31508003750D8F808404CB940F271213846FFF712FFF5
S3150800376000230446C8F8080003604FF00009EB0779
S315080037700AD5314622463846FFF71AFF80463146B3
S3150800378038464646FFF794FE6D100BD0206838B9C8
S31508003790224621463846FFF70BFF2060C0F8009006
S315080037A00446E4E73046BDE8F88300BF805E0008BB
S315080037B0835D00081D5E00082DE9F0470C460746A4
S315080037C091464FEA621A2369496803EB6218A368AF
S315080037D008F10106B3420BDB3846FFF729FE05461A
S315080037E048B90246284B4FF4EF71284800F096F97D
S315080037F001315B00EEE7002300F1140100F110022D
S315080038001846534533DB2AEAEA7A04F11403206999
S3150800381019F01F0901EB8A0103EB800C2BD0C9F1C3
S31508003820200E8A460022186800FA09F010434AF862
S31508003830040B53F8042B9C4522FA0EF2F3D8ACEB92
S31508003840040304F11500153B23F0030304338445F0
S3150800385038BF0423CA500AB108F10206013E3846A9
S3150800386021462E61FFF724FE2846BDE8F08701337E
S3150800387042F8040FC5E7043953F8042B9C4541F870
S31508003880042FF9D8EAE700BFFB5D00081D5E0008B3
S315080038902DE9F74F8946064611461446484601F073
S315080038A012FA051E12D129463046FFF7C1FD024617
S315080038B028B9414B40F23721404800F02FF901233F
S315080038C0C0E90435104603B0BDE8F08FBCBF4B46CF
S315080038D0A1463046B8BF0125D9F80410B4BF1C4626
S315080038E00025FFF7A5FD024618B9334B40F24521DE
S315080038F0E2E7D9F8107004F1140E266900F1140BEA
S31508003900C56009F1140509F110030EEB860605EBEF
S315080039108708D9464FF0000C0193019B5EF8040B0B
S3150800392053F804AF764501931FFA8AF3194683B212
S315080039304FEA1040A1EB0303C0EB1A40634400EBC7
S3150800394023409BB24FEA204C43EA004349F8043B24
S31508003950E3D8331B1534153B23F003030433A6427F
S3150800396038BF04231D445B442C461E4644450ED3EB
S3150800397008F10301491B033D21F00301A84538BF9F
S3150800398000210B4453F8041D99B117619AE754F8BE
S31508003990041BE6461FFA81FC080C7144F44489B2FC
S315080039A000EB2C4041EA00414FEA204C46F8041B44
S315080039B0DCE7013FE6E700BFFB5D00081D5E000887
S315080039C02DE9F7430F460121164659EC108BFFF7F0
S315080039D02FFD044630B90246234B40F20F312348E7
S315080039E000F09CF8C9F30A55C9F313030DB143F463
S315080039F080130193B8F1000323D06846009301F0C1
S31508003A0035F9DDE90012D0B1C0F1200302FA03F35B
S31508003A10C2400B4301926361019B002BA3610CBF5B
S31508003A20012202222261A5B1A5F233450544C0F15F
S31508003A3035003D603060204603B0BDE8F083616123
S31508003A40EAE701A801F012F9019B2030012263611F
S31508003A50E8E7A0F2324004EB82033860186901F007
S31508003A60E3F8C0EB4210E5E7FB5D00081D5E0008C1
S31508003A7038B50023054D044608462B6000F0CDFDF9
S31508003A80431C02D12B6803B1236038BDD81200202D
S31508003A9038B50446064D0846114600222A601A46DD
S31508003AA000F0C8FD431C02D12B6803B1236038BD62
S31508003AB0D812002038B50446064D0846114600229D
S31508003AC02A601A4600F0B8FD431C02D12B6803B1E0
S31508003AD0236038BDD812002038B50023054D0446AA
S31508003AE008462B60FEF750FA431C02D12B6803B137
S31508003AF0236038BDD812002038B50446064D08465E
S31508003B00114600222A601A4600F098FD431C02D18D
S31508003B102B6803B1236038BDD81200201FB51446A0
S31508003B201A46094B05461B68D86854B9074B1C4604
S31508003B3000910749CDE901342B4600F057F801F00A
S31508003B40B0F9044BF4E700BF04130020FA58000844
S31508003B50986000088B60000838B50546002941D0F2
S31508003B6051F8043C0C1F002BB8BFE418FFF754FCAF
S31508003B701D4A136833B9636014602846BDE83840A7
S31508003B80FFF750BCA34208D9206821188B4201BF11
S31508003B9019685B6809182160EDE71A465B680BB17E
S31508003BA0A342FAD911685018A0420BD120680144E3
S31508003BB0501811608342E0D118685B680844536066
S31508003BC01060DAE702D90C232B60D6E720682118A3
S31508003BD08B4202BF19685B680918636008BF2160D9
S31508003BE05460CAE738BD00BFD41200200EB403B52E
S31508003BF003AB0146054853F8042B0068019300F00F
S31508003C0007F802B05DF804EB03B070470413002010
S31508003C102DE9F04F0D469DB014469846064618B154
S31508003C20036A0BB9FFF71AFA6B6ED90705D4AB8985
S31508003C309A0502D4A86D00F04CFEAB891B0701D586
S31508003C402B699BB92946304600F0FAF870B16B6EBD
S31508003C50DC0704D54FF0FF301DB0BDE8F08FAB8907
S31508003C609805F7D4A86D00F035FEF3E70023CDF8E4
S31508003C700C804FF00109DFF8B481099320238DF8F1
S31508003C80293030238DF82A3023469A4613F8012B1B
S31508003C900AB1252AF9D1BAEB040B0BD05B462246AA
S31508003CA02946304601F01BF9013000F0A780099A31
S31508003CB05A4409929AF80030002B00F09F8000239E
S31508003CC04FF0FF320AF1010A049307938DF8533037
S31508003CD01A93CDE9052354460522544814F8011BC6
S31508003CE000F0F9FD049AD8B9D10644BF20238DF80F
S31508003CF05330130744BF2B238DF853309AF80030FE
S31508003D002A2B15D0079A544600204FF00A0C214654
S31508003D1011F8013B303B092B4BD9B0B1079214E09F
S31508003D20A0EB0803A24609FA03F313430493D2E768
S31508003D30039B191D1B68002B0391BBBF5B4242F016
S31508003D40020207930793B8BF049223782E2B0AD151
S31508003D5063782A2B32D1039B02341A1D1B6843EA67
S31508003D60E37303920593DFF8D4A003222178504623
S31508003D7000F0B1FD38B1A0EB0A004022049B0134E3
S31508003D8082401343049314F8011B062228488DF831
S31508003D90281000F0A0FD00283FD0264B1BBB039B34
S31508003DA0073323F0070308330393099B3B4409931E
S31508003DB06AE70CFB02320C460120A8E7002301340F
S31508003DC04FF00A0C19460593204610F8012B303A95
S31508003DD0092A03D9002BC6D00591C4E70CFB01219B
S31508003DE004460123F0E703AB2A4604A930460093AC
S31508003DF0114BFEF713FD0746781CD6D16B6ED90713
S31508003E0005D4AB899A0502D4A86D00F063FDAB8989
S31508003E105B063FF51FAF09981EE703AB2A4604A9C0
S31508003E2030460093044BFEF72DFFE4E70C5E0008CE
S31508003E30165E00081D280008DF4E0008125E0008FE
S31508003E4038B5294B05460C46186818B1036A0BB9EC
S31508003E50FFF704F9B4F90C30190722D4DA0607D4A7
S31508003E6009222A6043F040034FF0FF30A38133E074
S31508003E70580712D5616B41B104F14403994202D047
S31508003E802846FFF769FE00236363A38923F024030A
S31508003E90A3810023636023692360A38943F0080391
S31508003EA0A38123694BB9A38903F42073B3F5007F73
S31508003EB003D02146284601F087F8B4F90C3013F0F0
S31508003EC001020AD00022A26062695242A2612269F6
S31508003ED042B913F08000C5D138BD990758BF626949
S31508003EE0A260F4E70020F7E70413002038B50023A2
S31508003EF0064D0446084611462B6000F092FB431C0B
S31508003F0002D12B6803B1236038BD00BFD812002048
S31508003F1038B50023054D044608462B6000F085FB9E
S31508003F20431C02D12B6803B1236038BDD812002088
S31508003F30024B0146186801F083B800BF041300203D
S31508003F4038B50023064D0446084611462B6000F096
S31508003F506EFB431C02D12B6803B1236038BD00BF3A
S31508003F60D812002070B54FF0FF0C4CF4E06C1CEA38
S31508003F7011541DBF1CEA135594EA0C0F95EA0C0F51
S31508003F8000F0DEF82C4481EA030621EA4C5123EAC4
S31508003F904C5350EA013518BF52EA033541F48011F3
S31508003FA043F4801338D0A0FB02CE4FF00005E1FBA6
S31508003FB002E506F00042E0FB03E54FF00006E1FBF0
S31508003FC003569CF0000F18BF4EF0010EA4F1FF0433
S31508003FD0B6F5007F64F5407404D25FEA4E0E6D4173
S31508003FE046EB060642EAC62141EA55514FEAC52084
S31508003FF040EA5E504FEACE2EB4F1FD0C88BFBCF500
S31508004000E06F1ED8BEF1004F08BF5FEA500E50F1B0
S31508004010000041EB045170BD06F0004646EA010176
S3150800402040EA020081EA0301B4EB5C04C2BFD4EBA8
S315080040300C0541EA045170BD41F480114FF0000EA1
S31508004040013C00F3AB8014F1360FDEBF002001F00F
S31508004050004170BDC4F10004203C35DA0C341BDC89
S3150800406004F11404C4F1200500FA05F320FA04F05B
S3150800407001FA05F240EA020001F0004221F000418F
S3150800408010EBD37021FA04F642EB06015EEA430E02
S3150800409008BF20EAD37070BDC4F10C04C4F1200532
S315080040A000FA04F320FA05F001FA04F240EA0200E5
S315080040B001F0004110EBD37041F100015EEA430EB6
S315080040C008BF20EAD37070BDC4F1200500FA05F2D6
S315080040D04EEA020E20FA04F301FA05F243EA020355
S315080040E021FA04F001F0004121FA04F220EA020064
S315080040F000EBD3705EEA430E08BF20EAD37070BDAA
S3150800410094F0000F0FD101F00046400041EB010189
S3150800411011F4801F08BF013CF7D041EA060195F06B
S31508004120000F18BF704703F00046520043EB030325
S3150800413013F4801F08BF013DF7D043EA0603704712
S3150800414094EA0C0F0CEA135518BF95EA0C0F0CD01D
S3150800415050EA410618BF52EA4306D1D181EA030163
S3150800416001F000414FF0000070BD50EA410606BF5D
S315080041701046194652EA430619D094EA0C0F02D1A2
S3150800418050EA013613D195EA0C0F05D152EA0336E7
S315080041901CBF104619460AD181EA030101F0004105
S315080041A041F0FE4141F470014FF0000070BD41F04E
S315080041B0FE4141F4780170BD70B54FF0FF0C4CF428
S315080041C0E06C1CEA11541DBF1CEA135594EA0C0F47
S315080041D095EA0C0F00F0A7F8A4EB050481EA030E94
S315080041E052EA03354FEA013100F088804FEA03337B
S315080041F04FF0805545EA131343EA12634FEA022249
S3150800420045EA111545EA10654FEA00260EF0004109
S315080042109D4208BF964244F1FD0404F5407402D25B
S315080042205B084FEA3202B61A65EB03055B084FEAEC
S3150800423032024FF480104FF4002CB6EB020E75EBE9
S31508004240030E22BFB61A754640EA0C005B084FEA11
S315080042503202B6EB020E75EB030E22BFB61A75468E
S3150800426040EA5C005B084FEA3202B6EB020E75EBD9
S31508004270030E22BFB61A754640EA9C005B084FEA51
S315080042803202B6EB020E75EB030E22BFB61A75465E
S3150800429040EADC0055EA060E18D04FEA051545EA4D
S315080042A016754FEA06164FEAC30343EA52734FEAF6
S315080042B0C2025FEA1C1CC0D111F4801F0BD141EA6F
S315080042C000014FF000004FF0004CB6E711F4801FD4
S315080042D004BF01430020B4F1FD0C88BFBCF5E06FB4
S315080042E03FF6AFAEB5EB030C04BFB6EB020C5FEAC4
S315080042F0500C50F1000041EB045170BD0EF0004E19
S315080043004EEA113114EB5C04C2BFD4EB0C0541EA4A
S31508004310045170BD41F480114FF0000E013C90E647
S3150800432045EA060E8DE60CEA135594EA0C0F08BF0B
S3150800433095EA0C0F3FF43BAF94EA0C0F0AD150EA0A
S3150800434001347FF434AF95EA0C0F7FF425AF10469D
S3150800435019462CE795EA0C0F06D152EA03353FF4C5
S31508004360FDAE1046194622E750EA410618BF52EA42
S3150800437043067FF4C5AE50EA41047FF40DAF52EA16
S3150800438043057FF4EBAE12E74FF0FF3C06E000BFB3
S315080043904FF0010C02E000BF4FF0010C4DF804CDC0
S315080043A04FEA410C7FEA6C5C4FEA430C18BF7FEA80
S315080043B06C5C1BD001B050EA410C0CBF52EA430CAE
S315080043C091EA030F02BF90EA020F0020704710F12E
S315080043D0000F91EA030F58BF994208BF90422CBFBD
S315080043E0D8176FEAE37040F0010070474FEA410CB6
S315080043F07FEA6C5C02D150EA013C07D14FEA430CD4
S315080044007FEA6C5CD6D152EA033CD3D05DF8040B44
S31508004410704700BF8446104662468C461946634676
S3150800442000E000BF01B5FFF7B7FF002848BF10F14D
S31508004430000F01BD4DF808EDFFF7F4FF0CBF012092
S3150800444000205DF808FB00BF4DF808EDFFF7EAFF0E
S3150800445034BF012000205DF808FB00BF4DF808EDC9
S31508004460FFF7E0FF94BF012000205DF808FB00BFBE
S315080044704DF808EDFFF7CEFF94BF012000205DF848
S3150800448008FB00BF4DF808EDFFF7C4FF34BF012055
S3150800449000205DF808FB00BF4FEA410C7FEA6C5C20
S315080044A002D150EA013C0AD14FEA430C7FEA6C5C20
S315080044B002D152EA033C02D14FF0000070474FF098
S315080044C0010070474FEA410212F5001215D211D5C4
S315080044D06FF47873B3EB625212D94FEAC12343F0F3
S315080044E0004343EA505311F0004F23FA02F018BF75
S315080044F0404270474FF00000704750EA013005D13E
S3150800450011F0004008BF6FF0004070474FF0000000
S31508004510704700BF38B500240546284600F0E9F97B
S31508004520A04200D838BD285DFCF7F6FD0134F4E753
S3150800453008B540F08000FCF7A7FEFCF7B5FE0020A2
S31508004540FCF7B2FEFCF7A8FE08BD38B515460C46C2
S3150800455040F08000FCF798FEFCF7A6FE2544AC4226
S3150800456003D1BDE83840FCF797BE0020FCF79CFE57
S3150800457004F8010BF3E710B50C4600F07F00FCF7D2
S3150800458083FEFCF791FE2046FCF78EFEBDE8104040
S31508004590FCF782BE13B50622044669463B20FFF7A0
S315080045A0D4FF3A20FFF7C4FFC307FAD5BDF8003099
S315080045B05BBA2380BDF802305BBA6380BDF804306D
S315080045C05BBAA38002B010BD13B50622044669463D
S315080045D04320FFF7BAFF3A20FFF7AAFFC307FAD529
S315080045E0BDF800305BBA2380BDF802305BBA638041
S315080045F0BDF804305BBAA38002B010BDFEE7002305
S315080046009A4200D1704710B550F8234041F823402C
S3150800461001339A42F8D110BDFEE74FF0FF307047DC
S31508004620FEE70020704701207047012070474FF0D1
S31508004630FF30704700207047002070470020704701
S3150800464070B5054614460E4601F073F82B685C40B3
S3150800465034405C402C60BDE8704001F065B82DE937
S31508004660F04F85B00C469046194657EC106B002F54
S315080046703B46DDE90E9BBCBF07F1004332462BF0F3
S31508004680200AAFBF00231F4616462D23BAF1460F50
S315080046900B7005D0BAF1450F00D10134022100E0B4
S315080046A0032103AB2246019302AB47EC106B009340
S315080046B04B46FBF721FEBBF1670F054619D118F0EB
S315080046C0010F0ED005EB04080022002330463946B8
S315080046D0FFF7B0FE08B1CDF80C803022039B4345A6
S315080046E021D3039B2846109A5B1B136005B0BDE8CF
S315080046F0F08FBBF1470FE2D0BAF1460F00EB040882
S31508004700E2D10378302B0AD10022002330463946FD
S31508004710FFF790FE18B9C4F10104C9F80040D9F8AA
S3150800472000309844D0E7591C03911A70D6E7F7B5BC
S3150800473000290270BABF49422D232B230929437049
S3150800474028DD0DF107030A271D461A46013BB1FB72
S31508004750F7F607FB1614303402F8014C0C463146BE
S31508004760632CF2DC3031941E03F8011C411C2346ED
S31508004770AB420AD30DF109039B1AAC4288BF00234A
S3150800478002330344181A03B0F0BD13F8016B01F89D
S31508004790016FEDE7302330318370031DC170F1E7F7
S315080047A02DE9F047164698468A6807460B690C466F
S315080047B0DDF820909342B8BF1346336091F8432042
S315080047C00AB1013333602368990642BF336802335E
S315080047D03360256815F0060506D104F1190AE36861
S315080047E032689B1AAB422BDC94F843302268003BB4
S315080047F018BF0123920630D404F1430241463846D5
S31508004800C847013023D023681A3454F80A2C03F019
S315080048100603042B0ABF54F80E5C002533684FF0D4
S31508004820000608BFED1A54F8123C08BF25EAE575DC
S315080048309342C4BF9B1AED18B5421AD1002008E06E
S315080048400123524641463846C847013003D14FF046
S31508004850FF30BDE8F0870135C1E7E1185A1C302062
S315080048600233224481F8430094F8451082F8431035
S31508004870C2E70123224641463846C8470130E6D0FA
S315080048800136D9E72DE9F843074688461446002637
S31508004890D4E90195B9F1010905D52468002CF7D1A9
S315080048A03046BDE8F883AB89012B07D9B5F90E3038
S315080048B0013303D029463846C04706436835E9E739
S315080048C002440346934200D1704703F8011BF9E7F7
S315080048D0704770477047C9B20346024410B5934201
S315080048E0184601D1002003E0047801338C42F6D142
S315080048F010BD034613F8012B002AFBD1181A0138FC
S3150800490070472DE9F74F036907460C69A342C0F2C1
S315080049108380013C00F1140501F11408A30055F841
S31508004920242008EB8409009305EB8403019358F8C7
S31508004930243001339A42B2FBF3F631D34FF0000A22
S31508004940C446AE46D3465CF8043B98B2E1454FEA06
S31508004950134306FB00A04FEA104280B206FB03236E
S31508004960DEF8002092B24FEA134AA2EB00029BB28D
S31508004970DEF800005A44C3EB224392B203EB10431D
S3150800498042EA03424FEA234B4EF8042BDBD2009B44
S31508004990EB582BB9019B043B9D421A4630D33C6128
S315080049A0384600F090F9002826DB2946002058F8FA
S315080049B0042BD1F800C01FFA82FEC1451FFA8CF3FA
S315080049C04FEA1242A3EB0E030344C2EB23429BB207
S315080049D002EB1C4243EA02434FEA224041F8043BF9
S315080049E0E5D255F8242005EB840322B9043B9D4201
S315080049F01A460BD33C610136304603B0BDE8F08F4A
S31508004A001268043B002ACAD1013CC5E71268043B78
S31508004A10002AEFD1013CEAE70020EEE72DE9F0474E
S31508004A201F468E6882460C46BE4290460B682DD8B5
S31508004A30B1F90C2012F4906F26D06569096905EB67
S31508004A404505A3EB01097B1C05EBD5754B446D1099
S31508004A509D4238BF1D46530527D52946FEF764FCF7
S31508004A60064660B34A46216900F0D3F9A38923F4C0
S31508004A70906343F08003A38126614E446561A5EBEC
S31508004A80090526603E46A560BE4200D93E46324626
S31508004A904146206800F0A3F9A36800209B1BA36089
S31508004AA0236833442360BDE8F0872A4600F069F995
S31508004AB006460028E0D121695046FFF74DF80C2339
S31508004AC04FF0FF30CAF80030A38943F04003A381B2
S31508004AD0E9E7B1F90C202DE9F041170705460C4620
S31508004AE056D44B68002B02DC0B6C002B3DDDE66AC6
S31508004AF0002E3AD0002312F480522F68216A2B60C8
S31508004B0025D0626DA389580705D56368D21A636BE9
S31508004B100BB1236CD21A216A0023E66A2846B047ED
S31508004B20411C24D00023636023692360A389DA0427
S31508004B3000D56065616B2F60B9B104F144039942F1
S31508004B4002D02846FFF708F8002363630DE0012327
S31508004B502846B047461C0246D4D12B68002BD1D034
S31508004B601D2B01D0162B2AD12F6000202EE02A6893
S31508004B70B4F90C3042B11D2A01D0162A21D10023DE
S31508004B80636023692360D5E7626022692260CEE705
S31508004B900F69002FE9D093070E680F600CBF4B69A9
S31508004BA00023A6EB07088B60B8F1000FDDDD43464E
S31508004BB03A46216A2846A66AB047002808DCB4F9AE
S31508004BC00C3043F040034FF0FF30A381BDE8F0817D
S31508004BD00744A8EB0008E7E738B50B6905460C4615
S31508004BE013B90025284638BD18B1036A0BB9FEF774
S31508004BF035FAB4F90C30002BF3D0626ED00704D422
S31508004C00990502D4A06DFFF764FE28462146FFF7F2
S31508004C1060FF636E0546DA07E4D4A3899B05E1D4F1
S31508004C20A06DFFF757FEDDE7B0F5803F034636BFB8
S31508004C30030400201020B3F1807F3CBF1B0208301C
S31508004C40B3F1805F3CBF1B010430B3F1804F03D33F
S31508004C50002B0ADB013070479B0001D502307047F4
S31508004C605B0001D503307047202070470368024671
S31508004C7013F007000BD0D90721D4980747BF5B0864
S31508004C8001209B0802204CBF13601360704799B23D
S31508004C9009B91B0C1020D9B209B908301B0A190723
S31508004CA004BF1B090430990704BF9B080230D907C3
S31508004CB003D45B0800F1010003D01360704700209D
S31508004CC070472020704703460A690069801A30B584
S31508004CD00ED11433143103EB820401EB820154F82C
S31508004CE0045D51F8042D954203D005D24FF0FF30EC
S31508004CF030BDA342F3D3FBE70120F9E710B50C4614
S31508004D00B1F90E10FEF7D6FE0028ABBF636DA38976
S31508004D101B1823F48053ACBF6365A38110BD2DE92E
S31508004D20F0411F468B8905460C46DB05164605D518
S31508004D3002230022B1F90E10FEF7AAFEA389324615
S31508004D40B4F90E10284623F48053A3813B46BDE8E8
S31508004D50F041FEF7D1BE10B50C46B1F90E10FEF7BC
S31508004D6097FE431CA38915BF606523F4805343F45B
S31508004D708053A38118BFA38110BDB1F90E10FEF7A9
S31508004D8077BE2DE9F041804615460C4621B91146F5
S31508004D90BDE8F041FEF7C8BA2AB9FEF7DDFE0024E1
S31508004DA02046BDE8F08100F067F88542064602D83D
S31508004DB0B5EB500FF4D829464046FEF7B5FA074634
S31508004DC00028ECD0B5422A46214628BF324600F0D4
S31508004DD020F8214640463C46FEF7BEFEE0E78842FC
S31508004DE010B501EB020402D98442234607D8431EB4
S31508004DF0A14208D011F8012B03F8012FF8E7024465
S31508004E0001468A4200D110BD13F8014D02F8014D42
S31508004E10F7E70A44431E914200D1704710B511F8CE
S31508004E20014B914203F8014FF9D110BD70B5A1FBB2
S31508004E3002543CB92946FEF777FA064628B90026F1
S31508004E40304670BD0C220260F9E72A462146FFF774
S31508004E5037FDF5E782B001B901A942B14BB1137824
S31508004E600B601278101E18BF012002B0704710465A
S31508004E70FBE76FF00100F8E751F8043C181F002B18
S31508004E80BCBF0B58C01870470346084641B1FF2AF5
S31508004E9004D98A224FF0FF301A60704701200A7041
S31508004EA07047062008B5FFF743F80120FFF7B8FB5F
S31508004EB09368013B002B936010B408DA9469A34207
S31508004EC001DB0A2903D15DF8044B00F01AB8136810
S31508004ED0581C1060084619705DF8044B7047F8B501
S31508004EE006460F461446D518AC4201D1002007E005
S31508004EF03A4614F8011B3046FFF7DAFF431CF3D194
S31508004F00F8BDF8B50E461446054618B1036A0BB93E
S31508004F10FEF7A4F8A369A360A3891A0701D5236934
S31508004F2043B921462846FEF78BFF18B14FF0FF37E5
S31508004F303846F8BD2368F6B222693746981A636977
S31508004F40834205DC21462846FFF746FE0028EDD1B8
S31508004F50A368013BA36023685A1C22601E70431C89
S31508004F6062699A4204D0A389DB07E1D50A2EDFD10C
S31508004F7021462846FFF730FE0028D9D0D6E770B577
S31508004F800C46B1F90E1096B0154600291E460CDAE5
S31508004F90A389002113F0800F14BF40234FF48063C8
S31508004FA0002031602B6016B070BD6A46FEF79EFF82
S31508004FB00028EDDB019901F47041A1F5005359422F
S31508004FC059414FF48063EBE78B89F7B59D07064691
S31508004FD00C4607D504F14703236023610123636167
S31508004FE003B0F0BD01AB6A46FFF7C9FF009F05464F
S31508004FF030463946FEF798F948B9B4F90C309A059F
S31508005000EED423F0030343F00203A381E2E7A38966
S31508005010206043F08003A381019BC4E904075BB1C8
S31508005020B4F90E103046FEF773FF28B1A38923F0B2
S31508005030030343F00103A381A3891D43A581CFE799
S315080050401F2938B505460C4604D9162303604FF0C8
S31508005050FF3038BDC26B12B152F821304BB9284621
S3150800506000F016F8224601462846BDE83840FEF705
S3150800507067BF012B0AD0591C03D1162303600120F0
S31508005080E7E70021204642F8241098470020E0E789
S31508005090FFF7C9BA014B1868704700BFE81200202D
S315080050A00A4B1B6F03F00703013B032B03D8DFE80A
S315080050B003F00A030608FEE7054B18687047054B18
S315080050C0FBE7054870470548704700BF0080005059
S315080050D0E8120020F012002080D54302002D31018D
S315080050E008B5FFF7DDFF054B1B6FC3F30333013329
S315080050F0B0FBF3F0024B186008BD00BF00800050FB
S31508005100E412002000487047002D3101014B186851
S31508005110704700BFF01200200048704780D5430250
S315080051204FF40022184B5A664FF0B4439868C0F300
S3150800513004400C280AD8DFE800F00B090909090918
S31508005140072119091B1D1F001048704700207047CA
S315080051509B6803F04073B3F1807F11D0B3F1007FF1
S3150800516010D00B4A002B08BF1046704709487047F5
S315080051700948704709487047094870470948704701
S31508005180094870470948704700900050405DC600BE
S3150800519000093D00C0EA210180BA8C010048E801F7
S315080051A0005A62020024F40080841E0040420F0068
S315080051B0014B1868704700BFEC120020034B5A6871
S315080051C0D20702D5DA69002AF9D1704700800A5059
S315080051D038B9064B5A68D20702D59A6D002AF9D112
S315080051E070478C210248FFF717BA00BF00800A50A3
S315080051F00D5B000810B9044B5964704740F2C7119B
S315080052000248FFF709BA00BF00900A500D5B000874
S3150800521010B9044B5964704740F203210248FFF75E
S31508005220FBB900BF00A00A500D5B000810B9044B7B
S315080052301964704740F23F210248FFF7EDB900BFF5
S3150800524000A00A500D5B000808B510B9044B186C8D
S3150800525008BD044840F27A21FFF7DEF90020F7E797
S3150800526000800A500D5B000838B504460D46FFF766
S31508005270AFFF14B91DB1012D04D0002001E0034B86
S31508005280D86C38BD014B186DFBE700BF00800A508B
S3150800529070B506460D461446FFF79AFF16B915B1BE
S315080052A0012D03D070BD034BDC64FBE7014B1C6585
S315080052B0F8E700BF00800A5070B50D46E8B10368EC
S315080052C013F4E07F03F03F06C3F3821210D0012ADD
S315080052D013D10B4C9B0603D591210A48FFF79CF97D
S315080052E045B104F5805401230020B340236070BD06
S315080052F0054CEFE704F50054F5E70E20F7E700BF85
S3150800530068800050715B00086480005030B50E4C10
S31508005310416123688BB9206083600DE0891A9A6819
S315080053201D4641616AB113465A698A42F6D935B1B2
S31508005330A860521A83605A6130BD0025F4E72060E0
S31508005340F7E798608260F7E7881100200D490B6837
S31508005350A0B10022A3B1834203D1836822B90B60AE
S3150800536003E01A469B68F5E7936083680BB900204B
S3150800537070475A6941690A445A61F8E7222070471A
S31508005380022070478811002038B500F061F9002521
S31508005390084B094C1A682368C31A2AB123B1516904
S315080053A0994203D3C91A5161206038BD55615B1A09
S315080053B09268F2E7881100208411002038B5154D4F
S315080053C02B682BB35B69A3B1134A022014681C44EB
S315080053D000F053FA204600F04FF900230F492A68D7
S315080053E00B7022B1D08880070AD501230B700020E4
S315080053F038BD022000F041FA022000F087F9ECE7F8
S315080054009268002AF3D050690344012BEAD9EEE7E3
S315080054102220EDE78811002084110020DE120020EA
S3150800542070B516469DF81420C0E903360271049A31
S31508005430BDF818300260002204460D468260C3801B
S31508005440EEB900F005F92844A0619DB12E4600F09A
S3150800545070F90546FFF798FF31462046FFF756FFD5
S31508005460104B1B68A34201D1FFF7A8FF284600F09E
S315080054705BF902E0E36865617BB9002070BD00F066
S31508005480E7F83044A061002DE0D1E3686561002BA0
S31508005490DDD0204621689847D9E7204621689847F5
S315080054A0EBE700BF8811002038B50C460546A8B1C1
S315080054B0A1B100230B7000F045F90121084B1B68C8
S315080054C033B900F03AF9002038BD9D4204D1217065
S315080054D02278002AF9D0F4E79B68F1E72220F3E75F
S315080054E08811002038B50021044640F2E730054B04
S315080054F04FF47A721D680023E5FB0401FCF7ECFF04
S3150800550038BD00BF8C1100202DE9F843C2070446B8
